MPLINK 5.00, LINKER
Linker Map File - Created Tue Oct 09 00:36:27 2018

                                 Section Info
                  Section       Type    Address   Location Size(Bytes)
                ---------  ---------  ---------  ---------  ---------
               _entry_scn       code   0x000000    program   0x000006
       .code__user_putc.o       code   0x000006    program   0x000002
               highVector       code   0x000008    program   0x000006
           .romdata_TCP.o    romdata   0x00000e    program   0x000006
           .code___init.o       code   0x000014    program   0x000002
.romdata_Command_Execution.o    romdata   0x000016    program   0x000000
         .romdata_MPFS2.o    romdata   0x000016    program   0x000000
      .idata_fxd1616u.o_i    romdata   0x000016    program   0x000000
      .romdata_fxd1616u.o    romdata   0x000016    program   0x000000
            .romdata_IP.o    romdata   0x000016    program   0x000000
      .idata_fxd3232u.o_i    romdata   0x000016    program   0x000000
      .romdata_fxd3232u.o    romdata   0x000016    program   0x000000
          .romdata_ICMP.o    romdata   0x000016    program   0x000000
       .idata_fxm3232.o_i    romdata   0x000016    program   0x000000
       .romdata_fxm3232.o    romdata   0x000016    program   0x000000
       .romdata_Helpers.o    romdata   0x000016    program   0x000000
        .idata___init.o_i    romdata   0x000016    program   0x000000
        .romdata___init.o    romdata   0x000016    program   0x000000
         .romdata_HTTP2.o    romdata   0x000016    program   0x000000
.romdata_Dotacion_Movil.o    romdata   0x000016    program   0x000000
          .romdata_NBNS.o    romdata   0x000016    program   0x000000
      .romdata_Leds_Pwm.o    romdata   0x000016    program   0x000000
.romdata_Command_Parser.o    romdata   0x000016    program   0x000000
        .romdata_Reboot.o    romdata   0x000016    program   0x000000
.romdata_GenericTCPClient.o    romdata   0x000016    program   0x000000
     .romdata_VLSICodec.o    romdata   0x000016    program   0x000000
        .romdata_SPIRAM.o    romdata   0x000016    program   0x000000
     .idata_VLSICodec.o_i    romdata   0x000016    program   0x000000
     .romdata_MP3Client.o    romdata   0x000016    program   0x000000
      .romdata_StackTsk.o    romdata   0x000016    program   0x000000
       .romdata_SPIRAM2.o    romdata   0x000016    program   0x000000
      .romdata_MainDemo.o    romdata   0x000016    program   0x000000
          .romdata_Tick.o    romdata   0x000016    program   0x000000
           .romdata_UDP.o    romdata   0x000016    program   0x000000
           .idata_UDP.o_i    romdata   0x000016    program   0x000002
         .idata_c018i.o_i    romdata   0x000016    program   0x000000
         .romdata_c018i.o    romdata   0x000016    program   0x000000
    .romdata__user_putc.o    romdata   0x000016    program   0x000000
    .idata__user_putc.o_i    romdata   0x000016    program   0x000000
    .romdata_EraseFlash.o    romdata   0x000016    program   0x000000
          .romdata_putc.o    romdata   0x000016    program   0x000000
          .idata_putc.o_i    romdata   0x000016    program   0x000000
     .romdata_ReadFlash.o    romdata   0x000016    program   0x000000
      .idata_vfprintf.o_i    romdata   0x000016    program   0x000000
.idata_WriteBlockFlash.o_i    romdata   0x000016    program   0x000000
.romdata_WriteBlockFlash.o    romdata   0x000016    program   0x000000
       .romdata_sprintf.o    romdata   0x000016    program   0x000000
.idata_WriteBytesFlash.o_i    romdata   0x000016    program   0x000000
.romdata_WriteBytesFlash.o    romdata   0x000016    program   0x000000
       .idata_sprintf.o_i    romdata   0x000016    program   0x000000
.idata_WriteWordFlash.o_i    romdata   0x000016    program   0x000000
         .idata_log10.o_i    romdata   0x000016    program   0x000000
      .romdata_ETH97J60.o    romdata   0x000016    program   0x000000
         .romdata_log10.o    romdata   0x000016    program   0x000000
           .idata_log.o_i    romdata   0x000016    program   0x000000
           .romdata_DNS.o    romdata   0x000016    program   0x000000
           .romdata_log.o    romdata   0x000016    program   0x000000
      .idata_UnpkMath.o_i    romdata   0x000016    program   0x000000
          .romdata_DHCP.o    romdata   0x000016    program   0x000000
      .romdata_UnpkMath.o    romdata   0x000016    program   0x000000
         .idata_errno.o_i    romdata   0x000016    program   0x000000
      .romdata_Announce.o    romdata   0x000016    program   0x000000
         .romdata_errno.o    romdata   0x000016    program   0x000000
         .idata_frexp.o_i    romdata   0x000016    program   0x000000
           .romdata_ARP.o    romdata   0x000016    program   0x000000
         .romdata_frexp.o    romdata   0x000016    program   0x000000
      .romdata_PackMath.o    romdata   0x000016    program   0x000000
.romdata_WriteWordFlash.o    romdata   0x000016    program   0x000000
                lowVector       code   0x000018    program   0x000006
                   .cinit    romdata   0x00001e    program   0x0000aa
              .code_TCP.o       code   0x0000c8    program   0x0046cc
.code_Command_Execution.o       code   0x004794    program   0x001600
              .code_UDP.o       code   0x005d94    program   0x000f3a
         .code_vfprintf.o       code   0x006cce    program   0x000c22
             .code_DHCP.o       code   0x0078f0    program   0x000b8e
              .code_DNS.o       code   0x00847e    program   0x000a28
          .code_Helpers.o       code   0x008ea6    program   0x0009c4
         .code_ETH97J60.o       code   0x00986a    program   0x00092c
                     PROG       code   0x00a196    program   0x000638
              .code_log.o       code   0x00a7ce    program   0x0004fa
   .code_Command_Parser.o       code   0x00acc8    program   0x0004aa
         .code_Leds_Pwm.o       code   0x00b172    program   0x0004a8
              .code_ARP.o       code   0x00b61a    program   0x000446
        .code_MP3Client.o       code   0x00ba60    program   0x0003c2
 .code_GenericTCPClient.o       code   0x00be22    program   0x0003a0
         .code_MainDemo.o       code   0x00c1c2    program   0x0002e6
               .code_IP.o       code   0x00c4a8    program   0x00029e
           .code_SPIRAM.o       code   0x00c746    program   0x00024c
         .code_StackTsk.o       code   0x00c992    program   0x000234
        .code_VLSICodec.o       code   0x00cbc6    program   0x000208
          .code_SPIRAM2.o       code   0x00cdce    program   0x0001d6
                   STRING       code   0x00cfa4    program   0x0001ba
   .code_Dotacion_Movil.o       code   0x00d15e    program   0x0001b8
  .code_WriteBytesFlash.o       code   0x00d316    program   0x00012c
            .code_frexp.o       code   0x00d442    program   0x000124
         .code_UnpkMath.o       code   0x00d566    program   0x00011c
         .code_PackMath.o       code   0x00d682    program   0x00011a
             .code_Tick.o       code   0x00d79c    program   0x0000da
  .code_WriteBlockFlash.o       code   0x00d876    program   0x0000d8
             .code_ICMP.o       code   0x00d94e    program   0x0000d4
          .code_sprintf.o       code   0x00da22    program   0x0000ac
               _cinit_scn       code   0x00dace    program   0x00009e
            .code_log10.o       code   0x00db6c    program   0x000098
             .code_putc.o       code   0x00dc04    program   0x000084
          .code_fxm3232.o       code   0x00dc88    program   0x000070
       .code_EraseFlash.o       code   0x00dcf8    program   0x00006c
             .stringtable    romdata   0x00dd64    program   0x00004c
        .code_ReadFlash.o       code   0x00ddb0    program   0x00004c
         .code_fxd3232u.o       code   0x00ddfc    program   0x000048
         .code_fxd1616u.o       code   0x00de44    program   0x00002c
                    .code       code   0x00de70    program   0x00002c
                    CTYPE       code   0x00de9c    program   0x000024
              D1KTCYXCODE       code   0x00dec0    program   0x000020
             _startup_scn       code   0x00dee0    program   0x00001c
                    STDIO       code   0x00defc    program   0x00001c
              D10TCYXCODE       code   0x00df18    program   0x000016
      .romdata_vfprintf.o    romdata   0x00df2e    program   0x000011
          .idata_Tick.o_i    romdata   0x00df3f    program   0x000004
           .idata_TCP.o_i    romdata   0x00df43    program   0x000002
      .idata_StackTsk.o_i    romdata   0x00df45    program   0x000001
          .idata_NBNS.o_i    romdata   0x00df46    program   0x000000
      .idata_MainDemo.o_i    romdata   0x00df46    program   0x00000e
     .idata_ReadFlash.o_i    romdata   0x00df46    program   0x000000
      .idata_PackMath.o_i    romdata   0x00df46    program   0x000000
       .idata_SPIRAM2.o_i    romdata   0x00df46    program   0x000000
        .idata_SPIRAM.o_i    romdata   0x00df46    program   0x000000
        .idata_Reboot.o_i    romdata   0x00df46    program   0x000000
         .idata_MPFS2.o_i    romdata   0x00df54    program   0x000000
     .idata_MP3Client.o_i    romdata   0x00df54    program   0x000010
      .idata_Leds_Pwm.o_i    romdata   0x00df64    program   0x000000
            .idata_IP.o_i    romdata   0x00df64    program   0x000002
          .idata_ICMP.o_i    romdata   0x00df66    program   0x000000
       .idata_Helpers.o_i    romdata   0x00df66    program   0x000004
.idata_GenericTCPClient.o_i    romdata   0x00df6a    program   0x00004f
         .idata_HTTP2.o_i    romdata   0x00df6a    program   0x000000
      .idata_ETH97J60.o_i    romdata   0x00dfb9    program   0x000000
           .idata_DNS.o_i    romdata   0x00dfb9    program   0x000003
    .idata_EraseFlash.o_i    romdata   0x00dfb9    program   0x000000
.idata_Dotacion_Movil.o_i    romdata   0x00dfb9    program   0x000000
          .idata_DHCP.o_i    romdata   0x00dfbc    program   0x000001
.idata_Command_Parser.o_i    romdata   0x00dfbd    program   0x000034
.idata_Command_Execution.o_i    romdata   0x00dff1    program   0x000002
           .idata_ARP.o_i    romdata   0x00dff3    program   0x000001
      .idata_Announce.o_i    romdata   0x00dff3    program   0x000000
           .code_Reboot.o       code   0x00dff4    program   0x000000
            .code_c018i.o       code   0x00dff4    program   0x000000
             .code_NBNS.o       code   0x00dff4    program   0x000000
            .code_MPFS2.o       code   0x00dff4    program   0x000000
            .code_HTTP2.o       code   0x00dff4    program   0x000000
   .code_WriteWordFlash.o       code   0x00dff4    program   0x000000
            .code_errno.o       code   0x00dff4    program   0x000000
         .code_Announce.o       code   0x00dff4    program   0x000000
 .config_1fff8_MainDemo.o    romdata   0x01fff8    program   0x000001
 .config_1fffa_MainDemo.o    romdata   0x01fffa    program   0x000001
 .config_1fffd_MainDemo.o    romdata   0x01fffd    program   0x000001
                 .tmpdata      udata   0x000000       data   0x000020
                MATH_DATA      udata   0x000020       data   0x000014
               MP3ISRTemp      udata   0x000034       data   0x00000c
                  SPIRAM2      udata   0x000040       data   0x000006
                DELAYDAT1      udata   0x000046       data   0x000001
        .udata_ETH97J60.o      udata   0x000060       data   0x000034
  .idata_Command_Parser.o      idata   0x000094       data   0x000034
        .udata_MainDemo.o      udata   0x0000c8       data   0x000033
  .udata_Dotacion_Movil.o      udata   0x0000fb       data   0x000004
              temp_tblptr      udata   0x0000ff       data   0x000001
             .udata_UDP.o      udata   0x000100       data   0x0000f6
           .udata_c018i.o      udata   0x0001f6       data   0x00000a
             .udata_TCP.o      udata   0x000200       data   0x0000cf
            .udata_DHCP.o      udata   0x0002cf       data   0x00002d
            .udata_ICMP.o      udata   0x0002fc       data   0x000004
             .udata_DNS.o      udata   0x000300       data   0x000026
       .udata_MP3Client.o      udata   0x000326       data   0x000024
        .udata_Leds_Pwm.o      udata   0x00034a       data   0x00001e
             .udata_ARP.o      udata   0x000368       data   0x00001e
                 TCB_uRAM      udata   0x000386       data   0x00001c
  .udata_Command_Parser.o      udata   0x0003a2       data   0x00001b
.udata_Command_Execution.o      udata   0x0003bd       data   0x00001b
         .udata_SPIRAM2.o      udata   0x0003d8       data   0x000013
          .udata_SPIRAM.o      udata   0x0003eb       data   0x000013
           .udata_errno.o      udata   0x0003fe       data   0x000002
              .udata_IP.o      udata   0x000400       data   0x000012
       .udata_VLSICodec.o      udata   0x000412       data   0x00000b
        .udata_StackTsk.o      udata   0x00041d       data   0x00000b
            .udata_Tick.o      udata   0x000428       data   0x00000a
 .udata_WriteBytesFlash.o      udata   0x000432       data   0x000008
       .udata_ReadFlash.o      udata   0x00043a       data   0x000008
.udata_GenericTCPClient.o      udata   0x000442       data   0x000008
      .udata_EraseFlash.o      udata   0x00044a       data   0x000008
 .udata_WriteBlockFlash.o      udata   0x000452       data   0x000007
            .idata_Tick.o      idata   0x000459       data   0x000004
         .idata_Helpers.o      idata   0x00045d       data   0x000004
             .idata_UDP.o      idata   0x000461       data   0x000002
             .idata_TCP.o      idata   0x000463       data   0x000002
              .idata_IP.o      idata   0x000465       data   0x000002
.idata_Command_Execution.o      idata   0x000467       data   0x000002
        .idata_StackTsk.o      idata   0x000469       data   0x000001
            .idata_DHCP.o      idata   0x00046a       data   0x000001
             .idata_ARP.o      idata   0x00046b       data   0x000001
             .idata_log.o      idata   0x00046c       data   0x000000
           .udata_MPFS2.o      udata   0x00046c       data   0x000000
           .idata_MPFS2.o      idata   0x00046c       data   0x000000
            .udata_NBNS.o      udata   0x00046c       data   0x000000
            .idata_NBNS.o      idata   0x00046c       data   0x000000
          .udata_Reboot.o      udata   0x00046c       data   0x000000
            .idata_ICMP.o      idata   0x00046c       data   0x000000
          .idata_Reboot.o      idata   0x00046c       data   0x000000
         .idata_SPIRAM2.o      idata   0x00046c       data   0x000000
          .idata_SPIRAM.o      idata   0x00046c       data   0x000000
             .udata_log.o      udata   0x00046c       data   0x000000
           .idata_log10.o      idata   0x00046c       data   0x000000
  .idata_Dotacion_Movil.o      idata   0x00046c       data   0x000000
           .udata_log10.o      udata   0x00046c       data   0x000000
        .idata_Leds_Pwm.o      idata   0x00046c       data   0x000000
          .idata___init.o      idata   0x00046c       data   0x000000
          .udata___init.o      udata   0x00046c       data   0x000000
         .idata_fxm3232.o      idata   0x00046c       data   0x000000
         .udata_fxm3232.o      udata   0x00046c       data   0x000000
        .idata_fxd3232u.o      idata   0x00046c       data   0x000000
        .udata_fxd3232u.o      udata   0x00046c       data   0x000000
       .idata_VLSICodec.o      idata   0x00046c       data   0x000000
        .idata_fxd1616u.o      idata   0x00046c       data   0x000000
        .udata_fxd1616u.o      udata   0x00046c       data   0x000000
            .udata_putc.o      udata   0x00046c       data   0x000000
        .idata_Announce.o      idata   0x00046c       data   0x000000
        .udata_Announce.o      udata   0x00046c       data   0x000000
        .idata_ETH97J60.o      idata   0x00046c       data   0x000000
        .idata_vfprintf.o      idata   0x00046c       data   0x000000
        .udata_vfprintf.o      udata   0x00046c       data   0x000000
  .idata_WriteWordFlash.o      idata   0x00046c       data   0x000000
         .idata_sprintf.o      idata   0x00046c       data   0x000000
         .udata_sprintf.o      udata   0x00046c       data   0x000000
        .idata_PackMath.o      idata   0x00046c       data   0x000000
  .udata_WriteWordFlash.o      udata   0x00046c       data   0x000000
        .udata_PackMath.o      udata   0x00046c       data   0x000000
           .idata_frexp.o      idata   0x00046c       data   0x000000
           .udata_frexp.o      udata   0x00046c       data   0x000000
            .idata_putc.o      idata   0x00046c       data   0x000000
 .idata_WriteBytesFlash.o      idata   0x00046c       data   0x000000
      .idata_EraseFlash.o      idata   0x00046c       data   0x000000
           .udata_HTTP2.o      udata   0x00046c       data   0x000000
           .idata_HTTP2.o      idata   0x00046c       data   0x000000
           .idata_errno.o      idata   0x00046c       data   0x000000
 .idata_WriteBlockFlash.o      idata   0x00046c       data   0x000000
        .udata_UnpkMath.o      udata   0x00046c       data   0x000000
           .idata_c018i.o      idata   0x00046c       data   0x000000
      .udata__user_putc.o      udata   0x00046c       data   0x000000
       .idata_ReadFlash.o      idata   0x00046c       data   0x000000
        .idata_UnpkMath.o      idata   0x00046c       data   0x000000
      .idata__user_putc.o      idata   0x00046c       data   0x000000
         ARP.o:ARPResolve     actrec   0x000b00       data   0x00001c
     Tick.o:TickGetDiv64K     actrec   0x000b00       data   0x000004
    VLSICodec.o:VLSI_Init     actrec   0x000b00       data   0x000006
          DHCP.o:DHCPInit     actrec   0x000b00       data   0x000001
      DHCP.o:_DHCPReceive     actrec   0x000b00       data   0x000009
  TCP.o:TCPAdjustFIFOSize     actrec   0x000b00       data   0x000006
VLSICodec.o:VLSI_SetBassBoost     actrec   0x000b00       data   0x000001
            UDP.o:UDPInit     actrec   0x000b00       data   0x000001
         ARP.o:ARPProcess     actrec   0x000b00       data   0x00001c
           UDP.o:UDPFlush     actrec   0x000b00       data   0x00001c
         UDP.o:UDPProcess     actrec   0x000b00       data   0x000019
MP3Client.o:MP3ClientTask     actrec   0x000b00       data   0x000006
SPIRAM2.o:SPIRAM2PutROMArray     actrec   0x000b00       data   0x000002
GenericTCPClient.o:GenericTCPClient     actrec   0x000b00       data   0x00002c
WriteBlockFlash.o:WriteBlockFlash     actrec   0x000b00       data   0x000006
    SPIRAM2.o:SPIRAM2Init     actrec   0x000b00       data   0x000002
    ETH97J60.o:ReadPHYReg     actrec   0x000b00       data   0x000002
SPIRAM.o:SPIRAMPutROMArray     actrec   0x000b00       data   0x000003
   ETH97J60.o:WritePHYReg     actrec   0x000b00       data   0x000001
      SPIRAM.o:SPIRAMInit     actrec   0x000b00       data   0x000003
         IP.o:IPGetHeader     actrec   0x000b00       data   0x000016
  ETH97J60.o:MACGetHeader     actrec   0x000b00       data   0x000014
 Helpers.o:stricmppgm2ram     actrec   0x000b00       data   0x000002
             TCP.o:TCPPut     actrec   0x000b00       data   0x000002
Helpers.o:GenerateRandomDWORD     actrec   0x000b00       data   0x000014
Helpers.o:StringToIPAddress     actrec   0x000b00       data   0x000007
   TCP.o:TCPGetTxFIFOFull     actrec   0x000b00       data   0x000004
             TCP.o:TCPGet     actrec   0x000b00       data   0x000002
   TCP.o:TCPGetRxFIFOFree     actrec   0x000b00       data   0x000004
       TCP.o:TCPPeekArray     actrec   0x000b00       data   0x000006
Helpers.o:ROMStringToIPAddress     actrec   0x000b00       data   0x000007
     DNS.o:DNSDiscardName     actrec   0x000b00       data   0x000001
       ICMP.o:ICMPProcess     actrec   0x000b00       data   0x000004
    DNS.o:DNSPutROMString     actrec   0x000b00       data   0x000005
Helpers.o:leftRotateDWORD     actrec   0x000b00       data   0x000002
       DNS.o:DNSPutString     actrec   0x000b00       data   0x000004
         TCP.o:TCPProcess     actrec   0x000b00       data   0x000025
Helpers.o:FormatNetBIOSName     actrec   0x000b00       data   0x000001
        Helpers.o:strnchr     actrec   0x000b00       data   0x000001
          Helpers.o:uitoa     actrec   0x000b00       data   0x000006
       ETH97J60.o:MACInit     actrec   0x000b01       data   0x000001
MainDemo.o:InitializeBoard     actrec   0x000b03       data   0x000001
        UDP.o:UDPPutArray     actrec   0x000b04       data   0x000002
     UDP.o:UDPPutROMArray     actrec   0x000b05       data   0x000002
SPIRAM2.o:SPIRAM2PutArray     actrec   0x000b06       data   0x000002
          UDP.o:UDPOpenEx     actrec   0x000b06       data   0x000003
            TCP.o:TCPPeek     actrec   0x000b06       data   0x000001
  VLSICodec.o:VLSIReadReg     actrec   0x000b06       data   0x000002
        UDP.o:UDPGetArray     actrec   0x000b09       data   0x000002
            TCP.o:TCPInit     actrec   0x000b14       data   0x00000d
ETH97J60.o:MACCalcRxChecksum     actrec   0x000b16       data   0x000004
 UDP.o:FindMatchingSocket     actrec   0x000b19       data   0x000004
         DHCP.o:_DHCPSend     actrec   0x000b1c       data   0x000005
      DNS.o:DNSIsResolved     actrec   0x000b1c       data   0x000019
   Helpers.o:LFSRSeedRand     actrec   0x000b21       data   0x000005
          DHCP.o:DHCPTask     actrec   0x000b21       data   0x000001
TCP.o:GetMaxSegSizeOption     actrec   0x000b25       data   0x000004
 TCP.o:FindMatchingSocket     actrec   0x000b25       data   0x000006
  EraseFlash.o:EraseFlash     actrec   0x000b2c       data   0x000005
      TCP.o:TCPIsPutReady     actrec   0x000b2c       data   0x000001
    ReadFlash.o:ReadFlash     actrec   0x000b2c       data   0x000004
       Helpers.o:LFSRRand     actrec   0x000b2c       data   0x000001
WriteBytesFlash.o:WriteBytesFlash     actrec   0x000b2c       data   0x000006
     Tick.o:TickGetDiv256     actrec   0x000b2c       data   0x000004
      TCP.o:TCPRAMCopyROM     actrec   0x000b2c       data   0x000012
            TCP.o:SendTCP     actrec   0x000b2c       data   0x000028
        TCP.o:TCPGetArray     actrec   0x000b30       data   0x000004
            UDP.o:UDPTask     actrec   0x000b35       data   0x000005
ETH97J60.o:MACSetReadPtrInRx     actrec   0x000b3a       data   0x000002
  ETH97J60.o:MACDiscardRx     actrec   0x000b3a       data   0x000002
       TCP.o:HandleTCPSeg     actrec   0x000b54       data   0x00001c
            TCP.o:TCPTick     actrec   0x000b54       data   0x00000a
Command_Execution.o:Command_Execution_PRESENTACION     actrec   0x000b54       data   0x00001a
Command_Execution.o:Command_Execution_ALS_PERSONA_ATRAPADA     actrec   0x000b54       data   0x000021
Command_Execution.o:Command_Execution_PLAY     actrec   0x000b54       data   0x00000a
Command_Execution.o:Command_Execution_STOP     actrec   0x000b54       data   0x00000a
Command_Execution.o:Command_Execution_VOL     actrec   0x000b54       data   0x00000d
Command_Execution.o:Command_Execution_NOT_FOUND     actrec   0x000b54       data   0x000011
     TCP.o:TCPPutROMArray     actrec   0x000b54       data   0x000006
            TCP.o:TCPOpen     actrec   0x000b54       data   0x000001
ETH97J60.o:CalcIPBufferChecksum     actrec   0x000b75       data   0x00001e
         IP.o:IPPutHeader     actrec   0x000b75       data   0x000014
      ETH97J60.o:MACFlush     actrec   0x000b75       data   0x000001
ETH97J60.o:MACGetFreeRxSize     actrec   0x000b75       data   0x000004
         TCP.o:TCPRAMCopy     actrec   0x000b75       data   0x000012
ETH97J60.o:MACSetWritePtr     actrec   0x000b87       data   0x000002
 ETH97J60.o:MACSetReadPtr     actrec   0x000b87       data   0x000002
ETH97J60.o:MACMemCopyAsync     actrec   0x000b87       data   0x000006
  SPIRAM.o:SPIRAMPutArray     actrec   0x000b87       data   0x000003
  SPIRAM.o:SPIRAMGetArray     actrec   0x000b87       data   0x000003
          Helpers.o:swaps     actrec   0x000b89       data   0x000003
 Helpers.o:CalcIPChecksum     actrec   0x000b89       data   0x000008
        TCP.o:TCPPutArray     actrec   0x000b93       data   0x000006
     StackTsk.o:StackTask     actrec   0x000b93       data   0x000009
          MainDemo.o:main     actrec   0x000b9c       data   0x000008
   ETH97J60.o:MACGetArray     actrec   0x000ba4       data   0x000003
SPIRAM2.o:SPIRAM2GetArray     actrec   0x000ba7       data   0x000002
  TCP.o:TCPFindROMArrayEx     actrec   0x000c00       data   0x000031
     TCP.o:TCPFindArrayEx     actrec   0x000c00       data   0x000030
Command_Parser.o:Command_Parser_Restore_Saved_State     actrec   0x000c00       data   0x000061
Command_Execution.o:Command_Execution_PWM     actrec   0x000c61       data   0x00004d
Command_Execution.o:Command_Execution_ALS     actrec   0x000c61       data   0x00004b
Command_Parser.o:Command_Parser_Parser_Command     actrec   0x000cae       data   0x00003e
                   .stack      udata   0x000d00       data   0x000100
       SYN_QUEUE_RAM_SECT      udata   0x000e00       data   0x00003c
         .udata_Helpers.o      udata   0x000e3c       data   0x000034
       .idata_MP3Client.o      idata   0x000e70       data   0x000010
              SFR_BANKED0      udata   0x000e80       data   0x000006
              SFR_BANKED1      udata   0x000e8a       data   0x000001
              SFR_BANKED2      udata   0x000e97       data   0x000003
              SFR_BANKED3      udata   0x000ea0       data   0x000001
              SFR_BANKED4      udata   0x000ea2       data   0x000003
              SFR_BANKED5      udata   0x000ea6       data   0x000002
              SFR_BANKED6      udata   0x000eaa       data   0x000002
              SFR_BANKED7      udata   0x000eb2       data   0x000001
              SFR_BANKED8      udata   0x000eb4       data   0x000001
              SFR_BANKED9      udata   0x000eb6       data   0x000004
             SFR_BANKED10      udata   0x000ec0       data   0x000012
             SFR_BANKED11      udata   0x000ed4       data   0x000002
             SFR_BANKED12      udata   0x000ed8       data   0x000002
             SFR_BANKED13      udata   0x000ee2       data   0x000016
             SFR_BANKED14      udata   0x000efb       data   0x000001
             SFR_BANKED15      udata   0x000efd       data   0x000002
.idata_GenericTCPClient.o      idata   0x000f00       data   0x00004f
        .idata_MainDemo.o      idata   0x000f4f       data   0x00000e
             .idata_DNS.o      idata   0x000f5d       data   0x000003
            SFR_UNBANKED0      udata   0x000f60       data   0x0000a0



                              Program Memory Usage 
                               Start         End      
                           ---------   ---------      
                            0x000000    0x00dff3      
                            0x01fff8    0x01fff8      
                            0x01fffa    0x01fffa      
                            0x01fffd    0x01fffd      
            57335 out of 131072 program addresses used, program memory utilization is 43%



                              Symbols - Sorted by Name
                     Name    Address   Location    Storage File                     
                ---------  ---------  ---------  --------- ---------                
                  ARPInit   0x00b72a    program     extern C:\Users\FERNANDO\Documents\firmware-apb-0100\TCPIP_Stack\ARP.c
            ARPIsResolved   0x00b916    program     extern C:\Users\FERNANDO\Documents\firmware-apb-0100\TCPIP_Stack\ARP.c
               ARPProcess   0x00b742    program     extern C:\Users\FERNANDO\Documents\firmware-apb-0100\TCPIP_Stack\ARP.c
                   ARPPut   0x00b61a    program     static C:\Users\FERNANDO\Documents\firmware-apb-0100\TCPIP_Stack\ARP.c
               ARPResolve   0x00b88e    program     extern C:\Users\FERNANDO\Documents\firmware-apb-0100\TCPIP_Stack\ARP.c
     CalcIPBufferChecksum   0x009d64    program     extern C:\Users\FERNANDO\Documents\firmware-apb-0100\TCPIP_Stack\ETH97J60.c
           CalcIPChecksum   0x00966a    program     extern C:\Users\FERNANDO\Documents\firmware-apb-0100\TCPIP_Stack\Helpers.c
              CloseSocket   0x002fa6    program     static C:\Users\FERNANDO\Documents\firmware-apb-0100\TCPIP_Stack\TCP.c
    Command_Execution_ALS   0x0049d4    program     extern C:\Users\FERNANDO\Documents\firmware-apb-0100\Command_Execution.c
Command_Execution_ALS_DIA   0x004854    program     extern C:\Users\FERNANDO\Documents\firmware-apb-0100\Command_Execution.c
Command_Execution_ALS_NOCHE   0x004914    program     extern C:\Users\FERNANDO\Documents\firmware-apb-0100\Command_Execution.c
Command_Execution_ALS_PERSONA_ATRAPADA   0x005792    program     extern C:\Users\FERNANDO\Documents\firmware-apb-0100\Command_Execution.c
Command_Execution_ALS_REPOSO   0x004794    program     extern C:\Users\FERNANDO\Documents\firmware-apb-0100\Command_Execution.c
Command_Execution_NOT_FOUND   0x005d22    program     extern C:\Users\FERNANDO\Documents\firmware-apb-0100\Command_Execution.c
   Command_Execution_PLAY   0x0059ce    program     extern C:\Users\FERNANDO\Documents\firmware-apb-0100\Command_Execution.c
Command_Execution_PRESENTACION   0x00572a    program     extern C:\Users\FERNANDO\Documents\firmware-apb-0100\Command_Execution.c
    Command_Execution_PWM   0x004fce    program     extern C:\Users\FERNANDO\Documents\firmware-apb-0100\Command_Execution.c
   Command_Execution_STOP   0x005a46    program     extern C:\Users\FERNANDO\Documents\firmware-apb-0100\Command_Execution.c
    Command_Execution_VOL   0x005aac    program     extern C:\Users\FERNANDO\Documents\firmware-apb-0100\Command_Execution.c
Command_Parser_Parser_Command   0x00af42    program     extern C:\Users\FERNANDO\Documents\firmware-apb-0100\Command_Parser.c
Command_Parser_Restore_Saved_State   0x00acc8    program     extern C:\Users\FERNANDO\Documents\firmware-apb-0100\Command_Parser.c
                    D10_1   0x00df28    program     static E:\3.46\pic18-lt\cxx-framework\src\traditional\delays\d10tcyx.asm
                     D10x   0x00df20    program     static E:\3.46\pic18-lt\cxx-framework\src\traditional\delays\d10tcyx.asm
                    D1K_1   0x00decc    program     static E:\3.46\pic18-lt\cxx-framework\src\traditional\delays\d1ktcyx.asm
                     D1Kx   0x00deca    program     static E:\3.46\pic18-lt\cxx-framework\src\traditional\delays\d1ktcyx.asm
              DHCPDisable   0x00792e    program     extern C:\Users\FERNANDO\Documents\firmware-apb-0100\TCPIP_Stack\DHCP.c
               DHCPEnable   0x007946    program     extern C:\Users\FERNANDO\Documents\firmware-apb-0100\TCPIP_Stack\DHCP.c
                 DHCPInit   0x0078f0    program     extern C:\Users\FERNANDO\Documents\firmware-apb-0100\TCPIP_Stack\DHCP.c
              DHCPIsBound   0x007964    program     extern C:\Users\FERNANDO\Documents\firmware-apb-0100\TCPIP_Stack\DHCP.c
            DHCPIsEnabled   0x007954    program     extern C:\Users\FERNANDO\Documents\firmware-apb-0100\TCPIP_Stack\DHCP.c
     DHCPIsServerDetected   0x007980    program     extern C:\Users\FERNANDO\Documents\firmware-apb-0100\TCPIP_Stack\DHCP.c
         DHCPStateChanged   0x00796e    program     extern C:\Users\FERNANDO\Documents\firmware-apb-0100\TCPIP_Stack\DHCP.c
                 DHCPTask   0x00798e    program     extern C:\Users\FERNANDO\Documents\firmware-apb-0100\TCPIP_Stack\DHCP.c
            DNSBeginUsage   0x00847e    program     extern C:\Users\FERNANDO\Documents\firmware-apb-0100\TCPIP_Stack\DNS.c
           DNSDiscardName   0x008e5c    program     static C:\Users\FERNANDO\Documents\firmware-apb-0100\TCPIP_Stack\DNS.c
              DNSEndUsage   0x008490    program     extern C:\Users\FERNANDO\Documents\firmware-apb-0100\TCPIP_Stack\DNS.c
            DNSIsResolved   0x00853c    program     extern C:\Users\FERNANDO\Documents\firmware-apb-0100\TCPIP_Stack\DNS.c
          DNSPutROMString   0x008d8c    program     static C:\Users\FERNANDO\Documents\firmware-apb-0100\TCPIP_Stack\DNS.c
             DNSPutString   0x008cdc    program     static C:\Users\FERNANDO\Documents\firmware-apb-0100\TCPIP_Stack\DNS.c
               DNSResolve   0x0084b6    program     extern C:\Users\FERNANDO\Documents\firmware-apb-0100\TCPIP_Stack\DNS.c
            DNSResolveROM   0x0084f6    program     extern C:\Users\FERNANDO\Documents\firmware-apb-0100\TCPIP_Stack\DNS.c
              Delay10TCYx   0x00df18    program     extern E:\3.46\pic18-lt\cxx-framework\src\traditional\delays\d10tcyx.asm
              Delay1KTCYx   0x00dec0    program     extern E:\3.46\pic18-lt\cxx-framework\src\traditional\delays\d1ktcyx.asm
         Display_Dotacion   0x00d15e    program     extern C:\Users\FERNANDO\Documents\firmware-apb-0100\Dotacion_Movil.c
            Display_Movil   0x00d23e    program     extern C:\Users\FERNANDO\Documents\firmware-apb-0100\Dotacion_Movil.c
               EraseFlash   0x00dcf8    program     extern C:\Users\FERNANDO\Documents\firmware-apb-0100\Flash\EraseFlash.c
                 FLO0832S   0x00a19a    program     extern E:\3.46\pic18-lt\cxx-framework\src\traditional\math\cast08FP.asm
                 FLO0832U   0x00a196    program     extern E:\3.46\pic18-lt\cxx-framework\src\traditional\math\cast08FP.asm
                 FLO1632S   0x00a692    program     extern E:\3.46\pic18-lt\cxx-framework\src\traditional\math\cast16FP.asm
                 FLO1632U   0x00a68e    program     extern E:\3.46\pic18-lt\cxx-framework\src\traditional\math\cast16FP.asm
                    FPA32   0x00a33a    program     extern E:\3.46\pic18-lt\cxx-framework\src\traditional\math\addFP.asm
                    FPD32   0x00a1b8    program     extern E:\3.46\pic18-lt\cxx-framework\src\traditional\math\divFP.asm
                    FPM32   0x00a25e    program     extern E:\3.46\pic18-lt\cxx-framework\src\traditional\math\mulFP.asm
                    FPS32   0x00a338    program     extern E:\3.46\pic18-lt\cxx-framework\src\traditional\math\addFP.asm
                 FXD1616U   0x00de44    program     extern E:\3.46\pic18-lt\cxx-framework\src\traditional\math\fxd1616u.c
                 FXD3232U   0x00ddfc    program     extern E:\3.46\pic18-lt\cxx-framework\src\traditional\math\fxd3232u.c
                 FXM1616S   0x00a774    program     extern E:\3.46\pic18-lt\cxx-framework\src\traditional\math\fxm1616s.asm
                 FXM1616U   0x00a466    program     extern E:\3.46\pic18-lt\cxx-framework\src\traditional\math\fxm1616u.asm
                 FXM2424U   0x00a4a2    program     extern E:\3.46\pic18-lt\cxx-framework\src\traditional\math\fxm2424u.asm
                  FXM3232   0x00dc88    program     extern E:\3.46\pic18-lt\cxx-framework\src\traditional\math\fxm3232.c
       FindMatchingSocket   0x00289c    program     static C:\Users\FERNANDO\Documents\firmware-apb-0100\TCPIP_Stack\TCP.c
       FindMatchingSocket   0x006b56    program     static C:\Users\FERNANDO\Documents\firmware-apb-0100\TCPIP_Stack\UDP.c
        FormatNetBIOSName   0x0097ac    program     extern C:\Users\FERNANDO\Documents\firmware-apb-0100\TCPIP_Stack\Helpers.c
      GenerateRandomDWORD   0x008f88    program     extern C:\Users\FERNANDO\Documents\firmware-apb-0100\TCPIP_Stack\Helpers.c
         GenericTCPClient   0x00be22    program     extern C:\Users\FERNANDO\Documents\firmware-apb-0100\GenericTCPClient.c
      GetMaxSegSizeOption   0x003030    program     static C:\Users\FERNANDO\Documents\firmware-apb-0100\TCPIP_Stack\TCP.c
              GetTickCopy   0x00d7ac    program     static C:\Users\FERNANDO\Documents\firmware-apb-0100\TCPIP_Stack\Tick.c
             HandleTCPSeg   0x003138    program     static C:\Users\FERNANDO\Documents\firmware-apb-0100\TCPIP_Stack\TCP.c
                  HighISR   0x00c27c    program     extern C:\Users\FERNANDO\Documents\firmware-apb-0100\MainDemo.c
               HighVector   0x000008    program     extern C:\Users\FERNANDO\Documents\firmware-apb-0100\MainDemo.c
              ICMPProcess   0x00d94e    program     extern C:\Users\FERNANDO\Documents\firmware-apb-0100\TCPIP_Stack\ICMP.c
                  INT3208   0x00a534    program     extern E:\3.46\pic18-lt\cxx-framework\src\traditional\math\castFP08.asm
              IPGetHeader   0x00c4a8    program     extern C:\Users\FERNANDO\Documents\firmware-apb-0100\TCPIP_Stack\IP.c
              IPPutHeader   0x00c59c    program     extern C:\Users\FERNANDO\Documents\firmware-apb-0100\TCPIP_Stack\IP.c
            IPSetRxBuffer   0x00c684    program     extern C:\Users\FERNANDO\Documents\firmware-apb-0100\TCPIP_Stack\IP.c
          InitializeBoard   0x00c464    program     static C:\Users\FERNANDO\Documents\firmware-apb-0100\MainDemo.c
                 LFSRRand   0x008f02    program     extern C:\Users\FERNANDO\Documents\firmware-apb-0100\TCPIP_Stack\Helpers.c
             LFSRSeedRand   0x008ea6    program     extern C:\Users\FERNANDO\Documents\firmware-apb-0100\TCPIP_Stack\Helpers.c
        Leds_Pwm_Init_PWM   0x00b398    program     extern C:\Users\FERNANDO\Documents\firmware-apb-0100\Leds_Pwm.c
             Leds_Pwm_Off   0x00b5a4    program     extern C:\Users\FERNANDO\Documents\firmware-apb-0100\Leds_Pwm.c
              Leds_Pwm_On   0x00b52e    program     extern C:\Users\FERNANDO\Documents\firmware-apb-0100\Leds_Pwm.c
    Leds_Pwm_Set_Duty_PWM   0x00b402    program     extern C:\Users\FERNANDO\Documents\firmware-apb-0100\Leds_Pwm.c
                   LowISR   0x00c1c2    program     extern C:\Users\FERNANDO\Documents\firmware-apb-0100\MainDemo.c
                LowVector   0x000018    program     extern C:\Users\FERNANDO\Documents\firmware-apb-0100\MainDemo.c
        MACCalcRxChecksum   0x009ce6    program     extern C:\Users\FERNANDO\Documents\firmware-apb-0100\TCPIP_Stack\ETH97J60.c
             MACDiscardRx   0x0099b2    program     extern C:\Users\FERNANDO\Documents\firmware-apb-0100\TCPIP_Stack\ETH97J60.c
                 MACFlush   0x009c36    program     extern C:\Users\FERNANDO\Documents\firmware-apb-0100\TCPIP_Stack\ETH97J60.c
                   MACGet   0x00a032    program     extern C:\Users\FERNANDO\Documents\firmware-apb-0100\TCPIP_Stack\ETH97J60.c
              MACGetArray   0x00a038    program     extern C:\Users\FERNANDO\Documents\firmware-apb-0100\TCPIP_Stack\ETH97J60.c
         MACGetFreeRxSize   0x009a1e    program     extern C:\Users\FERNANDO\Documents\firmware-apb-0100\TCPIP_Stack\ETH97J60.c
             MACGetHeader   0x009abe    program     extern C:\Users\FERNANDO\Documents\firmware-apb-0100\TCPIP_Stack\ETH97J60.c
                  MACInit   0x00986a    program     extern C:\Users\FERNANDO\Documents\firmware-apb-0100\TCPIP_Stack\ETH97J60.c
              MACIsLinked   0x00995a    program     extern C:\Users\FERNANDO\Documents\firmware-apb-0100\TCPIP_Stack\ETH97J60.c
         MACIsMemCopyDone   0x00a024    program     extern C:\Users\FERNANDO\Documents\firmware-apb-0100\TCPIP_Stack\ETH97J60.c
             MACIsTxReady   0x009978    program     extern C:\Users\FERNANDO\Documents\firmware-apb-0100\TCPIP_Stack\ETH97J60.c
          MACMemCopyAsync   0x009e7c    program     extern C:\Users\FERNANDO\Documents\firmware-apb-0100\TCPIP_Stack\ETH97J60.c
             MACPowerDown   0x00a176    program     extern C:\Users\FERNANDO\Documents\firmware-apb-0100\TCPIP_Stack\ETH97J60.c
               MACPowerUp   0x00a188    program     extern C:\Users\FERNANDO\Documents\firmware-apb-0100\TCPIP_Stack\ETH97J60.c
                   MACPut   0x00a09e    program     extern C:\Users\FERNANDO\Documents\firmware-apb-0100\TCPIP_Stack\ETH97J60.c
              MACPutArray   0x00a0a8    program     extern C:\Users\FERNANDO\Documents\firmware-apb-0100\TCPIP_Stack\ETH97J60.c
             MACPutHeader   0x009bd8    program     extern C:\Users\FERNANDO\Documents\firmware-apb-0100\TCPIP_Stack\ETH97J60.c
           MACPutROMArray   0x00a0da    program     extern C:\Users\FERNANDO\Documents\firmware-apb-0100\TCPIP_Stack\ETH97J60.c
            MACSetReadPtr   0x009cca    program     extern C:\Users\FERNANDO\Documents\firmware-apb-0100\TCPIP_Stack\ETH97J60.c
        MACSetReadPtrInRx   0x009c5c    program     extern C:\Users\FERNANDO\Documents\firmware-apb-0100\TCPIP_Stack\ETH97J60.c
           MACSetWritePtr   0x009cae    program     extern C:\Users\FERNANDO\Documents\firmware-apb-0100\TCPIP_Stack\ETH97J60.c
            MP3ClientInit   0x00ba60    program     extern C:\Users\FERNANDO\Documents\firmware-apb-0100\MP3Client.c
            MP3ClientTask   0x00ba74    program     extern C:\Users\FERNANDO\Documents\firmware-apb-0100\MP3Client.c
          MP3CloseStation   0x00bcf4    program     extern C:\Users\FERNANDO\Documents\firmware-apb-0100\MP3Client.c
       MP3Timer3Interrupt   0x00bd0e    program     extern C:\Users\FERNANDO\Documents\firmware-apb-0100\MP3Client.c
     ROMStringToIPAddress   0x00927c    program     extern C:\Users\FERNANDO\Documents\firmware-apb-0100\TCPIP_Stack\Helpers.c
                ReadFlash   0x00ddb0    program     extern C:\Users\FERNANDO\Documents\firmware-apb-0100\Flash\ReadFlash.c
               ReadPHYReg   0x00a116    program     extern C:\Users\FERNANDO\Documents\firmware-apb-0100\TCPIP_Stack\ETH97J60.c
          SPIRAM2GetArray   0x00ce0e    program     extern C:\Users\FERNANDO\Documents\firmware-apb-0100\SPIRAM2.c
              SPIRAM2Init   0x00cdce    program     extern C:\Users\FERNANDO\Documents\firmware-apb-0100\SPIRAM2.c
          SPIRAM2PutArray   0x00ce92    program     extern C:\Users\FERNANDO\Documents\firmware-apb-0100\SPIRAM2.c
       SPIRAM2PutROMArray   0x00cf16    program     extern C:\Users\FERNANDO\Documents\firmware-apb-0100\SPIRAM2.c
           SPIRAMGetArray   0x00c7a2    program     extern C:\Users\FERNANDO\Documents\firmware-apb-0100\TCPIP_Stack\SPIRAM.c
               SPIRAMInit   0x00c746    program     extern C:\Users\FERNANDO\Documents\firmware-apb-0100\TCPIP_Stack\SPIRAM.c
           SPIRAMPutArray   0x00c844    program     extern C:\Users\FERNANDO\Documents\firmware-apb-0100\TCPIP_Stack\SPIRAM.c
        SPIRAMPutROMArray   0x00c8e6    program     extern C:\Users\FERNANDO\Documents\firmware-apb-0100\TCPIP_Stack\SPIRAM.c
                  SendTCP   0x0022f4    program     static C:\Users\FERNANDO\Documents\firmware-apb-0100\TCPIP_Stack\TCP.c
             Set_Duty_RC1   0x00b1e0    program     extern C:\Users\FERNANDO\Documents\firmware-apb-0100\Leds_Pwm.c
             Set_Duty_RC2   0x00b172    program     extern C:\Users\FERNANDO\Documents\firmware-apb-0100\Leds_Pwm.c
             Set_Duty_RG0   0x00b32a    program     extern C:\Users\FERNANDO\Documents\firmware-apb-0100\Leds_Pwm.c
             Set_Duty_RG3   0x00b24e    program     extern C:\Users\FERNANDO\Documents\firmware-apb-0100\Leds_Pwm.c
             Set_Duty_RG4   0x00b2bc    program     extern C:\Users\FERNANDO\Documents\firmware-apb-0100\Leds_Pwm.c
        StackApplications   0x00cbc4    program     extern C:\Users\FERNANDO\Documents\firmware-apb-0100\TCPIP_Stack\StackTsk.c
                StackInit   0x00c992    program     extern C:\Users\FERNANDO\Documents\firmware-apb-0100\TCPIP_Stack\StackTsk.c
                StackTask   0x00c9da    program     extern C:\Users\FERNANDO\Documents\firmware-apb-0100\TCPIP_Stack\StackTsk.c
        StringToIPAddress   0x0090cc    program     extern C:\Users\FERNANDO\Documents\firmware-apb-0100\TCPIP_Stack\Helpers.c
            SwapARPPacket   0x00b9c2    program     extern C:\Users\FERNANDO\Documents\firmware-apb-0100\TCPIP_Stack\ARP.c
             SwapIPHeader   0x00c69c    program     static C:\Users\FERNANDO\Documents\firmware-apb-0100\TCPIP_Stack\IP.c
            SwapTCPHeader   0x002df0    program     static C:\Users\FERNANDO\Documents\firmware-apb-0100\TCPIP_Stack\TCP.c
                  SyncTCB   0x000156    program     static C:\Users\FERNANDO\Documents\firmware-apb-0100\TCPIP_Stack\TCP.c
              SyncTCBStub   0x0000c8    program     static C:\Users\FERNANDO\Documents\firmware-apb-0100\TCPIP_Stack\TCP.c
                  TAGTB32   0x00a6b8    program     extern E:\3.46\pic18-lt\cxx-framework\src\traditional\math\gtFP.asm
        TCPAdjustFIFOSize   0x0040bc    program     extern C:\Users\FERNANDO\Documents\firmware-apb-0100\TCPIP_Stack\TCP.c
                 TCPClose   0x0007c2    program     extern C:\Users\FERNANDO\Documents\firmware-apb-0100\TCPIP_Stack\TCP.c
               TCPDiscard   0x000db2    program     extern C:\Users\FERNANDO\Documents\firmware-apb-0100\TCPIP_Stack\TCP.c
            TCPDisconnect   0x0006fa    program     extern C:\Users\FERNANDO\Documents\firmware-apb-0100\TCPIP_Stack\TCP.c
           TCPFindArrayEx   0x001230    program     extern C:\Users\FERNANDO\Documents\firmware-apb-0100\TCPIP_Stack\TCP.c
                TCPFindEx   0x00194c    program     extern C:\Users\FERNANDO\Documents\firmware-apb-0100\TCPIP_Stack\TCP.c
        TCPFindROMArrayEx   0x0015a4    program     extern C:\Users\FERNANDO\Documents\firmware-apb-0100\TCPIP_Stack\TCP.c
                 TCPFlush   0x00081a    program     extern C:\Users\FERNANDO\Documents\firmware-apb-0100\TCPIP_Stack\TCP.c
                   TCPGet   0x000e4c    program     extern C:\Users\FERNANDO\Documents\firmware-apb-0100\TCPIP_Stack\TCP.c
              TCPGetArray   0x000ef8    program     extern C:\Users\FERNANDO\Documents\firmware-apb-0100\TCPIP_Stack\TCP.c
         TCPGetRemoteInfo   0x0007d4    program     extern C:\Users\FERNANDO\Documents\firmware-apb-0100\TCPIP_Stack\TCP.c
         TCPGetRxFIFOFree   0x00105e    program     extern C:\Users\FERNANDO\Documents\firmware-apb-0100\TCPIP_Stack\TCP.c
         TCPGetTxFIFOFull   0x000d66    program     extern C:\Users\FERNANDO\Documents\firmware-apb-0100\TCPIP_Stack\TCP.c
                  TCPInit   0x000200    program     extern C:\Users\FERNANDO\Documents\firmware-apb-0100\TCPIP_Stack\TCP.c
           TCPIsConnected   0x0006e2    program     extern C:\Users\FERNANDO\Documents\firmware-apb-0100\TCPIP_Stack\TCP.c
            TCPIsGetReady   0x000de8    program     extern C:\Users\FERNANDO\Documents\firmware-apb-0100\TCPIP_Stack\TCP.c
            TCPIsPutReady   0x000842    program     extern C:\Users\FERNANDO\Documents\firmware-apb-0100\TCPIP_Stack\TCP.c
                  TCPOpen   0x00051a    program     extern C:\Users\FERNANDO\Documents\firmware-apb-0100\TCPIP_Stack\TCP.c
                  TCPPeek   0x001208    program     extern C:\Users\FERNANDO\Documents\firmware-apb-0100\TCPIP_Stack\TCP.c
             TCPPeekArray   0x0010a2    program     extern C:\Users\FERNANDO\Documents\firmware-apb-0100\TCPIP_Stack\TCP.c
               TCPProcess   0x0021ae    program     extern C:\Users\FERNANDO\Documents\firmware-apb-0100\TCPIP_Stack\TCP.c
                   TCPPut   0x0008c0    program     extern C:\Users\FERNANDO\Documents\firmware-apb-0100\TCPIP_Stack\TCP.c
              TCPPutArray   0x0009aa    program     extern C:\Users\FERNANDO\Documents\firmware-apb-0100\TCPIP_Stack\TCP.c
           TCPPutROMArray   0x000b36    program     extern C:\Users\FERNANDO\Documents\firmware-apb-0100\TCPIP_Stack\TCP.c
          TCPPutROMString   0x000d08    program     extern C:\Users\FERNANDO\Documents\firmware-apb-0100\TCPIP_Stack\TCP.c
             TCPPutString   0x000cc8    program     extern C:\Users\FERNANDO\Documents\firmware-apb-0100\TCPIP_Stack\TCP.c
               TCPRAMCopy   0x004314    program     static C:\Users\FERNANDO\Documents\firmware-apb-0100\TCPIP_Stack\TCP.c
            TCPRAMCopyROM   0x004604    program     static C:\Users\FERNANDO\Documents\firmware-apb-0100\TCPIP_Stack\TCP.c
     TCPSocketInitializer   0x00000e    program     extern C:\Users\FERNANDO\Documents\firmware-apb-0100\TCPIPConfig.h
                  TCPTick   0x00197c    program     extern C:\Users\FERNANDO\Documents\firmware-apb-0100\TCPIP_Stack\TCP.c
              TCPWasReset   0x0006ca    program     extern C:\Users\FERNANDO\Documents\firmware-apb-0100\TCPIP_Stack\TCP.c
               TSIGN1616A   0x00a7c0    program     static E:\3.46\pic18-lt\cxx-framework\src\traditional\math\fxm1616s.asm
TickConvertToMilliseconds   0x00d834    program     extern C:\Users\FERNANDO\Documents\firmware-apb-0100\TCPIP_Stack\Tick.c
                  TickGet   0x00d7d2    program     extern C:\Users\FERNANDO\Documents\firmware-apb-0100\TCPIP_Stack\Tick.c
            TickGetDiv256   0x00d7e8    program     extern C:\Users\FERNANDO\Documents\firmware-apb-0100\TCPIP_Stack\Tick.c
            TickGetDiv64K   0x00d80e    program     extern C:\Users\FERNANDO\Documents\firmware-apb-0100\TCPIP_Stack\Tick.c
                 TickInit   0x00d79c    program     extern C:\Users\FERNANDO\Documents\firmware-apb-0100\TCPIP_Stack\Tick.c
               TickUpdate   0x00d862    program     extern C:\Users\FERNANDO\Documents\firmware-apb-0100\TCPIP_Stack\Tick.c
                 UDPClose   0x0063fc    program     extern C:\Users\FERNANDO\Documents\firmware-apb-0100\TCPIP_Stack\UDP.c
               UDPDiscard   0x0069e2    program     extern C:\Users\FERNANDO\Documents\firmware-apb-0100\TCPIP_Stack\UDP.c
                 UDPFlush   0x00673e    program     extern C:\Users\FERNANDO\Documents\firmware-apb-0100\TCPIP_Stack\UDP.c
                   UDPGet   0x006934    program     extern C:\Users\FERNANDO\Documents\firmware-apb-0100\TCPIP_Stack\UDP.c
              UDPGetArray   0x006968    program     extern C:\Users\FERNANDO\Documents\firmware-apb-0100\TCPIP_Stack\UDP.c
                  UDPInit   0x005d94    program     extern C:\Users\FERNANDO\Documents\firmware-apb-0100\TCPIP_Stack\UDP.c
            UDPIsGetReady   0x0068f6    program     extern C:\Users\FERNANDO\Documents\firmware-apb-0100\TCPIP_Stack\UDP.c
              UDPIsOpened   0x0063ce    program     extern C:\Users\FERNANDO\Documents\firmware-apb-0100\TCPIP_Stack\UDP.c
            UDPIsPutReady   0x0064d4    program     extern C:\Users\FERNANDO\Documents\firmware-apb-0100\TCPIP_Stack\UDP.c
                UDPOpenEx   0x005db0    program     extern C:\Users\FERNANDO\Documents\firmware-apb-0100\TCPIP_Stack\UDP.c
               UDPProcess   0x0069fc    program     extern C:\Users\FERNANDO\Documents\firmware-apb-0100\TCPIP_Stack\UDP.c
                   UDPPut   0x00653e    program     extern C:\Users\FERNANDO\Documents\firmware-apb-0100\TCPIP_Stack\UDP.c
              UDPPutArray   0x006588    program     extern C:\Users\FERNANDO\Documents\firmware-apb-0100\TCPIP_Stack\UDP.c
           UDPPutROMArray   0x006616    program     extern C:\Users\FERNANDO\Documents\firmware-apb-0100\TCPIP_Stack\UDP.c
          UDPPutROMString   0x0066e4    program     extern C:\Users\FERNANDO\Documents\firmware-apb-0100\TCPIP_Stack\UDP.c
             UDPPutString   0x0066a8    program     extern C:\Users\FERNANDO\Documents\firmware-apb-0100\TCPIP_Stack\UDP.c
           UDPSetRxBuffer   0x0064b2    program     extern C:\Users\FERNANDO\Documents\firmware-apb-0100\TCPIP_Stack\UDP.c
           UDPSetTxBuffer   0x006464    program     extern C:\Users\FERNANDO\Documents\firmware-apb-0100\TCPIP_Stack\UDP.c
                  UDPTask   0x005fd6    program     extern C:\Users\FERNANDO\Documents\firmware-apb-0100\TCPIP_Stack\UDP.c
              VLSIReadReg   0x00cd64    program     static C:\Users\FERNANDO\Documents\firmware-apb-0100\VLSICodec.c
             VLSIWriteReg   0x00cd9a    program     static C:\Users\FERNANDO\Documents\firmware-apb-0100\VLSICodec.c
                VLSI_Init   0x00cbc6    program     extern C:\Users\FERNANDO\Documents\firmware-apb-0100\VLSICodec.c
        VLSI_SetBassBoost   0x00ccc4    program     extern C:\Users\FERNANDO\Documents\firmware-apb-0100\VLSICodec.c
           VLSI_SetVolume   0x00ccfe    program     extern C:\Users\FERNANDO\Documents\firmware-apb-0100\VLSICodec.c
            VLSI_SineTest   0x00cd20    program     extern C:\Users\FERNANDO\Documents\firmware-apb-0100\VLSICodec.c
          WriteBlockFlash   0x00d876    program     extern C:\Users\FERNANDO\Documents\firmware-apb-0100\Flash\WriteBlockFlash.c
          WriteBytesFlash   0x00d316    program     extern C:\Users\FERNANDO\Documents\firmware-apb-0100\Flash\WriteBytesFlash.c
              WritePHYReg   0x00a146    program     extern C:\Users\FERNANDO\Documents\firmware-apb-0100\TCPIP_Stack\ETH97J60.c
                 WriteSPI   0x00cdbe    program     static C:\Users\FERNANDO\Documents\firmware-apb-0100\VLSICodec.c
              _2jContinue   0x00d060    program     static E:\3.46\pic18-lt\cxx-framework\src\traditional\stdclib\memset.asm
                   _2jEnd   0x00d0c4    program     static E:\3.46\pic18-lt\cxx-framework\src\traditional\stdclib\slenpgm.asm
              _3jContinue   0x00d02c    program     static E:\3.46\pic18-lt\cxx-framework\src\traditional\stdclib\mcpyp2r.asm
                   _3jEnd   0x00d06a    program     static E:\3.46\pic18-lt\cxx-framework\src\traditional\stdclib\memset.asm
              _4jContinue   0x00cfd8    program     static E:\3.46\pic18-lt\cxx-framework\src\traditional\stdclib\memcpy.asm
                   _4jEnd   0x00d036    program     static E:\3.46\pic18-lt\cxx-framework\src\traditional\stdclib\mcpyp2r.asm
                   _5jEnd   0x00cfe2    program     static E:\3.46\pic18-lt\cxx-framework\src\traditional\stdclib\memcpy.asm
        _D10TCYXCODE_000A   0x00df22    program     static E:\3.46\pic18-lt\cxx-framework\src\traditional\delays\d10tcyx.asm
        _D10TCYXCODE_000C   0x00df24    program     static E:\3.46\pic18-lt\cxx-framework\src\traditional\delays\d10tcyx.asm
        _D10TCYXCODE_000E   0x00df26    program     static E:\3.46\pic18-lt\cxx-framework\src\traditional\delays\d10tcyx.asm
        _D1KTCYXCODE_0010   0x00ded0    program     static E:\3.46\pic18-lt\cxx-framework\src\traditional\delays\d1ktcyx.asm
        _D1KTCYXCODE_0016   0x00ded6    program     static E:\3.46\pic18-lt\cxx-framework\src\traditional\delays\d1ktcyx.asm
             _DHCPReceive   0x007e1c    program     static C:\Users\FERNANDO\Documents\firmware-apb-0100\TCPIP_Stack\DHCP.c
                _DHCPSend   0x00821a    program     static C:\Users\FERNANDO\Documents\firmware-apb-0100\TCPIP_Stack\DHCP.c
                _PackMath   0x00d682    program     extern E:\3.46\pic18-lt\cxx-framework\src\traditional\stdclib\PackMath.c
                _UnpkMath   0x00d566    program     extern E:\3.46\pic18-lt\cxx-framework\src\traditional\stdclib\UnpkMath.c
              __FpCompare   0x00a6ca    program     extern E:\3.46\pic18-lt\cxx-framework\src\traditional\math\compFP.asm
                 __FpExit   0x00a58e    program     extern E:\3.46\pic18-lt\cxx-framework\src\traditional\math\packFP.asm
                 __FpPack   0x00a5ba    program     extern E:\3.46\pic18-lt\cxx-framework\src\traditional\math\packFP.asm
            __FpReturnNaN   0x00a582    program     extern E:\3.46\pic18-lt\cxx-framework\src\traditional\math\packFP.asm
         __FpReturnNegInf   0x00a594    program     extern E:\3.46\pic18-lt\cxx-framework\src\traditional\math\packFP.asm
        __FpReturnNegZero   0x00a5ac    program     extern E:\3.46\pic18-lt\cxx-framework\src\traditional\math\packFP.asm
         __FpReturnPosInf   0x00a59a    program     extern E:\3.46\pic18-lt\cxx-framework\src\traditional\math\packFP.asm
        __FpReturnPosZero   0x00a5b4    program     extern E:\3.46\pic18-lt\cxx-framework\src\traditional\math\packFP.asm
        __FpReturnSignInf   0x00a590    program     extern E:\3.46\pic18-lt\cxx-framework\src\traditional\math\packFP.asm
       __FpReturnSignZero   0x00a5a8    program     extern E:\3.46\pic18-lt\cxx-framework\src\traditional\math\packFP.asm
              __FpReturnW   0x00a612    program     extern E:\3.46\pic18-lt\cxx-framework\src\traditional\math\packFP.asm
              __FpUnPackA   0x00a632    program     extern E:\3.46\pic18-lt\cxx-framework\src\traditional\math\UnpackFP.asm
              __FpUnPackB   0x00a662    program     extern E:\3.46\pic18-lt\cxx-framework\src\traditional\math\UnpackFP.asm
           ___do_lbl00001   0x00cc1e    program     static                          
           ___do_lbl00002   0x00d7ca    program     static                          
           ___do_lbl00002   0x00cc1e    program     static                          
           ___do_lbl00003   0x00d7ce    program     static                          
           ___do_lbl00004   0x00d7ac    program     static                          
           ___do_lbl00005   0x00cbf4    program     static                          
           ___do_lbl00006   0x00cc30    program     static                          
           ___do_lbl00007   0x00cc4a    program     static                          
           ___do_lbl00008   0x00cc20    program     static                          
         ___else_lbl00012   0x00ccb4    program     static                          
         ___else_lbl00014   0x00cc8e    program     static                          
          ___for_lbl00100   0x009774    program     static                          
          ___for_lbl00101   0x00977c    program     static                          
          ___for_lbl00102   0x009758    program     static                          
          ___for_lbl00103   0x009792    program     static                          
          ___for_lbl00104   0x009798    program     static                          
          ___for_lbl00105   0x00977c    program     static                          
           ___if_lbl00005   0x00d90a    program     static                          
           ___if_lbl00005   0x00d3dc    program     static                          
           ___if_lbl00006   0x00d3f8    program     static                          
           ___if_lbl00006   0x00d922    program     static                          
           ___if_lbl00007   0x00d410    program     static                          
           ___if_lbl00011   0x00ccb6    program     static                          
           ___if_lbl00013   0x00ccb6    program     static                          
           ___if_lbl00014   0x009032    program     static                          
           ___if_lbl00015   0x009048    program     static                          
           ___if_lbl00016   0x00909a    program     static                          
           ___if_lbl00017   0x0090a2    program     static                          
           ___if_lbl00020   0x009ac8    program     static                          
           ___if_lbl00021   0x009ad8    program     static                          
           ___if_lbl00027   0x009b68    program     static                          
           ___if_lbl00030   0x009bce    program     static                          
       ___return_lbl00000   0x00ccc2    program     static                          
       ___return_lbl00000   0x00de42    program     static                          
       ___return_lbl00000   0x009958    program     static                          
       ___return_lbl00000   0x00d440    program     static                          
       ___return_lbl00000   0x00d94c    program     static                          
       ___return_lbl00000   0x00ddfa    program     static                          
       ___return_lbl00000   0x00de6e    program     static                          
       ___return_lbl00000   0x00dcf6    program     static                          
       ___return_lbl00000   0x000004    program     static                          
       ___return_lbl00001   0x00defa    program     static                          
       ___return_lbl00001   0x00d7d0    program     static                          
       ___return_lbl00002   0x00db6a    program     static                          
       ___return_lbl00005   0x00001c    program     static                          
       ___return_lbl00006   0x00000c    program     static                          
       ___return_lbl00009   0x0090ca    program     static                          
       ___return_lbl00019   0x009bd6    program     static                          
       ___return_lbl00079   0x00a0a6    program     static                          
       ___return_lbl00080   0x00a0d8    program     static                          
       ___return_lbl00083   0x00a114    program     static                          
       ___return_lbl00086   0x00a144    program     static                          
       ___return_lbl00089   0x00a174    program     static                          
       ___return_lbl00099   0x0097aa    program     static                          
        ___while_lbl00001   0x00ddcc    program     static                          
        ___while_lbl00001   0x00d8b2    program     static                          
        ___while_lbl00001   0x009872    program     static                          
        ___while_lbl00001   0x00d396    program     static                          
        ___while_lbl00002   0x00ddfa    program     static                          
        ___while_lbl00002   0x009878    program     static                          
        ___while_lbl00002   0x00d94c    program     static                          
        ___while_lbl00002   0x00d440    program     static                          
        ___while_lbl00003   0x00cbfc    program     static                          
        ___while_lbl00003   0x00d8ce    program     static                          
        ___while_lbl00003   0x00d3aa    program     static                          
        ___while_lbl00004   0x00cc1e    program     static                          
        ___while_lbl00004   0x00d8f0    program     static                          
        ___while_lbl00004   0x00d3de    program     static                          
        ___while_lbl00009   0x00ccb4    program     static                          
        ___while_lbl00010   0x00ccb6    program     static                          
        ___while_lbl00010   0x008fcc    program     static                          
        ___while_lbl00011   0x0090a4    program     static                          
        ___while_lbl00012   0x008fd4    program     static                          
        ___while_lbl00013   0x008fd8    program     static                          
        ___while_lbl00081   0x00a0a8    program     static                          
        ___while_lbl00082   0x00a0d8    program     static                          
        ___while_lbl00084   0x00a0da    program     static                          
        ___while_lbl00085   0x00a114    program     static                          
        ___while_lbl00087   0x00a124    program     static                          
        ___while_lbl00088   0x00a12a    program     static                          
        ___while_lbl00090   0x00a16e    program     static                          
        ___while_lbl00091   0x00a174    program     static                          
               __config_0   0x01fff8    program     static C:\Users\FERNANDO\Documents\firmware-apb-0100\MainDemo.c
               __config_1   0x01fffa    program     static C:\Users\FERNANDO\Documents\firmware-apb-0100\MainDemo.c
               __config_2   0x01fffd    program     static C:\Users\FERNANDO\Documents\firmware-apb-0100\MainDemo.c
                   __init   0x000014    program     extern E:\3.46\pic18-lt\cxx-framework\src\traditional\stdclib\__init.c
                   __pa_0   0x00d54a    program     static E:\3.46\pic18-lt\cxx-framework\src\traditional\stdclib\frexp.c
                   __pa_0   0x00760e    program     static E:\3.46\pic18-lt\cxx-framework\src\traditional\stdclib\vfprintf.c
                   __pa_0   0x00ab94    program     static E:\3.46\pic18-lt\cxx-framework\src\traditional\stdclib\log.c
                   __pa_0   0x00d74a    program     static E:\3.46\pic18-lt\cxx-framework\src\traditional\stdclib\PackMath.c
                   __pa_0   0x00d674    program     static E:\3.46\pic18-lt\cxx-framework\src\traditional\stdclib\UnpkMath.c
                   __pa_1   0x00d558    program     static E:\3.46\pic18-lt\cxx-framework\src\traditional\stdclib\frexp.c
                   __pa_1   0x007616    program     static E:\3.46\pic18-lt\cxx-framework\src\traditional\stdclib\vfprintf.c
                   __pa_1   0x00d75a    program     static E:\3.46\pic18-lt\cxx-framework\src\traditional\stdclib\PackMath.c
                   __pa_1   0x00aba0    program     static E:\3.46\pic18-lt\cxx-framework\src\traditional\stdclib\log.c
                  __pa_10   0x00ac56    program     static E:\3.46\pic18-lt\cxx-framework\src\traditional\stdclib\log.c
                  __pa_10   0x0076ca    program     static E:\3.46\pic18-lt\cxx-framework\src\traditional\stdclib\vfprintf.c
                  __pa_11   0x00ac5e    program     static E:\3.46\pic18-lt\cxx-framework\src\traditional\stdclib\log.c
                  __pa_11   0x0076d8    program     static E:\3.46\pic18-lt\cxx-framework\src\traditional\stdclib\vfprintf.c
                  __pa_12   0x0076ee    program     static E:\3.46\pic18-lt\cxx-framework\src\traditional\stdclib\vfprintf.c
                  __pa_12   0x00ac70    program     static E:\3.46\pic18-lt\cxx-framework\src\traditional\stdclib\log.c
                  __pa_13   0x00ac8a    program     static E:\3.46\pic18-lt\cxx-framework\src\traditional\stdclib\log.c
                  __pa_13   0x007708    program     static E:\3.46\pic18-lt\cxx-framework\src\traditional\stdclib\vfprintf.c
                  __pa_14   0x007720    program     static E:\3.46\pic18-lt\cxx-framework\src\traditional\stdclib\vfprintf.c
                  __pa_14   0x00ac9c    program     static E:\3.46\pic18-lt\cxx-framework\src\traditional\stdclib\log.c
                  __pa_15   0x00acae    program     static E:\3.46\pic18-lt\cxx-framework\src\traditional\stdclib\log.c
                  __pa_15   0x007730    program     static E:\3.46\pic18-lt\cxx-framework\src\traditional\stdclib\vfprintf.c
                  __pa_16   0x00acba    program     static E:\3.46\pic18-lt\cxx-framework\src\traditional\stdclib\log.c
                  __pa_16   0x007746    program     static E:\3.46\pic18-lt\cxx-framework\src\traditional\stdclib\vfprintf.c
                  __pa_17   0x007758    program     static E:\3.46\pic18-lt\cxx-framework\src\traditional\stdclib\vfprintf.c
                  __pa_18   0x00776a    program     static E:\3.46\pic18-lt\cxx-framework\src\traditional\stdclib\vfprintf.c
                  __pa_19   0x007774    program     static E:\3.46\pic18-lt\cxx-framework\src\traditional\stdclib\vfprintf.c
                   __pa_2   0x007620    program     static E:\3.46\pic18-lt\cxx-framework\src\traditional\stdclib\vfprintf.c
                   __pa_2   0x00d768    program     static E:\3.46\pic18-lt\cxx-framework\src\traditional\stdclib\PackMath.c
                   __pa_2   0x00abb2    program     static E:\3.46\pic18-lt\cxx-framework\src\traditional\stdclib\log.c
                  __pa_20   0x007784    program     static E:\3.46\pic18-lt\cxx-framework\src\traditional\stdclib\vfprintf.c
                  __pa_21   0x007794    program     static E:\3.46\pic18-lt\cxx-framework\src\traditional\stdclib\vfprintf.c
                  __pa_22   0x0077a4    program     static E:\3.46\pic18-lt\cxx-framework\src\traditional\stdclib\vfprintf.c
                  __pa_23   0x0077b0    program     static E:\3.46\pic18-lt\cxx-framework\src\traditional\stdclib\vfprintf.c
                  __pa_24   0x0077be    program     static E:\3.46\pic18-lt\cxx-framework\src\traditional\stdclib\vfprintf.c
                  __pa_25   0x0077c6    program     static E:\3.46\pic18-lt\cxx-framework\src\traditional\stdclib\vfprintf.c
                  __pa_26   0x0077d0    program     static E:\3.46\pic18-lt\cxx-framework\src\traditional\stdclib\vfprintf.c
                  __pa_27   0x0077da    program     static E:\3.46\pic18-lt\cxx-framework\src\traditional\stdclib\vfprintf.c
                  __pa_28   0x0077e2    program     static E:\3.46\pic18-lt\cxx-framework\src\traditional\stdclib\vfprintf.c
                  __pa_29   0x0077f0    program     static E:\3.46\pic18-lt\cxx-framework\src\traditional\stdclib\vfprintf.c
                   __pa_3   0x00762a    program     static E:\3.46\pic18-lt\cxx-framework\src\traditional\stdclib\vfprintf.c
                   __pa_3   0x00d772    program     static E:\3.46\pic18-lt\cxx-framework\src\traditional\stdclib\PackMath.c
                   __pa_3   0x00abce    program     static E:\3.46\pic18-lt\cxx-framework\src\traditional\stdclib\log.c
                  __pa_30   0x00780c    program     static E:\3.46\pic18-lt\cxx-framework\src\traditional\stdclib\vfprintf.c
                  __pa_31   0x007826    program     static E:\3.46\pic18-lt\cxx-framework\src\traditional\stdclib\vfprintf.c
                  __pa_32   0x007840    program     static E:\3.46\pic18-lt\cxx-framework\src\traditional\stdclib\vfprintf.c
                  __pa_33   0x007858    program     static E:\3.46\pic18-lt\cxx-framework\src\traditional\stdclib\vfprintf.c
                  __pa_34   0x007862    program     static E:\3.46\pic18-lt\cxx-framework\src\traditional\stdclib\vfprintf.c
                  __pa_35   0x007870    program     static E:\3.46\pic18-lt\cxx-framework\src\traditional\stdclib\vfprintf.c
                  __pa_36   0x007878    program     static E:\3.46\pic18-lt\cxx-framework\src\traditional\stdclib\vfprintf.c
                  __pa_37   0x007882    program     static E:\3.46\pic18-lt\cxx-framework\src\traditional\stdclib\vfprintf.c
                  __pa_38   0x007892    program     static E:\3.46\pic18-lt\cxx-framework\src\traditional\stdclib\vfprintf.c
                  __pa_39   0x0078a0    program     static E:\3.46\pic18-lt\cxx-framework\src\traditional\stdclib\vfprintf.c
                   __pa_4   0x00abd4    program     static E:\3.46\pic18-lt\cxx-framework\src\traditional\stdclib\log.c
                   __pa_4   0x00d780    program     static E:\3.46\pic18-lt\cxx-framework\src\traditional\stdclib\PackMath.c
                   __pa_4   0x007642    program     static E:\3.46\pic18-lt\cxx-framework\src\traditional\stdclib\vfprintf.c
                  __pa_40   0x0078ac    program     static E:\3.46\pic18-lt\cxx-framework\src\traditional\stdclib\vfprintf.c
                  __pa_41   0x0078b8    program     static E:\3.46\pic18-lt\cxx-framework\src\traditional\stdclib\vfprintf.c
                  __pa_42   0x0078c0    program     static E:\3.46\pic18-lt\cxx-framework\src\traditional\stdclib\vfprintf.c
                  __pa_43   0x0078ca    program     static E:\3.46\pic18-lt\cxx-framework\src\traditional\stdclib\vfprintf.c
                  __pa_44   0x0078d0    program     static E:\3.46\pic18-lt\cxx-framework\src\traditional\stdclib\vfprintf.c
                  __pa_45   0x0078da    program     static E:\3.46\pic18-lt\cxx-framework\src\traditional\stdclib\vfprintf.c
                  __pa_46   0x0078e6    program     static E:\3.46\pic18-lt\cxx-framework\src\traditional\stdclib\vfprintf.c
                   __pa_5   0x00abde    program     static E:\3.46\pic18-lt\cxx-framework\src\traditional\stdclib\log.c
                   __pa_5   0x00d788    program     static E:\3.46\pic18-lt\cxx-framework\src\traditional\stdclib\PackMath.c
                   __pa_5   0x007656    program     static E:\3.46\pic18-lt\cxx-framework\src\traditional\stdclib\vfprintf.c
                   __pa_6   0x00abfc    program     static E:\3.46\pic18-lt\cxx-framework\src\traditional\stdclib\log.c
                   __pa_6   0x00d790    program     static E:\3.46\pic18-lt\cxx-framework\src\traditional\stdclib\PackMath.c
                   __pa_6   0x007672    program     static E:\3.46\pic18-lt\cxx-framework\src\traditional\stdclib\vfprintf.c
                   __pa_7   0x00767c    program     static E:\3.46\pic18-lt\cxx-framework\src\traditional\stdclib\vfprintf.c
                   __pa_7   0x00ac16    program     static E:\3.46\pic18-lt\cxx-framework\src\traditional\stdclib\log.c
                   __pa_8   0x00ac30    program     static E:\3.46\pic18-lt\cxx-framework\src\traditional\stdclib\log.c
                   __pa_8   0x007688    program     static E:\3.46\pic18-lt\cxx-framework\src\traditional\stdclib\vfprintf.c
                   __pa_9   0x00ac46    program     static E:\3.46\pic18-lt\cxx-framework\src\traditional\stdclib\log.c
                   __pa_9   0x0076aa    program     static E:\3.46\pic18-lt\cxx-framework\src\traditional\stdclib\vfprintf.c
               __string_0   0x00dd64    program     static C:\Users\FERNANDO\Documents\firmware-apb-0100\MainDemo.c
               __string_1   0x00dd78    program     static C:\Users\FERNANDO\Documents\firmware-apb-0100\GenericTCPClient.c
               __string_2   0x00dd6e    program     static C:\Users\FERNANDO\Documents\firmware-apb-0100\GenericTCPClient.c
               __string_2   0x00dd8f    program     static C:\Users\FERNANDO\Documents\firmware-apb-0100\Command_Execution.c
               __tmplbl_0   0x009012    program     static                          
              __tmplbl_10   0x009b30    program     static                          
              __tmplbl_11   0x009b2e    program     static                          
              __tmplbl_12   0x009bc2    program     static                          
              __tmplbl_13   0x009bb4    program     static                          
             __tmplbl_131   0x0040ba    program     static                          
             __tmplbl_133   0x0040ba    program     static                          
             __tmplbl_135   0x0040ba    program     static                          
             __tmplbl_137   0x0040ba    program     static                          
             __tmplbl_139   0x0040ba    program     static                          
              __tmplbl_14   0x009bba    program     static                          
             __tmplbl_142   0x0040ba    program     static                          
             __tmplbl_150   0x0040ba    program     static                          
             __tmplbl_151   0x0040ba    program     static                          
             __tmplbl_153   0x0040ba    program     static                          
             __tmplbl_155   0x0040ba    program     static                          
             __tmplbl_156   0x0040ba    program     static                          
              __tmplbl_42   0x0077a4    program     static                          
              __tmplbl_43   0x0075ec    program     static                          
              __tmplbl_44   0x0075d2    program     static                          
               __tmplbl_5   0x009b66    program     static                          
               __tmplbl_6   0x009b5c    program     static                          
               __tmplbl_7   0x009b4e    program     static                          
               __tmplbl_8   0x009b44    program     static                          
              __tmplbl_85   0x006d24    program     static                          
               __tmplbl_9   0x009b3a    program     static                          
            __zero_memory   0x00de70    program     extern E:\3.46\pic18-lt\cxx-framework\src\traditional\proc\p18f97j60.asm
                _do_cinit   0x00dace    program     extern E:\3.46\pic18-lt\cxx-framework\src\traditional\startup\c018i.c
                   _entry   0x000000    program     extern E:\3.46\pic18-lt\cxx-framework\src\traditional\startup\c018i.c
                   _false   0x00de3e    program     static                          
                 _startup   0x00dee0    program     extern E:\3.46\pic18-lt\cxx-framework\src\traditional\startup\c018i.c
              _usart_putc   0x00defc    program     extern E:\3.46\pic18-lt\cxx-framework\src\pmc_common\USART\_usartpc.asm
               _user_putc   0x000006    program     extern E:\3.46\pic18-lt\cxx-framework\src\traditional\stdclib\_user_putc.c
             btohexa_high   0x00953a    program     extern C:\Users\FERNANDO\Documents\firmware-apb-0100\TCPIP_Stack\Helpers.c
              btohexa_low   0x009558    program     extern C:\Users\FERNANDO\Documents\firmware-apb-0100\TCPIP_Stack\Helpers.c
                compare_l   0x00de92    program     static E:\3.46\pic18-lt\cxx-framework\src\traditional\proc\p18f97j60.asm
                copy_loop   0x00db40    program     static                          
            copy_one_byte   0x00db46    program     static                          
                     done   0x00db6a    program     static                          
             done_copying   0x00db54    program     static                          
                  endloop   0x00de6a    program     static                          
                    frexp   0x00d442    program     extern E:\3.46\pic18-lt\cxx-framework\src\traditional\stdclib\frexp.c
                  hexatob   0x0094fa    program     extern C:\Users\FERNANDO\Documents\firmware-apb-0100\TCPIP_Stack\Helpers.c
                  isdigit   0x00de9c    program     extern E:\3.46\pic18-lt\cxx-framework\src\traditional\stdclib\isdigit.asm
                 jANotInf   0x00a1d6    program     static E:\3.46\pic18-lt\cxx-framework\src\traditional\math\divFP.asm
                 jANotInf   0x00a27c    program     static E:\3.46\pic18-lt\cxx-framework\src\traditional\math\mulFP.asm
                 jANotInf   0x00a362    program     static E:\3.46\pic18-lt\cxx-framework\src\traditional\math\addFP.asm
                 jANotNeg   0x00a3f6    program     static E:\3.46\pic18-lt\cxx-framework\src\traditional\math\addFP.asm
                jANotZero   0x00a1ea    program     static E:\3.46\pic18-lt\cxx-framework\src\traditional\math\divFP.asm
              jAandWsetup   0x00a3c6    program     static E:\3.46\pic18-lt\cxx-framework\src\traditional\math\addFP.asm
                  jAisNeg   0x00a746    program     static E:\3.46\pic18-lt\cxx-framework\src\traditional\math\compFP.asm
                 jAltBexp   0x00a3b4    program     static E:\3.46\pic18-lt\cxx-framework\src\traditional\math\addFP.asm
                jBANotInf   0x00a358    program     static E:\3.46\pic18-lt\cxx-framework\src\traditional\math\addFP.asm
                 jBNotInf   0x00a370    program     static E:\3.46\pic18-lt\cxx-framework\src\traditional\math\addFP.asm
              jBothFinite   0x00a28a    program     static E:\3.46\pic18-lt\cxx-framework\src\traditional\math\mulFP.asm
             jBothNotZero   0x00a296    program     static E:\3.46\pic18-lt\cxx-framework\src\traditional\math\mulFP.asm
             jBothNotZero   0x00a6e8    program     static E:\3.46\pic18-lt\cxx-framework\src\traditional\math\compFP.asm
            jDifOrPosSign   0x00a384    program     static E:\3.46\pic18-lt\cxx-framework\src\traditional\math\addFP.asm
                      jEQ   0x00a704    program     static E:\3.46\pic18-lt\cxx-framework\src\traditional\math\compFP.asm
                     jEnd   0x00d08e    program     static E:\3.46\pic18-lt\cxx-framework\src\traditional\stdclib\strlen.asm
                     jEnd   0x00d0c6    program     static E:\3.46\pic18-lt\cxx-framework\src\traditional\stdclib\slenpgm.asm
                     jEnd   0x00d15c    program     static E:\3.46\pic18-lt\cxx-framework\src\traditional\stdclib\strupr.asm
                     jEnd   0x00d072    program     static E:\3.46\pic18-lt\cxx-framework\src\traditional\stdclib\memset.asm
                     jEnd   0x00d03e    program     static E:\3.46\pic18-lt\cxx-framework\src\traditional\stdclib\mcpyp2r.asm
                     jEnd   0x00cfe8    program     static E:\3.46\pic18-lt\cxx-framework\src\traditional\stdclib\memcpy.asm
                    jExch   0x00a710    program     static E:\3.46\pic18-lt\cxx-framework\src\traditional\math\compFP.asm
                    jExit   0x00a580    program     static E:\3.46\pic18-lt\cxx-framework\src\traditional\math\castFP08.asm
                   jExpEQ   0x00a756    program     static E:\3.46\pic18-lt\cxx-framework\src\traditional\math\compFP.asm
                   jFinal   0x00a73a    program     static E:\3.46\pic18-lt\cxx-framework\src\traditional\math\compFP.asm
               jFinalSign   0x00a45e    program     static E:\3.46\pic18-lt\cxx-framework\src\traditional\math\addFP.asm
                jHaveZero   0x00a292    program     static E:\3.46\pic18-lt\cxx-framework\src\traditional\math\mulFP.asm
                jI2F08Beg   0x00a1a4    program     static E:\3.46\pic18-lt\cxx-framework\src\traditional\math\cast08FP.asm
                jI2F16Beg   0x00a6a2    program     static E:\3.46\pic18-lt\cxx-framework\src\traditional\math\cast16FP.asm
               jInnerLoop   0x00d106    program     static E:\3.46\pic18-lt\cxx-framework\src\traditional\stdclib\strstr.asm
                    jLoop   0x00a212    program     static E:\3.46\pic18-lt\cxx-framework\src\traditional\math\divFP.asm
                    jLoop   0x00cfcc    program     static E:\3.46\pic18-lt\cxx-framework\src\traditional\stdclib\memcpy.asm
                    jLoop   0x00d020    program     static E:\3.46\pic18-lt\cxx-framework\src\traditional\stdclib\mcpyp2r.asm
                    jLoop   0x00d054    program     static E:\3.46\pic18-lt\cxx-framework\src\traditional\stdclib\memset.asm
                    jLoop   0x00a568    program     static E:\3.46\pic18-lt\cxx-framework\src\traditional\math\castFP08.asm
                    jLoop   0x00d148    program     static E:\3.46\pic18-lt\cxx-framework\src\traditional\stdclib\strupr.asm
                    jLoop   0x00d084    program     static E:\3.46\pic18-lt\cxx-framework\src\traditional\stdclib\strlen.asm
                    jLoop   0x00d0ae    program     static E:\3.46\pic18-lt\cxx-framework\src\traditional\stdclib\slenpgm.asm
                jLoopExit   0x00a576    program     static E:\3.46\pic18-lt\cxx-framework\src\traditional\math\castFP08.asm
                   jMatch   0x00debc    program     static E:\3.46\pic18-lt\cxx-framework\src\traditional\stdclib\isdigit.asm
                   jMatch   0x00d122    program     static E:\3.46\pic18-lt\cxx-framework\src\traditional\stdclib\strstr.asm
                     jMax   0x00a544    program     static E:\3.46\pic18-lt\cxx-framework\src\traditional\math\castFP08.asm
                  jMaxNeg   0x00a54e    program     static E:\3.46\pic18-lt\cxx-framework\src\traditional\math\castFP08.asm
                  jMaxPos   0x00a548    program     static E:\3.46\pic18-lt\cxx-framework\src\traditional\math\castFP08.asm
                      jNE   0x00a708    program     static E:\3.46\pic18-lt\cxx-framework\src\traditional\math\compFP.asm
                    jNext   0x00a238    program     static E:\3.46\pic18-lt\cxx-framework\src\traditional\math\divFP.asm
                jNoAdjust   0x00a236    program     static E:\3.46\pic18-lt\cxx-framework\src\traditional\math\divFP.asm
                  jNoExch   0x00a730    program     static E:\3.46\pic18-lt\cxx-framework\src\traditional\math\compFP.asm
                 jNoMatch   0x00d112    program     static E:\3.46\pic18-lt\cxx-framework\src\traditional\stdclib\strstr.asm
                 jNoMatch   0x00debe    program     static E:\3.46\pic18-lt\cxx-framework\src\traditional\stdclib\isdigit.asm
             jNotBothZero   0x00a388    program     static E:\3.46\pic18-lt\cxx-framework\src\traditional\math\addFP.asm
                  jNotInf   0x00a558    program     static E:\3.46\pic18-lt\cxx-framework\src\traditional\math\castFP08.asm
                    jNull   0x00d11e    program     static E:\3.46\pic18-lt\cxx-framework\src\traditional\stdclib\strstr.asm
               jOuterLoop   0x00d0ee    program     static E:\3.46\pic18-lt\cxx-framework\src\traditional\stdclib\strstr.asm
                  jPkLoop   0x00a5c8    program     static E:\3.46\pic18-lt\cxx-framework\src\traditional\math\packFP.asm
             jPkRoundDone   0x00a612    program     static E:\3.46\pic18-lt\cxx-framework\src\traditional\math\packFP.asm
               jPkRoundIt   0x00a5fa    program     static E:\3.46\pic18-lt\cxx-framework\src\traditional\math\packFP.asm
             jPkShiftDone   0x00a5e4    program     static E:\3.46\pic18-lt\cxx-framework\src\traditional\math\packFP.asm
                  jReturn   0x00d122    program     static E:\3.46\pic18-lt\cxx-framework\src\traditional\stdclib\strstr.asm
           jReturnPosInf0   0x00a59e    program     static E:\3.46\pic18-lt\cxx-framework\src\traditional\math\packFP.asm
                  jRotate   0x00a762    program     static E:\3.46\pic18-lt\cxx-framework\src\traditional\math\compFP.asm
                   jShift   0x00a74c    program     static E:\3.46\pic18-lt\cxx-framework\src\traditional\math\compFP.asm
               jShiftDone   0x00a41e    program     static E:\3.46\pic18-lt\cxx-framework\src\traditional\math\addFP.asm
               jShiftLoop   0x00a410    program     static E:\3.46\pic18-lt\cxx-framework\src\traditional\math\addFP.asm
                jSignDone   0x00a44e    program     static E:\3.46\pic18-lt\cxx-framework\src\traditional\math\addFP.asm
              jSignedZero   0x00a1e0    program     static E:\3.46\pic18-lt\cxx-framework\src\traditional\math\divFP.asm
                 jSignsEQ   0x00a6ec    program     static E:\3.46\pic18-lt\cxx-framework\src\traditional\math\compFP.asm
                    jSkip   0x00d158    program     static E:\3.46\pic18-lt\cxx-framework\src\traditional\stdclib\strupr.asm
                  jUnpkA1   0x00a63c    program     static E:\3.46\pic18-lt\cxx-framework\src\traditional\math\UnpackFP.asm
                  jUnpkA2   0x00a654    program     static E:\3.46\pic18-lt\cxx-framework\src\traditional\math\UnpackFP.asm
                 jUnpkANZ   0x00a64a    program     static E:\3.46\pic18-lt\cxx-framework\src\traditional\math\UnpackFP.asm
                  jUnpkB1   0x00a66c    program     static E:\3.46\pic18-lt\cxx-framework\src\traditional\math\UnpackFP.asm
                  jUnpkB2   0x00a684    program     static E:\3.46\pic18-lt\cxx-framework\src\traditional\math\UnpackFP.asm
                 jUnpkBNZ   0x00a67a    program     static E:\3.46\pic18-lt\cxx-framework\src\traditional\math\UnpackFP.asm
                 jUnpkNaN   0x00a65e    program     static E:\3.46\pic18-lt\cxx-framework\src\traditional\math\UnpackFP.asm
                 jWNotNeg   0x00a40a    program     static E:\3.46\pic18-lt\cxx-framework\src\traditional\math\addFP.asm
                    jZero   0x00a554    program     static E:\3.46\pic18-lt\cxx-framework\src\traditional\math\castFP08.asm
               jZero1and2   0x00a5a2    program     static E:\3.46\pic18-lt\cxx-framework\src\traditional\math\packFP.asm
          leftRotateDWORD   0x009744    program     extern C:\Users\FERNANDO\Documents\firmware-apb-0100\TCPIP_Stack\Helpers.c
                      log   0x00a7ce    program     extern E:\3.46\pic18-lt\cxx-framework\src\traditional\stdclib\log.c
                    log10   0x00db6c    program     extern E:\3.46\pic18-lt\cxx-framework\src\traditional\stdclib\log10.c
                     loop   0x00de4e    program     static                          
                     loop   0x00de0a    program     static                          
                     loop   0x00def0    program     static                          
                     loop   0x00df0c    program     static E:\3.46\pic18-lt\cxx-framework\src\pmc_common\USART\_usartpc.asm
                   loop_h   0x00de8a    program     static E:\3.46\pic18-lt\cxx-framework\src\traditional\proc\p18f97j60.asm
                   loop_l   0x00de94    program     static E:\3.46\pic18-lt\cxx-framework\src\traditional\proc\p18f97j60.asm
                     main   0x00c332    program     extern C:\Users\FERNANDO\Documents\firmware-apb-0100\MainDemo.c
                   memcpy   0x00cfa4    program     extern E:\3.46\pic18-lt\cxx-framework\src\traditional\stdclib\memcpy.asm
            memcpypgm2ram   0x00cffa    program     extern E:\3.46\pic18-lt\cxx-framework\src\traditional\stdclib\mcpyp2r.asm
                   memset   0x00d040    program     extern E:\3.46\pic18-lt\cxx-framework\src\traditional\stdclib\memset.asm
                     putc   0x00dc04    program     extern E:\3.46\pic18-lt\cxx-framework\src\traditional\stdclib\putc.c
                 s_digits   0x00df2e    program     static E:\3.46\pic18-lt\cxx-framework\src\traditional\stdclib\vfprintf.c
            s_put_n_chars   0x006cce    program     static E:\3.46\pic18-lt\cxx-framework\src\traditional\stdclib\vfprintf.c
                  sprintf   0x00da22    program     extern E:\3.46\pic18-lt\cxx-framework\src\traditional\stdclib\sprintf.c
           stricmppgm2ram   0x009574    program     extern C:\Users\FERNANDO\Documents\firmware-apb-0100\TCPIP_Stack\Helpers.c
                   strlen   0x00d074    program     extern E:\3.46\pic18-lt\cxx-framework\src\traditional\stdclib\strlen.asm
                strlenpgm   0x00d090    program     extern E:\3.46\pic18-lt\cxx-framework\src\traditional\stdclib\slenpgm.asm
                  strnchr   0x009810    program     extern C:\Users\FERNANDO\Documents\firmware-apb-0100\TCPIP_Stack\Helpers.c
                   strstr   0x00d0da    program     extern E:\3.46\pic18-lt\cxx-framework\src\traditional\stdclib\strstr.asm
                   strupr   0x00d134    program     extern E:\3.46\pic18-lt\cxx-framework\src\traditional\stdclib\strupr.asm
                    swapl   0x00963c    program     extern C:\Users\FERNANDO\Documents\firmware-apb-0100\TCPIP_Stack\Helpers.c
                    swaps   0x00961c    program     extern C:\Users\FERNANDO\Documents\firmware-apb-0100\TCPIP_Stack\Helpers.c
                     test   0x00dae8    program     static                          
                    uitoa   0x009434    program     extern C:\Users\FERNANDO\Documents\firmware-apb-0100\TCPIP_Stack\Helpers.c
                 vfprintf   0x006cfa    program     extern E:\3.46\pic18-lt\cxx-framework\src\traditional\stdclib\vfprintf.c
               zero_block   0x00de8a    program     static E:\3.46\pic18-lt\cxx-framework\src\traditional\proc\p18f97j60.asm
             ACK_Y_GRABAR   0x0003c2       data     static C:\Users\FERNANDO\Documents\firmware-apb-0100\Command_Execution.c
                   ADCON0   0x000fc2       data     extern E:\3.46\pic18-lt\cxx-framework\src\traditional\proc\p18f97j60.asm
               ADCON0Save   0x000b0f       data     static C:\Users\FERNANDO\Documents\firmware-apb-0100\TCPIP_Stack\Helpers.c
               ADCON0bits   0x000fc2       data     extern E:\3.46\pic18-lt\cxx-framework\src\traditional\proc\p18f97j60.asm
                   ADCON1   0x000fc1       data     extern E:\3.46\pic18-lt\cxx-framework\src\traditional\proc\p18f97j60.asm
               ADCON1bits   0x000fc1       data     extern E:\3.46\pic18-lt\cxx-framework\src\traditional\proc\p18f97j60.asm
                   ADCON2   0x000fc0       data     extern E:\3.46\pic18-lt\cxx-framework\src\traditional\proc\p18f97j60.asm
               ADCON2Save   0x000b10       data     static C:\Users\FERNANDO\Documents\firmware-apb-0100\TCPIP_Stack\Helpers.c
               ADCON2bits   0x000fc0       data     extern E:\3.46\pic18-lt\cxx-framework\src\traditional\proc\p18f97j60.asm
                    ADRES   0x000fc3       data     extern E:\3.46\pic18-lt\cxx-framework\src\traditional\proc\p18f97j60.asm
                   ADRESH   0x000fc4       data     extern E:\3.46\pic18-lt\cxx-framework\src\traditional\proc\p18f97j60.asm
                   ADRESL   0x000fc3       data     extern E:\3.46\pic18-lt\cxx-framework\src\traditional\proc\p18f97j60.asm
                AppBuffer   0x000b06       data     static C:\Users\FERNANDO\Documents\firmware-apb-0100\GenericTCPClient.c
                AppConfig   0x0000c8       data     extern C:\Users\FERNANDO\Documents\firmware-apb-0100\MainDemo.c
               AsciiChars   0x000e4d       data     static C:\Users\FERNANDO\Documents\firmware-apb-0100\TCPIP_Stack\Helpers.c
                  BAUDCON   0x000f7e       data     extern E:\3.46\pic18-lt\cxx-framework\src\traditional\proc\p18f97j60.asm
                 BAUDCON1   0x000f7e       data     extern E:\3.46\pic18-lt\cxx-framework\src\traditional\proc\p18f97j60.asm
             BAUDCON1bits   0x000f7e       data     extern E:\3.46\pic18-lt\cxx-framework\src\traditional\proc\p18f97j60.asm
                 BAUDCON2   0x000f7c       data     extern E:\3.46\pic18-lt\cxx-framework\src\traditional\proc\p18f97j60.asm
             BAUDCON2bits   0x000f7c       data     extern E:\3.46\pic18-lt\cxx-framework\src\traditional\proc\p18f97j60.asm
              BAUDCONbits   0x000f7e       data     extern E:\3.46\pic18-lt\cxx-framework\src\traditional\proc\p18f97j60.asm
                  BAUDCTL   0x000f7e       data     extern E:\3.46\pic18-lt\cxx-framework\src\traditional\proc\p18f97j60.asm
                 BAUDCTL1   0x000f7e       data     extern E:\3.46\pic18-lt\cxx-framework\src\traditional\proc\p18f97j60.asm
             BAUDCTL1bits   0x000f7e       data     extern E:\3.46\pic18-lt\cxx-framework\src\traditional\proc\p18f97j60.asm
                 BAUDCTL2   0x000f7c       data     extern E:\3.46\pic18-lt\cxx-framework\src\traditional\proc\p18f97j60.asm
             BAUDCTL2bits   0x000f7c       data     extern E:\3.46\pic18-lt\cxx-framework\src\traditional\proc\p18f97j60.asm
              BAUDCTLbits   0x000f7e       data     extern E:\3.46\pic18-lt\cxx-framework\src\traditional\proc\p18f97j60.asm
                      BSR   0x000fe0       data     extern E:\3.46\pic18-lt\cxx-framework\src\traditional\proc\p18f97j60.asm
                   Buffer   0x000e4b       data     static C:\Users\FERNANDO\Documents\firmware-apb-0100\TCPIP_Stack\Helpers.c
                  CCP1CON   0x000fbd       data     extern E:\3.46\pic18-lt\cxx-framework\src\traditional\proc\p18f97j60.asm
              CCP1CONbits   0x000fbd       data     extern E:\3.46\pic18-lt\cxx-framework\src\traditional\proc\p18f97j60.asm
                  CCP2CON   0x000fba       data     extern E:\3.46\pic18-lt\cxx-framework\src\traditional\proc\p18f97j60.asm
              CCP2CONbits   0x000fba       data     extern E:\3.46\pic18-lt\cxx-framework\src\traditional\proc\p18f97j60.asm
                  CCP3CON   0x000fb7       data     extern E:\3.46\pic18-lt\cxx-framework\src\traditional\proc\p18f97j60.asm
              CCP3CONbits   0x000fb7       data     extern E:\3.46\pic18-lt\cxx-framework\src\traditional\proc\p18f97j60.asm
                  CCP4CON   0x000f73       data     extern E:\3.46\pic18-lt\cxx-framework\src\traditional\proc\p18f97j60.asm
              CCP4CONbits   0x000f73       data     extern E:\3.46\pic18-lt\cxx-framework\src\traditional\proc\p18f97j60.asm
                  CCP5CON   0x000f70       data     extern E:\3.46\pic18-lt\cxx-framework\src\traditional\proc\p18f97j60.asm
              CCP5CONbits   0x000f70       data     extern E:\3.46\pic18-lt\cxx-framework\src\traditional\proc\p18f97j60.asm
                    CCPR1   0x000fbe       data     extern E:\3.46\pic18-lt\cxx-framework\src\traditional\proc\p18f97j60.asm
                   CCPR1H   0x000fbf       data     extern E:\3.46\pic18-lt\cxx-framework\src\traditional\proc\p18f97j60.asm
                   CCPR1L   0x000fbe       data     extern E:\3.46\pic18-lt\cxx-framework\src\traditional\proc\p18f97j60.asm
                    CCPR2   0x000fbb       data     extern E:\3.46\pic18-lt\cxx-framework\src\traditional\proc\p18f97j60.asm
                   CCPR2H   0x000fbc       data     extern E:\3.46\pic18-lt\cxx-framework\src\traditional\proc\p18f97j60.asm
                   CCPR2L   0x000fbb       data     extern E:\3.46\pic18-lt\cxx-framework\src\traditional\proc\p18f97j60.asm
                    CCPR3   0x000fb8       data     extern E:\3.46\pic18-lt\cxx-framework\src\traditional\proc\p18f97j60.asm
                   CCPR3H   0x000fb9       data     extern E:\3.46\pic18-lt\cxx-framework\src\traditional\proc\p18f97j60.asm
                   CCPR3L   0x000fb8       data     extern E:\3.46\pic18-lt\cxx-framework\src\traditional\proc\p18f97j60.asm
                    CCPR4   0x000f74       data     extern E:\3.46\pic18-lt\cxx-framework\src\traditional\proc\p18f97j60.asm
                   CCPR4H   0x000f75       data     extern E:\3.46\pic18-lt\cxx-framework\src\traditional\proc\p18f97j60.asm
                   CCPR4L   0x000f74       data     extern E:\3.46\pic18-lt\cxx-framework\src\traditional\proc\p18f97j60.asm
                    CCPR5   0x000f71       data     extern E:\3.46\pic18-lt\cxx-framework\src\traditional\proc\p18f97j60.asm
                   CCPR5H   0x000f72       data     extern E:\3.46\pic18-lt\cxx-framework\src\traditional\proc\p18f97j60.asm
                   CCPR5L   0x000f71       data     extern E:\3.46\pic18-lt\cxx-framework\src\traditional\proc\p18f97j60.asm
                      CDU   0x0003be       data     static C:\Users\FERNANDO\Documents\firmware-apb-0100\Command_Execution.c
                      CDU   0x0003d3       data     static C:\Users\FERNANDO\Documents\firmware-apb-0100\Command_Execution.c
                      CDU   0x0003c5       data     static C:\Users\FERNANDO\Documents\firmware-apb-0100\Command_Execution.c
                    CMCON   0x000fb4       data     extern E:\3.46\pic18-lt\cxx-framework\src\traditional\proc\p18f97j60.asm
                CMCONbits   0x000fb4       data     extern E:\3.46\pic18-lt\cxx-framework\src\traditional\proc\p18f97j60.asm
                CSEMAFORO   0x000cb4       data     static C:\Users\FERNANDO\Documents\firmware-apb-0100\Command_Parser.c
                     CUAL   0x00035e       data     static C:\Users\FERNANDO\Documents\firmware-apb-0100\Leds_Pwm.c
                     CUAL   0x000364       data     static C:\Users\FERNANDO\Documents\firmware-apb-0100\Leds_Pwm.c
                     CUAL   0x000366       data     static C:\Users\FERNANDO\Documents\firmware-apb-0100\Leds_Pwm.c
                   CVRCON   0x000fb5       data     extern E:\3.46\pic18-lt\cxx-framework\src\traditional\proc\p18f97j60.asm
               CVRCONbits   0x000fb5       data     extern E:\3.46\pic18-lt\cxx-framework\src\traditional\proc\p18f97j60.asm
                    Cache   0x000368       data     static C:\Users\FERNANDO\Documents\firmware-apb-0100\TCPIP_Stack\ARP.c
             CalcChecksum   0x000b00       data     static C:\Users\FERNANDO\Documents\firmware-apb-0100\TCPIP_Stack\IP.c
                 Checksum   0x000b77       data     static C:\Users\FERNANDO\Documents\firmware-apb-0100\TCPIP_Stack\ETH97J60.c
                 ChunkLen   0x000b7b       data     static C:\Users\FERNANDO\Documents\firmware-apb-0100\TCPIP_Stack\ETH97J60.c
    CurrentPacketLocation   0x000062       data     static C:\Users\FERNANDO\Documents\firmware-apb-0100\TCPIP_Stack\ETH97J60.c
                     DDRA   0x000f92       data     extern E:\3.46\pic18-lt\cxx-framework\src\traditional\proc\p18f97j60.asm
                 DDRAbits   0x000f92       data     extern E:\3.46\pic18-lt\cxx-framework\src\traditional\proc\p18f97j60.asm
                     DDRB   0x000f93       data     extern E:\3.46\pic18-lt\cxx-framework\src\traditional\proc\p18f97j60.asm
                 DDRBbits   0x000f93       data     extern E:\3.46\pic18-lt\cxx-framework\src\traditional\proc\p18f97j60.asm
                     DDRC   0x000f94       data     extern E:\3.46\pic18-lt\cxx-framework\src\traditional\proc\p18f97j60.asm
                 DDRCbits   0x000f94       data     extern E:\3.46\pic18-lt\cxx-framework\src\traditional\proc\p18f97j60.asm
                     DDRD   0x000f95       data     extern E:\3.46\pic18-lt\cxx-framework\src\traditional\proc\p18f97j60.asm
                 DDRDbits   0x000f95       data     extern E:\3.46\pic18-lt\cxx-framework\src\traditional\proc\p18f97j60.asm
                     DDRE   0x000f96       data     extern E:\3.46\pic18-lt\cxx-framework\src\traditional\proc\p18f97j60.asm
                 DDREbits   0x000f96       data     extern E:\3.46\pic18-lt\cxx-framework\src\traditional\proc\p18f97j60.asm
                     DDRF   0x000f97       data     extern E:\3.46\pic18-lt\cxx-framework\src\traditional\proc\p18f97j60.asm
                 DDRFbits   0x000f97       data     extern E:\3.46\pic18-lt\cxx-framework\src\traditional\proc\p18f97j60.asm
                     DDRG   0x000f98       data     extern E:\3.46\pic18-lt\cxx-framework\src\traditional\proc\p18f97j60.asm
                 DDRGbits   0x000f98       data     extern E:\3.46\pic18-lt\cxx-framework\src\traditional\proc\p18f97j60.asm
                     DDRH   0x000f99       data     extern E:\3.46\pic18-lt\cxx-framework\src\traditional\proc\p18f97j60.asm
                 DDRHbits   0x000f99       data     extern E:\3.46\pic18-lt\cxx-framework\src\traditional\proc\p18f97j60.asm
                     DDRJ   0x000f9a       data     extern E:\3.46\pic18-lt\cxx-framework\src\traditional\proc\p18f97j60.asm
                 DDRJbits   0x000f9a       data     extern E:\3.46\pic18-lt\cxx-framework\src\traditional\proc\p18f97j60.asm
               DHCPClient   0x0002cf       data     static C:\Users\FERNANDO\Documents\firmware-apb-0100\TCPIP_Stack\DHCP.c
DHCPClientInitializedOnce   0x00046a       data     extern C:\Users\FERNANDO\Documents\firmware-apb-0100\TCPIP_Stack\DHCP.c
          DNSAnswerHeader   0x000b2b       data     static C:\Users\FERNANDO\Documents\firmware-apb-0100\TCPIP_Stack\DNS.c
                DNSHeader   0x000b1f       data     static C:\Users\FERNANDO\Documents\firmware-apb-0100\TCPIP_Stack\DNS.c
              DNSHostName   0x000300       data     static C:\Users\FERNANDO\Documents\firmware-apb-0100\TCPIP_Stack\DNS.c
           DNSHostNameROM   0x000302       data     static C:\Users\FERNANDO\Documents\firmware-apb-0100\TCPIP_Stack\DNS.c
                     DUTY   0x000352       data     static C:\Users\FERNANDO\Documents\firmware-apb-0100\Leds_Pwm.c
                     DUTY   0x00034e       data     static C:\Users\FERNANDO\Documents\firmware-apb-0100\Leds_Pwm.c
                     DUTY   0x00034a       data     static C:\Users\FERNANDO\Documents\firmware-apb-0100\Leds_Pwm.c
                     DUTY   0x000356       data     static C:\Users\FERNANDO\Documents\firmware-apb-0100\Leds_Pwm.c
                     DUTY   0x00035a       data     static C:\Users\FERNANDO\Documents\firmware-apb-0100\Leds_Pwm.c
                     DUTY   0x000360       data     static C:\Users\FERNANDO\Documents\firmware-apb-0100\Leds_Pwm.c
                     Data   0x000092       data     static C:\Users\FERNANDO\Documents\firmware-apb-0100\TCPIP_Stack\ETH97J60.c
               DataBuffer   0x000b7d       data     static C:\Users\FERNANDO\Documents\firmware-apb-0100\TCPIP_Stack\ETH97J60.c
                  DataPtr   0x000b91       data     static C:\Users\FERNANDO\Documents\firmware-apb-0100\TCPIP_Stack\ETH97J60.c
            DelayCounter1   0x000046       data     extern E:\3.46\pic18-lt\cxx-framework\src\traditional\delays\delayd1.asm
                    Digit   0x000b01       data     static C:\Users\FERNANDO\Documents\firmware-apb-0100\TCPIP_Stack\Helpers.c
                  Divisor   0x000b03       data     static C:\Users\FERNANDO\Documents\firmware-apb-0100\TCPIP_Stack\Helpers.c
                    Dummy   0x000ba7       data     static C:\Users\FERNANDO\Documents\firmware-apb-0100\SPIRAM2.c
                    Dummy   0x000b00       data     static C:\Users\FERNANDO\Documents\firmware-apb-0100\SPIRAM2.c
                    Dummy   0x000b00       data     static C:\Users\FERNANDO\Documents\firmware-apb-0100\TCPIP_Stack\SPIRAM.c
                    Dummy   0x000b00       data     static C:\Users\FERNANDO\Documents\firmware-apb-0100\SPIRAM2.c
                    Dummy   0x000b87       data     static C:\Users\FERNANDO\Documents\firmware-apb-0100\TCPIP_Stack\SPIRAM.c
                    Dummy   0x000b87       data     static C:\Users\FERNANDO\Documents\firmware-apb-0100\TCPIP_Stack\SPIRAM.c
                    Dummy   0x000b00       data     static C:\Users\FERNANDO\Documents\firmware-apb-0100\TCPIP_Stack\SPIRAM.c
                    Dummy   0x000b06       data     static C:\Users\FERNANDO\Documents\firmware-apb-0100\SPIRAM2.c
                  ECCP1AS   0x000fb6       data     extern E:\3.46\pic18-lt\cxx-framework\src\traditional\proc\p18f97j60.asm
              ECCP1ASbits   0x000fb6       data     extern E:\3.46\pic18-lt\cxx-framework\src\traditional\proc\p18f97j60.asm
                 ECCP1CON   0x000fbd       data     extern E:\3.46\pic18-lt\cxx-framework\src\traditional\proc\p18f97j60.asm
             ECCP1CONbits   0x000fbd       data     extern E:\3.46\pic18-lt\cxx-framework\src\traditional\proc\p18f97j60.asm
                 ECCP1DEL   0x000f79       data     extern E:\3.46\pic18-lt\cxx-framework\src\traditional\proc\p18f97j60.asm
             ECCP1DELbits   0x000f79       data     extern E:\3.46\pic18-lt\cxx-framework\src\traditional\proc\p18f97j60.asm
                  ECCP2AS   0x000f68       data     extern E:\3.46\pic18-lt\cxx-framework\src\traditional\proc\p18f97j60.asm
              ECCP2ASbits   0x000f68       data     extern E:\3.46\pic18-lt\cxx-framework\src\traditional\proc\p18f97j60.asm
                 ECCP2CON   0x000fba       data     extern E:\3.46\pic18-lt\cxx-framework\src\traditional\proc\p18f97j60.asm
             ECCP2CONbits   0x000fba       data     extern E:\3.46\pic18-lt\cxx-framework\src\traditional\proc\p18f97j60.asm
                 ECCP2DEL   0x000f67       data     extern E:\3.46\pic18-lt\cxx-framework\src\traditional\proc\p18f97j60.asm
             ECCP2DELbits   0x000f67       data     extern E:\3.46\pic18-lt\cxx-framework\src\traditional\proc\p18f97j60.asm
                  ECCP3AS   0x000f6a       data     extern E:\3.46\pic18-lt\cxx-framework\src\traditional\proc\p18f97j60.asm
              ECCP3ASbits   0x000f6a       data     extern E:\3.46\pic18-lt\cxx-framework\src\traditional\proc\p18f97j60.asm
                 ECCP3CON   0x000fb7       data     extern E:\3.46\pic18-lt\cxx-framework\src\traditional\proc\p18f97j60.asm
             ECCP3CONbits   0x000fb7       data     extern E:\3.46\pic18-lt\cxx-framework\src\traditional\proc\p18f97j60.asm
                 ECCP3DEL   0x000f69       data     extern E:\3.46\pic18-lt\cxx-framework\src\traditional\proc\p18f97j60.asm
             ECCP3DELbits   0x000f69       data     extern E:\3.46\pic18-lt\cxx-framework\src\traditional\proc\p18f97j60.asm
                    ECON1   0x000fd2       data     extern E:\3.46\pic18-lt\cxx-framework\src\traditional\proc\p18f97j60.asm
                ECON1bits   0x000fd2       data     extern E:\3.46\pic18-lt\cxx-framework\src\traditional\proc\p18f97j60.asm
                    ECON2   0x000efe       data     extern E:\3.46\pic18-lt\cxx-framework\src\traditional\proc\p18f97j60.asm
                ECON2bits   0x000efe       data     extern E:\3.46\pic18-lt\cxx-framework\src\traditional\proc\p18f97j60.asm
                    EDATA   0x000f61       data     extern E:\3.46\pic18-lt\cxx-framework\src\traditional\proc\p18f97j60.asm
                EDATAbits   0x000f61       data     extern E:\3.46\pic18-lt\cxx-framework\src\traditional\proc\p18f97j60.asm
                   EDMACS   0x000ef6       data     extern E:\3.46\pic18-lt\cxx-framework\src\traditional\proc\p18f97j60.asm
                  EDMACSH   0x000ef7       data     extern E:\3.46\pic18-lt\cxx-framework\src\traditional\proc\p18f97j60.asm
                  EDMACSL   0x000ef6       data     extern E:\3.46\pic18-lt\cxx-framework\src\traditional\proc\p18f97j60.asm
                  EDMADST   0x000ef4       data     extern E:\3.46\pic18-lt\cxx-framework\src\traditional\proc\p18f97j60.asm
                 EDMADSTH   0x000ef5       data     extern E:\3.46\pic18-lt\cxx-framework\src\traditional\proc\p18f97j60.asm
                 EDMADSTL   0x000ef4       data     extern E:\3.46\pic18-lt\cxx-framework\src\traditional\proc\p18f97j60.asm
                   EDMAND   0x000ef2       data     extern E:\3.46\pic18-lt\cxx-framework\src\traditional\proc\p18f97j60.asm
                  EDMANDH   0x000ef3       data     extern E:\3.46\pic18-lt\cxx-framework\src\traditional\proc\p18f97j60.asm
                  EDMANDL   0x000ef2       data     extern E:\3.46\pic18-lt\cxx-framework\src\traditional\proc\p18f97j60.asm
                   EDMAST   0x000ef0       data     extern E:\3.46\pic18-lt\cxx-framework\src\traditional\proc\p18f97j60.asm
                  EDMASTH   0x000ef1       data     extern E:\3.46\pic18-lt\cxx-framework\src\traditional\proc\p18f97j60.asm
                  EDMASTL   0x000ef0       data     extern E:\3.46\pic18-lt\cxx-framework\src\traditional\proc\p18f97j60.asm
                   EECON1   0x000fa6       data     extern E:\3.46\pic18-lt\cxx-framework\src\traditional\proc\p18f97j60.asm
               EECON1bits   0x000fa6       data     extern E:\3.46\pic18-lt\cxx-framework\src\traditional\proc\p18f97j60.asm
                   EECON2   0x000fa7       data     extern E:\3.46\pic18-lt\cxx-framework\src\traditional\proc\p18f97j60.asm
                  EFLOCON   0x000e97       data     extern E:\3.46\pic18-lt\cxx-framework\src\traditional\proc\p18f97j60.asm
              EFLOCONbits   0x000e97       data     extern E:\3.46\pic18-lt\cxx-framework\src\traditional\proc\p18f97j60.asm
                     EHT0   0x000ec0       data     extern E:\3.46\pic18-lt\cxx-framework\src\traditional\proc\p18f97j60.asm
                     EHT1   0x000ec1       data     extern E:\3.46\pic18-lt\cxx-framework\src\traditional\proc\p18f97j60.asm
                     EHT2   0x000ec2       data     extern E:\3.46\pic18-lt\cxx-framework\src\traditional\proc\p18f97j60.asm
                     EHT3   0x000ec3       data     extern E:\3.46\pic18-lt\cxx-framework\src\traditional\proc\p18f97j60.asm
                     EHT4   0x000ec4       data     extern E:\3.46\pic18-lt\cxx-framework\src\traditional\proc\p18f97j60.asm
                     EHT5   0x000ec5       data     extern E:\3.46\pic18-lt\cxx-framework\src\traditional\proc\p18f97j60.asm
                     EHT6   0x000ec6       data     extern E:\3.46\pic18-lt\cxx-framework\src\traditional\proc\p18f97j60.asm
                     EHT7   0x000ec7       data     extern E:\3.46\pic18-lt\cxx-framework\src\traditional\proc\p18f97j60.asm
                      EIE   0x000efb       data     extern E:\3.46\pic18-lt\cxx-framework\src\traditional\proc\p18f97j60.asm
                  EIEbits   0x000efb       data     extern E:\3.46\pic18-lt\cxx-framework\src\traditional\proc\p18f97j60.asm
                      EIR   0x000f60       data     extern E:\3.46\pic18-lt\cxx-framework\src\traditional\proc\p18f97j60.asm
                  EIRbits   0x000f60       data     extern E:\3.46\pic18-lt\cxx-framework\src\traditional\proc\p18f97j60.asm
                    EPAUS   0x000e98       data     extern E:\3.46\pic18-lt\cxx-framework\src\traditional\proc\p18f97j60.asm
                   EPAUSH   0x000e99       data     extern E:\3.46\pic18-lt\cxx-framework\src\traditional\proc\p18f97j60.asm
                   EPAUSL   0x000e98       data     extern E:\3.46\pic18-lt\cxx-framework\src\traditional\proc\p18f97j60.asm
                  EPKTCNT   0x000ed9       data     extern E:\3.46\pic18-lt\cxx-framework\src\traditional\proc\p18f97j60.asm
                    EPMCS   0x000ed0       data     extern E:\3.46\pic18-lt\cxx-framework\src\traditional\proc\p18f97j60.asm
                   EPMCSH   0x000ed1       data     extern E:\3.46\pic18-lt\cxx-framework\src\traditional\proc\p18f97j60.asm
                   EPMCSL   0x000ed0       data     extern E:\3.46\pic18-lt\cxx-framework\src\traditional\proc\p18f97j60.asm
                    EPMM0   0x000ec8       data     extern E:\3.46\pic18-lt\cxx-framework\src\traditional\proc\p18f97j60.asm
                    EPMM1   0x000ec9       data     extern E:\3.46\pic18-lt\cxx-framework\src\traditional\proc\p18f97j60.asm
                    EPMM2   0x000eca       data     extern E:\3.46\pic18-lt\cxx-framework\src\traditional\proc\p18f97j60.asm
                    EPMM3   0x000ecb       data     extern E:\3.46\pic18-lt\cxx-framework\src\traditional\proc\p18f97j60.asm
                    EPMM4   0x000ecc       data     extern E:\3.46\pic18-lt\cxx-framework\src\traditional\proc\p18f97j60.asm
                    EPMM5   0x000ecd       data     extern E:\3.46\pic18-lt\cxx-framework\src\traditional\proc\p18f97j60.asm
                    EPMM6   0x000ece       data     extern E:\3.46\pic18-lt\cxx-framework\src\traditional\proc\p18f97j60.asm
                    EPMM7   0x000ecf       data     extern E:\3.46\pic18-lt\cxx-framework\src\traditional\proc\p18f97j60.asm
                     EPMO   0x000ed4       data     extern E:\3.46\pic18-lt\cxx-framework\src\traditional\proc\p18f97j60.asm
                    EPMOH   0x000ed5       data     extern E:\3.46\pic18-lt\cxx-framework\src\traditional\proc\p18f97j60.asm
                    EPMOL   0x000ed4       data     extern E:\3.46\pic18-lt\cxx-framework\src\traditional\proc\p18f97j60.asm
                    ERDPT   0x000f7a       data     extern E:\3.46\pic18-lt\cxx-framework\src\traditional\proc\p18f97j60.asm
                   ERDPTH   0x000f7b       data     extern E:\3.46\pic18-lt\cxx-framework\src\traditional\proc\p18f97j60.asm
                   ERDPTL   0x000f7a       data     extern E:\3.46\pic18-lt\cxx-framework\src\traditional\proc\p18f97j60.asm
                  ERXFCON   0x000ed8       data     extern E:\3.46\pic18-lt\cxx-framework\src\traditional\proc\p18f97j60.asm
              ERXFCONbits   0x000ed8       data     extern E:\3.46\pic18-lt\cxx-framework\src\traditional\proc\p18f97j60.asm
                    ERXND   0x000eea       data     extern E:\3.46\pic18-lt\cxx-framework\src\traditional\proc\p18f97j60.asm
                   ERXNDH   0x000eeb       data     extern E:\3.46\pic18-lt\cxx-framework\src\traditional\proc\p18f97j60.asm
                   ERXNDL   0x000eea       data     extern E:\3.46\pic18-lt\cxx-framework\src\traditional\proc\p18f97j60.asm
                  ERXRDPT   0x000eec       data     extern E:\3.46\pic18-lt\cxx-framework\src\traditional\proc\p18f97j60.asm
                 ERXRDPTH   0x000eed       data     extern E:\3.46\pic18-lt\cxx-framework\src\traditional\proc\p18f97j60.asm
                 ERXRDPTL   0x000eec       data     extern E:\3.46\pic18-lt\cxx-framework\src\traditional\proc\p18f97j60.asm
                    ERXST   0x000ee8       data     extern E:\3.46\pic18-lt\cxx-framework\src\traditional\proc\p18f97j60.asm
                   ERXSTH   0x000ee9       data     extern E:\3.46\pic18-lt\cxx-framework\src\traditional\proc\p18f97j60.asm
                   ERXSTL   0x000ee8       data     extern E:\3.46\pic18-lt\cxx-framework\src\traditional\proc\p18f97j60.asm
                  ERXWRPT   0x000eee       data     extern E:\3.46\pic18-lt\cxx-framework\src\traditional\proc\p18f97j60.asm
                 ERXWRPTH   0x000eef       data     extern E:\3.46\pic18-lt\cxx-framework\src\traditional\proc\p18f97j60.asm
                 ERXWRPTL   0x000eee       data     extern E:\3.46\pic18-lt\cxx-framework\src\traditional\proc\p18f97j60.asm
                    ESTAT   0x000efd       data     extern E:\3.46\pic18-lt\cxx-framework\src\traditional\proc\p18f97j60.asm
                ESTATbits   0x000efd       data     extern E:\3.46\pic18-lt\cxx-framework\src\traditional\proc\p18f97j60.asm
                    ETXND   0x000ee6       data     extern E:\3.46\pic18-lt\cxx-framework\src\traditional\proc\p18f97j60.asm
                   ETXNDH   0x000ee7       data     extern E:\3.46\pic18-lt\cxx-framework\src\traditional\proc\p18f97j60.asm
                   ETXNDL   0x000ee6       data     extern E:\3.46\pic18-lt\cxx-framework\src\traditional\proc\p18f97j60.asm
                    ETXST   0x000ee4       data     extern E:\3.46\pic18-lt\cxx-framework\src\traditional\proc\p18f97j60.asm
                   ETXSTH   0x000ee5       data     extern E:\3.46\pic18-lt\cxx-framework\src\traditional\proc\p18f97j60.asm
                   ETXSTL   0x000ee4       data     extern E:\3.46\pic18-lt\cxx-framework\src\traditional\proc\p18f97j60.asm
                    EWRPT   0x000ee2       data     extern E:\3.46\pic18-lt\cxx-framework\src\traditional\proc\p18f97j60.asm
                   EWRPTH   0x000ee3       data     extern E:\3.46\pic18-lt\cxx-framework\src\traditional\proc\p18f97j60.asm
                   EWRPTL   0x000ee2       data     extern E:\3.46\pic18-lt\cxx-framework\src\traditional\proc\p18f97j60.asm
                     FSR0   0x000fe9       data     extern E:\3.46\pic18-lt\cxx-framework\src\traditional\proc\p18f97j60.asm
                    FSR0H   0x000fea       data     extern E:\3.46\pic18-lt\cxx-framework\src\traditional\proc\p18f97j60.asm
                    FSR0L   0x000fe9       data     extern E:\3.46\pic18-lt\cxx-framework\src\traditional\proc\p18f97j60.asm
                     FSR1   0x000fe1       data     extern E:\3.46\pic18-lt\cxx-framework\src\traditional\proc\p18f97j60.asm
                    FSR1H   0x000fe2       data     extern E:\3.46\pic18-lt\cxx-framework\src\traditional\proc\p18f97j60.asm
                    FSR1L   0x000fe1       data     extern E:\3.46\pic18-lt\cxx-framework\src\traditional\proc\p18f97j60.asm
                     FSR2   0x000fd9       data     extern E:\3.46\pic18-lt\cxx-framework\src\traditional\proc\p18f97j60.asm
                    FSR2H   0x000fda       data     extern E:\3.46\pic18-lt\cxx-framework\src\traditional\proc\p18f97j60.asm
                    FSR2L   0x000fd9       data     extern E:\3.46\pic18-lt\cxx-framework\src\traditional\proc\p18f97j60.asm
                    Flags   0x000f5e       data     static C:\Users\FERNANDO\Documents\firmware-apb-0100\TCPIP_Stack\DNS.c
                    Flags   0x0001c1       data     static C:\Users\FERNANDO\Documents\firmware-apb-0100\TCPIP_Stack\UDP.c
                  GIESave   0x000b00       data     static C:\Users\FERNANDO\Documents\firmware-apb-0100\TCPIP_Stack\ETH97J60.c
   GenericTCPExampleState   0x000f4e       data     static C:\Users\FERNANDO\Documents\firmware-apb-0100\GenericTCPClient.c
                   HostIP   0x000317       data     static C:\Users\FERNANDO\Documents\firmware-apb-0100\TCPIP_Stack\DNS.c
                 Hostname   0x000310       data     static C:\Users\FERNANDO\Documents\firmware-apb-0100\TCPIP_Stack\DNS.c
                 Hostname   0x000313       data     static C:\Users\FERNANDO\Documents\firmware-apb-0100\TCPIP_Stack\DNS.c
                    INDF0   0x000fef       data     extern E:\3.46\pic18-lt\cxx-framework\src\traditional\proc\p18f97j60.asm
                    INDF1   0x000fe7       data     extern E:\3.46\pic18-lt\cxx-framework\src\traditional\proc\p18f97j60.asm
                    INDF2   0x000fdf       data     extern E:\3.46\pic18-lt\cxx-framework\src\traditional\proc\p18f97j60.asm
                   INTCON   0x000ff2       data     extern E:\3.46\pic18-lt\cxx-framework\src\traditional\proc\p18f97j60.asm
                  INTCON2   0x000ff1       data     extern E:\3.46\pic18-lt\cxx-framework\src\traditional\proc\p18f97j60.asm
              INTCON2bits   0x000ff1       data     extern E:\3.46\pic18-lt\cxx-framework\src\traditional\proc\p18f97j60.asm
                  INTCON3   0x000ff0       data     extern E:\3.46\pic18-lt\cxx-framework\src\traditional\proc\p18f97j60.asm
              INTCON3bits   0x000ff0       data     extern E:\3.46\pic18-lt\cxx-framework\src\traditional\proc\p18f97j60.asm
               INTCONbits   0x000ff2       data     extern E:\3.46\pic18-lt\cxx-framework\src\traditional\proc\p18f97j60.asm
                   IPAddr   0x000380       data     static C:\Users\FERNANDO\Documents\firmware-apb-0100\TCPIP_Stack\ARP.c
                   IPAddr   0x00037e       data     static C:\Users\FERNANDO\Documents\firmware-apb-0100\TCPIP_Stack\ARP.c
                IPAddress   0x000e47       data     static C:\Users\FERNANDO\Documents\firmware-apb-0100\TCPIP_Stack\Helpers.c
                IPAddress   0x000e42       data     static C:\Users\FERNANDO\Documents\firmware-apb-0100\TCPIP_Stack\Helpers.c
              IPHeaderLen   0x000400       data     static C:\Users\FERNANDO\Documents\firmware-apb-0100\TCPIP_Stack\IP.c
                     IPR1   0x000f9f       data     extern E:\3.46\pic18-lt\cxx-framework\src\traditional\proc\p18f97j60.asm
                 IPR1bits   0x000f9f       data     extern E:\3.46\pic18-lt\cxx-framework\src\traditional\proc\p18f97j60.asm
                     IPR2   0x000fa2       data     extern E:\3.46\pic18-lt\cxx-framework\src\traditional\proc\p18f97j60.asm
                 IPR2bits   0x000fa2       data     extern E:\3.46\pic18-lt\cxx-framework\src\traditional\proc\p18f97j60.asm
                     IPR3   0x000fa5       data     extern E:\3.46\pic18-lt\cxx-framework\src\traditional\proc\p18f97j60.asm
                 IPR3bits   0x000fa5       data     extern E:\3.46\pic18-lt\cxx-framework\src\traditional\proc\p18f97j60.asm
               KEEP_ALIVE   0x000f42       data     extern C:\Users\FERNANDO\Documents\firmware-apb-0100\GenericTCPClient.c
                     LATA   0x000f89       data     extern E:\3.46\pic18-lt\cxx-framework\src\traditional\proc\p18f97j60.asm
                 LATAbits   0x000f89       data     extern E:\3.46\pic18-lt\cxx-framework\src\traditional\proc\p18f97j60.asm
                     LATB   0x000f8a       data     extern E:\3.46\pic18-lt\cxx-framework\src\traditional\proc\p18f97j60.asm
                 LATBbits   0x000f8a       data     extern E:\3.46\pic18-lt\cxx-framework\src\traditional\proc\p18f97j60.asm
                     LATC   0x000f8b       data     extern E:\3.46\pic18-lt\cxx-framework\src\traditional\proc\p18f97j60.asm
                 LATCbits   0x000f8b       data     extern E:\3.46\pic18-lt\cxx-framework\src\traditional\proc\p18f97j60.asm
                     LATD   0x000f8c       data     extern E:\3.46\pic18-lt\cxx-framework\src\traditional\proc\p18f97j60.asm
                 LATDbits   0x000f8c       data     extern E:\3.46\pic18-lt\cxx-framework\src\traditional\proc\p18f97j60.asm
                     LATE   0x000f8d       data     extern E:\3.46\pic18-lt\cxx-framework\src\traditional\proc\p18f97j60.asm
                 LATEbits   0x000f8d       data     extern E:\3.46\pic18-lt\cxx-framework\src\traditional\proc\p18f97j60.asm
                     LATF   0x000f8e       data     extern E:\3.46\pic18-lt\cxx-framework\src\traditional\proc\p18f97j60.asm
                 LATFbits   0x000f8e       data     extern E:\3.46\pic18-lt\cxx-framework\src\traditional\proc\p18f97j60.asm
                     LATG   0x000f8f       data     extern E:\3.46\pic18-lt\cxx-framework\src\traditional\proc\p18f97j60.asm
                 LATGbits   0x000f8f       data     extern E:\3.46\pic18-lt\cxx-framework\src\traditional\proc\p18f97j60.asm
                     LATH   0x000f90       data     extern E:\3.46\pic18-lt\cxx-framework\src\traditional\proc\p18f97j60.asm
                 LATHbits   0x000f90       data     extern E:\3.46\pic18-lt\cxx-framework\src\traditional\proc\p18f97j60.asm
                     LATJ   0x000f91       data     extern E:\3.46\pic18-lt\cxx-framework\src\traditional\proc\p18f97j60.asm
                 LATJbits   0x000f91       data     extern E:\3.46\pic18-lt\cxx-framework\src\traditional\proc\p18f97j60.asm
            LastPutSocket   0x000461       data     static C:\Users\FERNANDO\Documents\firmware-apb-0100\TCPIP_Stack\UDP.c
                      Len   0x000b03       data     static C:\Users\FERNANDO\Documents\firmware-apb-0100\TCPIP_Stack\DNS.c
                      Len   0x000b04       data     static C:\Users\FERNANDO\Documents\firmware-apb-0100\TCPIP_Stack\DNS.c
                   MAADR1   0x000e84       data     extern E:\3.46\pic18-lt\cxx-framework\src\traditional\proc\p18f97j60.asm
                   MAADR2   0x000e85       data     extern E:\3.46\pic18-lt\cxx-framework\src\traditional\proc\p18f97j60.asm
                   MAADR3   0x000e82       data     extern E:\3.46\pic18-lt\cxx-framework\src\traditional\proc\p18f97j60.asm
                   MAADR4   0x000e83       data     extern E:\3.46\pic18-lt\cxx-framework\src\traditional\proc\p18f97j60.asm
                   MAADR5   0x000e80       data     extern E:\3.46\pic18-lt\cxx-framework\src\traditional\proc\p18f97j60.asm
                   MAADR6   0x000e81       data     extern E:\3.46\pic18-lt\cxx-framework\src\traditional\proc\p18f97j60.asm
                  MABBIPG   0x000ea4       data     extern E:\3.46\pic18-lt\cxx-framework\src\traditional\proc\p18f97j60.asm
              MABBIPGbits   0x000ea4       data     extern E:\3.46\pic18-lt\cxx-framework\src\traditional\proc\p18f97j60.asm
                  MACAddr   0x000382       data     static C:\Users\FERNANDO\Documents\firmware-apb-0100\TCPIP_Stack\ARP.c
                   MACON1   0x000ea0       data     extern E:\3.46\pic18-lt\cxx-framework\src\traditional\proc\p18f97j60.asm
               MACON1bits   0x000ea0       data     extern E:\3.46\pic18-lt\cxx-framework\src\traditional\proc\p18f97j60.asm
                   MACON3   0x000ea2       data     extern E:\3.46\pic18-lt\cxx-framework\src\traditional\proc\p18f97j60.asm
               MACON3bits   0x000ea2       data     extern E:\3.46\pic18-lt\cxx-framework\src\traditional\proc\p18f97j60.asm
                   MACON4   0x000ea3       data     extern E:\3.46\pic18-lt\cxx-framework\src\traditional\proc\p18f97j60.asm
               MACON4bits   0x000ea3       data     extern E:\3.46\pic18-lt\cxx-framework\src\traditional\proc\p18f97j60.asm
                    MAIPG   0x000ea6       data     extern E:\3.46\pic18-lt\cxx-framework\src\traditional\proc\p18f97j60.asm
                   MAIPGH   0x000ea7       data     extern E:\3.46\pic18-lt\cxx-framework\src\traditional\proc\p18f97j60.asm
                   MAIPGL   0x000ea6       data     extern E:\3.46\pic18-lt\cxx-framework\src\traditional\proc\p18f97j60.asm
                   MAMXFL   0x000eaa       data     extern E:\3.46\pic18-lt\cxx-framework\src\traditional\proc\p18f97j60.asm
                  MAMXFLH   0x000eab       data     extern E:\3.46\pic18-lt\cxx-framework\src\traditional\proc\p18f97j60.asm
                  MAMXFLL   0x000eaa       data     extern E:\3.46\pic18-lt\cxx-framework\src\traditional\proc\p18f97j60.asm
                   MEMCON   0x000f9c       data     extern E:\3.46\pic18-lt\cxx-framework\src\traditional\proc\p18f97j60.asm
               MEMCONbits   0x000f9c       data     extern E:\3.46\pic18-lt\cxx-framework\src\traditional\proc\p18f97j60.asm
                 MEM_TEMP   0x000c00       data     static C:\Users\FERNANDO\Documents\firmware-apb-0100\Command_Parser.c
                 MEM_TEMP   0x000c61       data     static C:\Users\FERNANDO\Documents\firmware-apb-0100\Command_Execution.c
                 MEM_TEMP   0x000c61       data     static C:\Users\FERNANDO\Documents\firmware-apb-0100\Command_Execution.c
                    MICMD   0x000eb2       data     extern E:\3.46\pic18-lt\cxx-framework\src\traditional\proc\p18f97j60.asm
                MICMDbits   0x000eb2       data     extern E:\3.46\pic18-lt\cxx-framework\src\traditional\proc\p18f97j60.asm
                     MIRD   0x000eb8       data     extern E:\3.46\pic18-lt\cxx-framework\src\traditional\proc\p18f97j60.asm
                    MIRDH   0x000eb9       data     extern E:\3.46\pic18-lt\cxx-framework\src\traditional\proc\p18f97j60.asm
                    MIRDL   0x000eb8       data     extern E:\3.46\pic18-lt\cxx-framework\src\traditional\proc\p18f97j60.asm
                 MIREGADR   0x000eb4       data     extern E:\3.46\pic18-lt\cxx-framework\src\traditional\proc\p18f97j60.asm
                   MISTAT   0x000e8a       data     extern E:\3.46\pic18-lt\cxx-framework\src\traditional\proc\p18f97j60.asm
               MISTATbits   0x000e8a       data     extern E:\3.46\pic18-lt\cxx-framework\src\traditional\proc\p18f97j60.asm
                     MIWR   0x000eb6       data     extern E:\3.46\pic18-lt\cxx-framework\src\traditional\proc\p18f97j60.asm
                    MIWRH   0x000eb7       data     extern E:\3.46\pic18-lt\cxx-framework\src\traditional\proc\p18f97j60.asm
                    MIWRL   0x000eb6       data     extern E:\3.46\pic18-lt\cxx-framework\src\traditional\proc\p18f97j60.asm
                      MUX   0x000f1d       data     extern C:\Users\FERNANDO\Documents\firmware-apb-0100\GenericTCPClient.c
                     MyIP   0x000b1d       data     static C:\Users\FERNANDO\Documents\firmware-apb-0100\TCPIP_Stack\DHCP.c
                 MySocket   0x0003cf       data     static C:\Users\FERNANDO\Documents\firmware-apb-0100\Command_Execution.c
                 MySocket   0x000e7b       data     static C:\Users\FERNANDO\Documents\firmware-apb-0100\MP3Client.c
                 MySocket   0x0003cc       data     static C:\Users\FERNANDO\Documents\firmware-apb-0100\Command_Execution.c
                 MySocket   0x000b74       data     static C:\Users\FERNANDO\Documents\firmware-apb-0100\Command_Execution.c
                 MySocket   0x0003d2       data     static C:\Users\FERNANDO\Documents\firmware-apb-0100\Command_Execution.c
                 MySocket   0x0003d7       data     static C:\Users\FERNANDO\Documents\firmware-apb-0100\Command_Execution.c
                 MySocket   0x0003c9       data     static C:\Users\FERNANDO\Documents\firmware-apb-0100\Command_Execution.c
                 MySocket   0x000f5d       data     static C:\Users\FERNANDO\Documents\firmware-apb-0100\TCPIP_Stack\DNS.c
                 MySocket   0x0003bd       data     static C:\Users\FERNANDO\Documents\firmware-apb-0100\Command_Execution.c
                 MySocket   0x0003c4       data     static C:\Users\FERNANDO\Documents\firmware-apb-0100\Command_Execution.c
                MySocket2   0x0003b8       data     static C:\Users\FERNANDO\Documents\firmware-apb-0100\Command_Parser.c
                    MyTCB   0x000202       data     static C:\Users\FERNANDO\Documents\firmware-apb-0100\TCPIP_Stack\TCP.c
                MyTCBStub   0x000229       data     static C:\Users\FERNANDO\Documents\firmware-apb-0100\TCPIP_Stack\TCP.c
                My_Socket   0x000f4d       data     static C:\Users\FERNANDO\Documents\firmware-apb-0100\GenericTCPClient.c
                My_Socket   0x000c60       data     static C:\Users\FERNANDO\Documents\firmware-apb-0100\Command_Parser.c
                NO_GRABAR   0x000f22       data     extern C:\Users\FERNANDO\Documents\firmware-apb-0100\GenericTCPClient.c
                     Name   0x000e69       data     static C:\Users\FERNANDO\Documents\firmware-apb-0100\TCPIP_Stack\Helpers.c
          NewRXRDLocation   0x000b3a       data     static C:\Users\FERNANDO\Documents\firmware-apb-0100\TCPIP_Stack\ETH97J60.c
       NextPacketLocation   0x000060       data     static C:\Users\FERNANDO\Documents\firmware-apb-0100\TCPIP_Stack\ETH97J60.c
                 NextPort   0x000200       data     static C:\Users\FERNANDO\Documents\firmware-apb-0100\TCPIP_Stack\TCP.c
                 NextPort   0x0001cb       data     static C:\Users\FERNANDO\Documents\firmware-apb-0100\TCPIP_Stack\UDP.c
                   OSCCON   0x000fd3       data     extern E:\3.46\pic18-lt\cxx-framework\src\traditional\proc\p18f97j60.asm
               OSCCONbits   0x000fd3       data     extern E:\3.46\pic18-lt\cxx-framework\src\traditional\proc\p18f97j60.asm
                  OSCTUNE   0x000f9b       data     extern E:\3.46\pic18-lt\cxx-framework\src\traditional\proc\p18f97j60.asm
              OSCTUNEbits   0x000f9b       data     extern E:\3.46\pic18-lt\cxx-framework\src\traditional\proc\p18f97j60.asm
                   Offset   0x00040e       data     static C:\Users\FERNANDO\Documents\firmware-apb-0100\TCPIP_Stack\IP.c
                  Openned   0x000e7a       data     static C:\Users\FERNANDO\Documents\firmware-apb-0100\MP3Client.c
                       PC   0x000ff9       data     extern E:\3.46\pic18-lt\cxx-framework\src\traditional\proc\p18f97j60.asm
                      PCL   0x000ff9       data     extern E:\3.46\pic18-lt\cxx-framework\src\traditional\proc\p18f97j60.asm
                   PCLATH   0x000ffa       data     extern E:\3.46\pic18-lt\cxx-framework\src\traditional\proc\p18f97j60.asm
                   PCLATU   0x000ffb       data     extern E:\3.46\pic18-lt\cxx-framework\src\traditional\proc\p18f97j60.asm
         PERSONA_ATRAPADA   0x000f15       data     extern C:\Users\FERNANDO\Documents\firmware-apb-0100\GenericTCPClient.c
                     PIE1   0x000f9d       data     extern E:\3.46\pic18-lt\cxx-framework\src\traditional\proc\p18f97j60.asm
                 PIE1bits   0x000f9d       data     extern E:\3.46\pic18-lt\cxx-framework\src\traditional\proc\p18f97j60.asm
                     PIE2   0x000fa0       data     extern E:\3.46\pic18-lt\cxx-framework\src\traditional\proc\p18f97j60.asm
                 PIE2bits   0x000fa0       data     extern E:\3.46\pic18-lt\cxx-framework\src\traditional\proc\p18f97j60.asm
                     PIE3   0x000fa3       data     extern E:\3.46\pic18-lt\cxx-framework\src\traditional\proc\p18f97j60.asm
                 PIE3bits   0x000fa3       data     extern E:\3.46\pic18-lt\cxx-framework\src\traditional\proc\p18f97j60.asm
                     PIR1   0x000f9e       data     extern E:\3.46\pic18-lt\cxx-framework\src\traditional\proc\p18f97j60.asm
                 PIR1bits   0x000f9e       data     extern E:\3.46\pic18-lt\cxx-framework\src\traditional\proc\p18f97j60.asm
                     PIR2   0x000fa1       data     extern E:\3.46\pic18-lt\cxx-framework\src\traditional\proc\p18f97j60.asm
                 PIR2bits   0x000fa1       data     extern E:\3.46\pic18-lt\cxx-framework\src\traditional\proc\p18f97j60.asm
                     PIR3   0x000fa4       data     extern E:\3.46\pic18-lt\cxx-framework\src\traditional\proc\p18f97j60.asm
                 PIR3bits   0x000fa4       data     extern E:\3.46\pic18-lt\cxx-framework\src\traditional\proc\p18f97j60.asm
                   PLUSW0   0x000feb       data     extern E:\3.46\pic18-lt\cxx-framework\src\traditional\proc\p18f97j60.asm
                   PLUSW1   0x000fe3       data     extern E:\3.46\pic18-lt\cxx-framework\src\traditional\proc\p18f97j60.asm
                   PLUSW2   0x000fdb       data     extern E:\3.46\pic18-lt\cxx-framework\src\traditional\proc\p18f97j60.asm
                    PORTA   0x000f80       data     extern E:\3.46\pic18-lt\cxx-framework\src\traditional\proc\p18f97j60.asm
                PORTAbits   0x000f80       data     extern E:\3.46\pic18-lt\cxx-framework\src\traditional\proc\p18f97j60.asm
                    PORTB   0x000f81       data     extern E:\3.46\pic18-lt\cxx-framework\src\traditional\proc\p18f97j60.asm
                PORTBbits   0x000f81       data     extern E:\3.46\pic18-lt\cxx-framework\src\traditional\proc\p18f97j60.asm
                    PORTC   0x000f82       data     extern E:\3.46\pic18-lt\cxx-framework\src\traditional\proc\p18f97j60.asm
                PORTCbits   0x000f82       data     extern E:\3.46\pic18-lt\cxx-framework\src\traditional\proc\p18f97j60.asm
                    PORTD   0x000f83       data     extern E:\3.46\pic18-lt\cxx-framework\src\traditional\proc\p18f97j60.asm
                PORTDbits   0x000f83       data     extern E:\3.46\pic18-lt\cxx-framework\src\traditional\proc\p18f97j60.asm
                    PORTE   0x000f84       data     extern E:\3.46\pic18-lt\cxx-framework\src\traditional\proc\p18f97j60.asm
                PORTEbits   0x000f84       data     extern E:\3.46\pic18-lt\cxx-framework\src\traditional\proc\p18f97j60.asm
                    PORTF   0x000f85       data     extern E:\3.46\pic18-lt\cxx-framework\src\traditional\proc\p18f97j60.asm
                PORTFbits   0x000f85       data     extern E:\3.46\pic18-lt\cxx-framework\src\traditional\proc\p18f97j60.asm
                    PORTG   0x000f86       data     extern E:\3.46\pic18-lt\cxx-framework\src\traditional\proc\p18f97j60.asm
                PORTGbits   0x000f86       data     extern E:\3.46\pic18-lt\cxx-framework\src\traditional\proc\p18f97j60.asm
                    PORTH   0x000f87       data     extern E:\3.46\pic18-lt\cxx-framework\src\traditional\proc\p18f97j60.asm
                PORTHbits   0x000f87       data     extern E:\3.46\pic18-lt\cxx-framework\src\traditional\proc\p18f97j60.asm
                    PORTJ   0x000f88       data     extern E:\3.46\pic18-lt\cxx-framework\src\traditional\proc\p18f97j60.asm
                PORTJbits   0x000f88       data     extern E:\3.46\pic18-lt\cxx-framework\src\traditional\proc\p18f97j60.asm
                 POSTDEC0   0x000fed       data     extern E:\3.46\pic18-lt\cxx-framework\src\traditional\proc\p18f97j60.asm
                 POSTDEC1   0x000fe5       data     extern E:\3.46\pic18-lt\cxx-framework\src\traditional\proc\p18f97j60.asm
                 POSTDEC2   0x000fdd       data     extern E:\3.46\pic18-lt\cxx-framework\src\traditional\proc\p18f97j60.asm
                 POSTINC0   0x000fee       data     extern E:\3.46\pic18-lt\cxx-framework\src\traditional\proc\p18f97j60.asm
                 POSTINC1   0x000fe6       data     extern E:\3.46\pic18-lt\cxx-framework\src\traditional\proc\p18f97j60.asm
                 POSTINC2   0x000fde       data     extern E:\3.46\pic18-lt\cxx-framework\src\traditional\proc\p18f97j60.asm
                      PR2   0x000fcb       data     extern E:\3.46\pic18-lt\cxx-framework\src\traditional\proc\p18f97j60.asm
                      PR4   0x000f77       data     extern E:\3.46\pic18-lt\cxx-framework\src\traditional\proc\p18f97j60.asm
                  PREINC0   0x000fec       data     extern E:\3.46\pic18-lt\cxx-framework\src\traditional\proc\p18f97j60.asm
                  PREINC1   0x000fe4       data     extern E:\3.46\pic18-lt\cxx-framework\src\traditional\proc\p18f97j60.asm
                  PREINC2   0x000fdc       data     extern E:\3.46\pic18-lt\cxx-framework\src\traditional\proc\p18f97j60.asm
                     PROD   0x000ff3       data     extern E:\3.46\pic18-lt\cxx-framework\src\traditional\proc\p18f97j60.asm
                    PRODH   0x000ff4       data     extern E:\3.46\pic18-lt\cxx-framework\src\traditional\proc\p18f97j60.asm
                    PRODL   0x000ff3       data     extern E:\3.46\pic18-lt\cxx-framework\src\traditional\proc\p18f97j60.asm
                   PSPCON   0x000fb0       data     extern E:\3.46\pic18-lt\cxx-framework\src\traditional\proc\p18f97j60.asm
               PSPCONbits   0x000fb0       data     extern E:\3.46\pic18-lt\cxx-framework\src\traditional\proc\p18f97j60.asm
           PWM_DUTY_D_MIN   0x0000b4       data     extern C:\Users\FERNANDO\Documents\firmware-apb-0100\Command_Parser.c
           PWM_DUTY_N_MAX   0x0000be       data     extern C:\Users\FERNANDO\Documents\firmware-apb-0100\Command_Parser.c
               PWM_DUTY_R   0x0000aa       data     extern C:\Users\FERNANDO\Documents\firmware-apb-0100\Command_Parser.c
        PWM_ON_OFF_P_DN_R   0x000094       data     extern C:\Users\FERNANDO\Documents\firmware-apb-0100\Command_Parser.c
   PWM_ON_OFF_P_DN_R_TEMP   0x0003a2       data     extern C:\Users\FERNANDO\Documents\firmware-apb-0100\Command_Parser.c
               P_Atrapada   0x0003ca       data     static C:\Users\FERNANDO\Documents\firmware-apb-0100\Command_Execution.c
                  Play_IR   0x000e79       data     extern C:\Users\FERNANDO\Documents\firmware-apb-0100\MP3Client.c
                  Printed   0x000b05       data     static C:\Users\FERNANDO\Documents\firmware-apb-0100\TCPIP_Stack\Helpers.c
                     RCON   0x000fd0       data     extern E:\3.46\pic18-lt\cxx-framework\src\traditional\proc\p18f97j60.asm
                 RCONbits   0x000fd0       data     extern E:\3.46\pic18-lt\cxx-framework\src\traditional\proc\p18f97j60.asm
                    RCREG   0x000fae       data     extern E:\3.46\pic18-lt\cxx-framework\src\traditional\proc\p18f97j60.asm
                   RCREG1   0x000fae       data     extern E:\3.46\pic18-lt\cxx-framework\src\traditional\proc\p18f97j60.asm
                   RCREG2   0x000f6e       data     extern E:\3.46\pic18-lt\cxx-framework\src\traditional\proc\p18f97j60.asm
                    RCSTA   0x000fab       data     extern E:\3.46\pic18-lt\cxx-framework\src\traditional\proc\p18f97j60.asm
                   RCSTA1   0x000fab       data     extern E:\3.46\pic18-lt\cxx-framework\src\traditional\proc\p18f97j60.asm
               RCSTA1bits   0x000fab       data     extern E:\3.46\pic18-lt\cxx-framework\src\traditional\proc\p18f97j60.asm
                   RCSTA2   0x000f6b       data     extern E:\3.46\pic18-lt\cxx-framework\src\traditional\proc\p18f97j60.asm
               RCSTA2bits   0x000f6b       data     extern E:\3.46\pic18-lt\cxx-framework\src\traditional\proc\p18f97j60.asm
                RCSTAbits   0x000fab       data     extern E:\3.46\pic18-lt\cxx-framework\src\traditional\proc\p18f97j60.asm
                   RDSave   0x000b18       data     static C:\Users\FERNANDO\Documents\firmware-apb-0100\TCPIP_Stack\ETH97J60.c
                   ReadPT   0x000b75       data     static C:\Users\FERNANDO\Documents\firmware-apb-0100\TCPIP_Stack\ETH97J60.c
                   ReadPT   0x000b3a       data     static C:\Users\FERNANDO\Documents\firmware-apb-0100\TCPIP_Stack\ETH97J60.c
                 ReadSave   0x000b87       data     static C:\Users\FERNANDO\Documents\firmware-apb-0100\TCPIP_Stack\ETH97J60.c
               RecordType   0x000305       data     static C:\Users\FERNANDO\Documents\firmware-apb-0100\TCPIP_Stack\DNS.c
                 Register   0x000091       data     static C:\Users\FERNANDO\Documents\firmware-apb-0100\TCPIP_Stack\ETH97J60.c
                 Register   0x000090       data     static C:\Users\FERNANDO\Documents\firmware-apb-0100\TCPIP_Stack\ETH97J60.c
               RemoteInfo   0x000253       data     static C:\Users\FERNANDO\Documents\firmware-apb-0100\TCPIP_Stack\TCP.c
             ResolvedInfo   0x000306       data     static C:\Users\FERNANDO\Documents\firmware-apb-0100\TCPIP_Stack\DNS.c
                   Result   0x000b00       data     static C:\Users\FERNANDO\Documents\firmware-apb-0100\TCPIP_Stack\ETH97J60.c
                 RightLen   0x000b32       data     static C:\Users\FERNANDO\Documents\firmware-apb-0100\TCPIP_Stack\TCP.c
                 RightPtr   0x000b00       data     static C:\Users\FERNANDO\Documents\firmware-apb-0100\TCPIP_Stack\DNS.c
                 RightPtr   0x000b00       data     static C:\Users\FERNANDO\Documents\firmware-apb-0100\TCPIP_Stack\DNS.c
                 RxBuffer   0x000f24       data     extern C:\Users\FERNANDO\Documents\firmware-apb-0100\GenericTCPClient.c
                     SIGN   0x000020       data     extern E:\3.46\pic18-lt\cxx-framework\src\traditional\math\cmath18.asm
                    SPBRG   0x000faf       data     extern E:\3.46\pic18-lt\cxx-framework\src\traditional\proc\p18f97j60.asm
                   SPBRG1   0x000faf       data     extern E:\3.46\pic18-lt\cxx-framework\src\traditional\proc\p18f97j60.asm
                   SPBRG2   0x000f6f       data     extern E:\3.46\pic18-lt\cxx-framework\src\traditional\proc\p18f97j60.asm
                   SPBRGH   0x000f7f       data     extern E:\3.46\pic18-lt\cxx-framework\src\traditional\proc\p18f97j60.asm
                  SPBRGH1   0x000f7f       data     extern E:\3.46\pic18-lt\cxx-framework\src\traditional\proc\p18f97j60.asm
                  SPBRGH2   0x000f7d       data     extern E:\3.46\pic18-lt\cxx-framework\src\traditional\proc\p18f97j60.asm
              SPICON1Save   0x000b89       data     static C:\Users\FERNANDO\Documents\firmware-apb-0100\TCPIP_Stack\SPIRAM.c
              SPICON1Save   0x000ba8       data     static C:\Users\FERNANDO\Documents\firmware-apb-0100\SPIRAM2.c
              SPICON1Save   0x000b89       data     static C:\Users\FERNANDO\Documents\firmware-apb-0100\TCPIP_Stack\SPIRAM.c
              SPICON1Save   0x000b01       data     static C:\Users\FERNANDO\Documents\firmware-apb-0100\SPIRAM2.c
              SPICON1Save   0x000b02       data     static C:\Users\FERNANDO\Documents\firmware-apb-0100\TCPIP_Stack\SPIRAM.c
              SPICON1Save   0x000b01       data     static C:\Users\FERNANDO\Documents\firmware-apb-0100\SPIRAM2.c
              SPICON1Save   0x000b02       data     static C:\Users\FERNANDO\Documents\firmware-apb-0100\TCPIP_Stack\SPIRAM.c
              SPICON1Save   0x000b07       data     static C:\Users\FERNANDO\Documents\firmware-apb-0100\SPIRAM2.c
                  SSP1ADD   0x000fc8       data     extern E:\3.46\pic18-lt\cxx-framework\src\traditional\proc\p18f97j60.asm
                  SSP1BUF   0x000fc9       data     extern E:\3.46\pic18-lt\cxx-framework\src\traditional\proc\p18f97j60.asm
                 SSP1CON1   0x000fc6       data     extern E:\3.46\pic18-lt\cxx-framework\src\traditional\proc\p18f97j60.asm
             SSP1CON1bits   0x000fc6       data     extern E:\3.46\pic18-lt\cxx-framework\src\traditional\proc\p18f97j60.asm
                 SSP1CON2   0x000fc5       data     extern E:\3.46\pic18-lt\cxx-framework\src\traditional\proc\p18f97j60.asm
             SSP1CON2bits   0x000fc5       data     extern E:\3.46\pic18-lt\cxx-framework\src\traditional\proc\p18f97j60.asm
                 SSP1STAT   0x000fc7       data     extern E:\3.46\pic18-lt\cxx-framework\src\traditional\proc\p18f97j60.asm
             SSP1STATbits   0x000fc7       data     extern E:\3.46\pic18-lt\cxx-framework\src\traditional\proc\p18f97j60.asm
                  SSP2ADD   0x000f65       data     extern E:\3.46\pic18-lt\cxx-framework\src\traditional\proc\p18f97j60.asm
                  SSP2BUF   0x000f66       data     extern E:\3.46\pic18-lt\cxx-framework\src\traditional\proc\p18f97j60.asm
                 SSP2CON1   0x000f63       data     extern E:\3.46\pic18-lt\cxx-framework\src\traditional\proc\p18f97j60.asm
             SSP2CON1bits   0x000f63       data     extern E:\3.46\pic18-lt\cxx-framework\src\traditional\proc\p18f97j60.asm
                 SSP2CON2   0x000f62       data     extern E:\3.46\pic18-lt\cxx-framework\src\traditional\proc\p18f97j60.asm
             SSP2CON2bits   0x000f62       data     extern E:\3.46\pic18-lt\cxx-framework\src\traditional\proc\p18f97j60.asm
                 SSP2STAT   0x000f64       data     extern E:\3.46\pic18-lt\cxx-framework\src\traditional\proc\p18f97j60.asm
             SSP2STATbits   0x000f64       data     extern E:\3.46\pic18-lt\cxx-framework\src\traditional\proc\p18f97j60.asm
                   SSPADD   0x000fc8       data     extern E:\3.46\pic18-lt\cxx-framework\src\traditional\proc\p18f97j60.asm
                   SSPBUF   0x000fc9       data     extern E:\3.46\pic18-lt\cxx-framework\src\traditional\proc\p18f97j60.asm
                  SSPCON1   0x000fc6       data     extern E:\3.46\pic18-lt\cxx-framework\src\traditional\proc\p18f97j60.asm
              SSPCON1bits   0x000fc6       data     extern E:\3.46\pic18-lt\cxx-framework\src\traditional\proc\p18f97j60.asm
                  SSPCON2   0x000fc5       data     extern E:\3.46\pic18-lt\cxx-framework\src\traditional\proc\p18f97j60.asm
              SSPCON2bits   0x000fc5       data     extern E:\3.46\pic18-lt\cxx-framework\src\traditional\proc\p18f97j60.asm
                  SSPSTAT   0x000fc7       data     extern E:\3.46\pic18-lt\cxx-framework\src\traditional\proc\p18f97j60.asm
              SSPSTATbits   0x000fc7       data     extern E:\3.46\pic18-lt\cxx-framework\src\traditional\proc\p18f97j60.asm
                   STATUS   0x000fd8       data     extern E:\3.46\pic18-lt\cxx-framework\src\traditional\proc\p18f97j60.asm
               STATUSbits   0x000fd8       data     extern E:\3.46\pic18-lt\cxx-framework\src\traditional\proc\p18f97j60.asm
                   STKPTR   0x000ffc       data     extern E:\3.46\pic18-lt\cxx-framework\src\traditional\proc\p18f97j60.asm
               STKPTRbits   0x000ffc       data     extern E:\3.46\pic18-lt\cxx-framework\src\traditional\proc\p18f97j60.asm
                 SYNQueue   0x000e00       data     static C:\Users\FERNANDO\Documents\firmware-apb-0100\TCPIP_Stack\TCP.c
        SentTransactionID   0x00031d       data     static C:\Users\FERNANDO\Documents\firmware-apb-0100\TCPIP_Stack\DNS.c
               ServerName   0x000f00       data     static C:\Users\FERNANDO\Documents\firmware-apb-0100\GenericTCPClient.c
               ServerPort   0x000f10       data     static C:\Users\FERNANDO\Documents\firmware-apb-0100\GenericTCPClient.c
         SocketWithRxData   0x000462       data     static C:\Users\FERNANDO\Documents\firmware-apb-0100\TCPIP_Stack\UDP.c
                    Start   0x000b75       data     static C:\Users\FERNANDO\Documents\firmware-apb-0100\TCPIP_Stack\ETH97J60.c
                StartTime   0x000319       data     static C:\Users\FERNANDO\Documents\firmware-apb-0100\TCPIP_Stack\DNS.c
                   String   0x000321       data     static C:\Users\FERNANDO\Documents\firmware-apb-0100\TCPIP_Stack\DNS.c
                   String   0x000323       data     static C:\Users\FERNANDO\Documents\firmware-apb-0100\TCPIP_Stack\DNS.c
                        T   0x000f19       data     extern C:\Users\FERNANDO\Documents\firmware-apb-0100\GenericTCPClient.c
                    T0CON   0x000fd5       data     extern E:\3.46\pic18-lt\cxx-framework\src\traditional\proc\p18f97j60.asm
                T0CONSave   0x000b11       data     static C:\Users\FERNANDO\Documents\firmware-apb-0100\TCPIP_Stack\Helpers.c
                T0CONbits   0x000fd5       data     extern E:\3.46\pic18-lt\cxx-framework\src\traditional\proc\p18f97j60.asm
                    T1CON   0x000fcd       data     extern E:\3.46\pic18-lt\cxx-framework\src\traditional\proc\p18f97j60.asm
                T1CONbits   0x000fcd       data     extern E:\3.46\pic18-lt\cxx-framework\src\traditional\proc\p18f97j60.asm
                    T2CON   0x000fca       data     extern E:\3.46\pic18-lt\cxx-framework\src\traditional\proc\p18f97j60.asm
                T2CONbits   0x000fca       data     extern E:\3.46\pic18-lt\cxx-framework\src\traditional\proc\p18f97j60.asm
                    T3CON   0x000fb1       data     extern E:\3.46\pic18-lt\cxx-framework\src\traditional\proc\p18f97j60.asm
                T3CONbits   0x000fb1       data     extern E:\3.46\pic18-lt\cxx-framework\src\traditional\proc\p18f97j60.asm
                    T4CON   0x000f76       data     extern E:\3.46\pic18-lt\cxx-framework\src\traditional\proc\p18f97j60.asm
                T4CONbits   0x000f76       data     extern E:\3.46\pic18-lt\cxx-framework\src\traditional\proc\p18f97j60.asm
                   TABLAT   0x000ff5       data     extern E:\3.46\pic18-lt\cxx-framework\src\traditional\proc\p18f97j60.asm
                   TBLPTR   0x000ff6       data     extern E:\3.46\pic18-lt\cxx-framework\src\traditional\proc\p18f97j60.asm
                  TBLPTRH   0x000ff7       data     extern E:\3.46\pic18-lt\cxx-framework\src\traditional\proc\p18f97j60.asm
                  TBLPTRL   0x000ff6       data     extern E:\3.46\pic18-lt\cxx-framework\src\traditional\proc\p18f97j60.asm
                  TBLPTRU   0x000ff8       data     extern E:\3.46\pic18-lt\cxx-framework\src\traditional\proc\p18f97j60.asm
                 TCBStubs   0x000386       data     static C:\Users\FERNANDO\Documents\firmware-apb-0100\TCPIP_Stack\TCP.c
                TCPHeader   0x000b00       data     static C:\Users\FERNANDO\Documents\firmware-apb-0100\TCPIP_Stack\TCP.c
                    TMR0H   0x000fd7       data     extern E:\3.46\pic18-lt\cxx-framework\src\traditional\proc\p18f97j60.asm
                TMR0HSave   0x000b12       data     static C:\Users\FERNANDO\Documents\firmware-apb-0100\TCPIP_Stack\Helpers.c
                    TMR0L   0x000fd6       data     extern E:\3.46\pic18-lt\cxx-framework\src\traditional\proc\p18f97j60.asm
                TMR0LSave   0x000b13       data     static C:\Users\FERNANDO\Documents\firmware-apb-0100\TCPIP_Stack\Helpers.c
                    TMR1H   0x000fcf       data     extern E:\3.46\pic18-lt\cxx-framework\src\traditional\proc\p18f97j60.asm
                    TMR1L   0x000fce       data     extern E:\3.46\pic18-lt\cxx-framework\src\traditional\proc\p18f97j60.asm
                     TMR2   0x000fcc       data     extern E:\3.46\pic18-lt\cxx-framework\src\traditional\proc\p18f97j60.asm
                    TMR3H   0x000fb3       data     extern E:\3.46\pic18-lt\cxx-framework\src\traditional\proc\p18f97j60.asm
                    TMR3L   0x000fb2       data     extern E:\3.46\pic18-lt\cxx-framework\src\traditional\proc\p18f97j60.asm
                     TMR4   0x000f78       data     extern E:\3.46\pic18-lt\cxx-framework\src\traditional\proc\p18f97j60.asm
                      TOS   0x000ffd       data     extern E:\3.46\pic18-lt\cxx-framework\src\traditional\proc\p18f97j60.asm
                     TOSH   0x000ffe       data     extern E:\3.46\pic18-lt\cxx-framework\src\traditional\proc\p18f97j60.asm
                     TOSL   0x000ffd       data     extern E:\3.46\pic18-lt\cxx-framework\src\traditional\proc\p18f97j60.asm
                     TOSU   0x000fff       data     extern E:\3.46\pic18-lt\cxx-framework\src\traditional\proc\p18f97j60.asm
                    TRISA   0x000f92       data     extern E:\3.46\pic18-lt\cxx-framework\src\traditional\proc\p18f97j60.asm
                TRISAbits   0x000f92       data     extern E:\3.46\pic18-lt\cxx-framework\src\traditional\proc\p18f97j60.asm
                    TRISB   0x000f93       data     extern E:\3.46\pic18-lt\cxx-framework\src\traditional\proc\p18f97j60.asm
                TRISBbits   0x000f93       data     extern E:\3.46\pic18-lt\cxx-framework\src\traditional\proc\p18f97j60.asm
                    TRISC   0x000f94       data     extern E:\3.46\pic18-lt\cxx-framework\src\traditional\proc\p18f97j60.asm
                TRISCbits   0x000f94       data     extern E:\3.46\pic18-lt\cxx-framework\src\traditional\proc\p18f97j60.asm
                    TRISD   0x000f95       data     extern E:\3.46\pic18-lt\cxx-framework\src\traditional\proc\p18f97j60.asm
                TRISDbits   0x000f95       data     extern E:\3.46\pic18-lt\cxx-framework\src\traditional\proc\p18f97j60.asm
                    TRISE   0x000f96       data     extern E:\3.46\pic18-lt\cxx-framework\src\traditional\proc\p18f97j60.asm
                TRISEbits   0x000f96       data     extern E:\3.46\pic18-lt\cxx-framework\src\traditional\proc\p18f97j60.asm
                    TRISF   0x000f97       data     extern E:\3.46\pic18-lt\cxx-framework\src\traditional\proc\p18f97j60.asm
                TRISFbits   0x000f97       data     extern E:\3.46\pic18-lt\cxx-framework\src\traditional\proc\p18f97j60.asm
                    TRISG   0x000f98       data     extern E:\3.46\pic18-lt\cxx-framework\src\traditional\proc\p18f97j60.asm
                TRISGbits   0x000f98       data     extern E:\3.46\pic18-lt\cxx-framework\src\traditional\proc\p18f97j60.asm
                    TRISH   0x000f99       data     extern E:\3.46\pic18-lt\cxx-framework\src\traditional\proc\p18f97j60.asm
                TRISHbits   0x000f99       data     extern E:\3.46\pic18-lt\cxx-framework\src\traditional\proc\p18f97j60.asm
                    TRISJ   0x000f9a       data     extern E:\3.46\pic18-lt\cxx-framework\src\traditional\proc\p18f97j60.asm
                TRISJbits   0x000f9a       data     extern E:\3.46\pic18-lt\cxx-framework\src\traditional\proc\p18f97j60.asm
                    TXREG   0x000fad       data     extern E:\3.46\pic18-lt\cxx-framework\src\traditional\proc\p18f97j60.asm
                   TXREG1   0x000fad       data     extern E:\3.46\pic18-lt\cxx-framework\src\traditional\proc\p18f97j60.asm
                   TXREG2   0x000f6d       data     extern E:\3.46\pic18-lt\cxx-framework\src\traditional\proc\p18f97j60.asm
                    TXSTA   0x000fac       data     extern E:\3.46\pic18-lt\cxx-framework\src\traditional\proc\p18f97j60.asm
                   TXSTA1   0x000fac       data     extern E:\3.46\pic18-lt\cxx-framework\src\traditional\proc\p18f97j60.asm
               TXSTA1bits   0x000fac       data     extern E:\3.46\pic18-lt\cxx-framework\src\traditional\proc\p18f97j60.asm
                   TXSTA2   0x000f6c       data     extern E:\3.46\pic18-lt\cxx-framework\src\traditional\proc\p18f97j60.asm
               TXSTA2bits   0x000f6c       data     extern E:\3.46\pic18-lt\cxx-framework\src\traditional\proc\p18f97j60.asm
                TXSTAbits   0x000fac       data     extern E:\3.46\pic18-lt\cxx-framework\src\traditional\proc\p18f97j60.asm
                   Target   0x000374       data     static C:\Users\FERNANDO\Documents\firmware-apb-0100\TCPIP_Stack\ARP.c
                    Timer   0x000446       data     static C:\Users\FERNANDO\Documents\firmware-apb-0100\GenericTCPClient.c
                   Toggle   0x000467       data     extern C:\Users\FERNANDO\Documents\firmware-apb-0100\Command_Execution.c
              TramaValida   0x000b56       data     static C:\Users\FERNANDO\Documents\firmware-apb-0100\Command_Execution.c
              TramaValida   0x0003b9       data     static C:\Users\FERNANDO\Documents\firmware-apb-0100\Command_Parser.c
                     Type   0x000312       data     static C:\Users\FERNANDO\Documents\firmware-apb-0100\TCPIP_Stack\DNS.c
                     Type   0x000316       data     static C:\Users\FERNANDO\Documents\firmware-apb-0100\TCPIP_Stack\DNS.c
               UDPRxCount   0x0001bb       data     extern C:\Users\FERNANDO\Documents\firmware-apb-0100\TCPIP_Stack\UDP.c
            UDPSocketInfo   0x000100       data     extern C:\Users\FERNANDO\Documents\firmware-apb-0100\TCPIP_Stack\UDP.c
               UDPTxCount   0x0001b9       data     extern C:\Users\FERNANDO\Documents\firmware-apb-0100\TCPIP_Stack\UDP.c
        UpdateReadPointer   0x000b8c       data     static C:\Users\FERNANDO\Documents\firmware-apb-0100\TCPIP_Stack\ETH97J60.c
       UpdateWritePointer   0x000b8b       data     static C:\Users\FERNANDO\Documents\firmware-apb-0100\TCPIP_Stack\ETH97J60.c
                    Value   0x000e49       data     static C:\Users\FERNANDO\Documents\firmware-apb-0100\TCPIP_Stack\Helpers.c
                   WDTCON   0x000fd1       data     extern E:\3.46\pic18-lt\cxx-framework\src\traditional\proc\p18f97j60.asm
               WDTCONbits   0x000fd1       data     extern E:\3.46\pic18-lt\cxx-framework\src\traditional\proc\p18f97j60.asm
                     WREG   0x000fe8       data     extern E:\3.46\pic18-lt\cxx-framework\src\traditional\proc\p18f97j60.asm
                  WritePT   0x000b77       data     static C:\Users\FERNANDO\Documents\firmware-apb-0100\TCPIP_Stack\ETH97J60.c
                WriteSave   0x000b89       data     static C:\Users\FERNANDO\Documents\firmware-apb-0100\TCPIP_Stack\ETH97J60.c
              _Identifier   0x000465       data     static C:\Users\FERNANDO\Documents\firmware-apb-0100\TCPIP_Stack\IP.c
                 __AARGB0   0x000029       data     extern E:\3.46\pic18-lt\cxx-framework\src\traditional\math\aarg.asm
                 __AARGB1   0x000028       data     extern E:\3.46\pic18-lt\cxx-framework\src\traditional\math\aarg.asm
                 __AARGB2   0x000027       data     extern E:\3.46\pic18-lt\cxx-framework\src\traditional\math\aarg.asm
                 __AARGB3   0x000026       data     extern E:\3.46\pic18-lt\cxx-framework\src\traditional\math\aarg.asm
                 __AARGB4   0x000025       data     extern E:\3.46\pic18-lt\cxx-framework\src\traditional\math\aarg.asm
                 __AARGB5   0x000024       data     extern E:\3.46\pic18-lt\cxx-framework\src\traditional\math\aarg.asm
                 __AARGB6   0x000023       data     extern E:\3.46\pic18-lt\cxx-framework\src\traditional\math\aarg.asm
                 __AARGB7   0x000022       data     extern E:\3.46\pic18-lt\cxx-framework\src\traditional\math\aarg.asm
                   __AEXP   0x00002a       data     extern E:\3.46\pic18-lt\cxx-framework\src\traditional\math\aarg.asm
        __ARPIsResolved:0   0x000380       data     extern C:\Users\FERNANDO\Documents\firmware-apb-0100\TCPIP_Stack\ARP.c
        __ARPIsResolved:1   0x000382       data     extern C:\Users\FERNANDO\Documents\firmware-apb-0100\TCPIP_Stack\ARP.c
               __ARPPut:0   0x000372       data     static C:\Users\FERNANDO\Documents\firmware-apb-0100\TCPIP_Stack\ARP.c
           __ARPResolve:0   0x00037e       data     extern C:\Users\FERNANDO\Documents\firmware-apb-0100\TCPIP_Stack\ARP.c
                 __BARGB0   0x00002e       data     extern E:\3.46\pic18-lt\cxx-framework\src\traditional\math\barg.asm
                 __BARGB1   0x00002d       data     extern E:\3.46\pic18-lt\cxx-framework\src\traditional\math\barg.asm
                 __BARGB2   0x00002c       data     extern E:\3.46\pic18-lt\cxx-framework\src\traditional\math\barg.asm
                 __BARGB3   0x00002b       data     extern E:\3.46\pic18-lt\cxx-framework\src\traditional\math\barg.asm
                   __BEXP   0x00002f       data     extern E:\3.46\pic18-lt\cxx-framework\src\traditional\math\barg.asm
 __CalcIPBufferChecksum:0   0x00007a       data     extern C:\Users\FERNANDO\Documents\firmware-apb-0100\TCPIP_Stack\ETH97J60.c
       __CalcIPChecksum:0   0x000e5c       data     extern C:\Users\FERNANDO\Documents\firmware-apb-0100\TCPIP_Stack\Helpers.c
       __CalcIPChecksum:1   0x000e5e       data     extern C:\Users\FERNANDO\Documents\firmware-apb-0100\TCPIP_Stack\Helpers.c
__Command_Execution_ALS:0   0x0003bd       data     extern C:\Users\FERNANDO\Documents\firmware-apb-0100\Command_Execution.c
__Command_Execution_ALS:1   0x0003be       data     extern C:\Users\FERNANDO\Documents\firmware-apb-0100\Command_Execution.c
__Command_Execution_ALS:2   0x0003c0       data     extern C:\Users\FERNANDO\Documents\firmware-apb-0100\Command_Execution.c
__Command_Execution_ALS:3   0x0003c2       data     extern C:\Users\FERNANDO\Documents\firmware-apb-0100\Command_Execution.c
__Command_Execution_ALS_PERSONA_ATRAPADA:0   0x0003ca       data     extern C:\Users\FERNANDO\Documents\firmware-apb-0100\Command_Execution.c
__Command_Execution_NOT_FOUND:0   0x0003d7       data     extern C:\Users\FERNANDO\Documents\firmware-apb-0100\Command_Execution.c
__Command_Execution_PLAY:0   0x0003cc       data     extern C:\Users\FERNANDO\Documents\firmware-apb-0100\Command_Execution.c
__Command_Execution_PLAY:1   0x0003cd       data     extern C:\Users\FERNANDO\Documents\firmware-apb-0100\Command_Execution.c
__Command_Execution_PRESENTACION:0   0x0003c9       data     extern C:\Users\FERNANDO\Documents\firmware-apb-0100\Command_Execution.c
__Command_Execution_PWM:0   0x0003c4       data     extern C:\Users\FERNANDO\Documents\firmware-apb-0100\Command_Execution.c
__Command_Execution_PWM:1   0x0003c5       data     extern C:\Users\FERNANDO\Documents\firmware-apb-0100\Command_Execution.c
__Command_Execution_PWM:2   0x0003c7       data     extern C:\Users\FERNANDO\Documents\firmware-apb-0100\Command_Execution.c
__Command_Execution_STOP:0   0x0003cf       data     extern C:\Users\FERNANDO\Documents\firmware-apb-0100\Command_Execution.c
__Command_Execution_STOP:1   0x0003d0       data     extern C:\Users\FERNANDO\Documents\firmware-apb-0100\Command_Execution.c
__Command_Execution_VOL:0   0x0003d2       data     extern C:\Users\FERNANDO\Documents\firmware-apb-0100\Command_Execution.c
__Command_Execution_VOL:1   0x0003d3       data     extern C:\Users\FERNANDO\Documents\firmware-apb-0100\Command_Execution.c
__Command_Execution_VOL:2   0x0003d5       data     extern C:\Users\FERNANDO\Documents\firmware-apb-0100\Command_Execution.c
__Command_Parser_Parser_Command:0   0x0003b8       data     extern C:\Users\FERNANDO\Documents\firmware-apb-0100\Command_Parser.c
__Command_Parser_Parser_Command:1   0x0003b9       data     extern C:\Users\FERNANDO\Documents\firmware-apb-0100\Command_Parser.c
__Command_Parser_Parser_Command:2   0x0003bb       data     extern C:\Users\FERNANDO\Documents\firmware-apb-0100\Command_Parser.c
          __DHCPDisable:0   0x0002f4       data     extern C:\Users\FERNANDO\Documents\firmware-apb-0100\TCPIP_Stack\DHCP.c
           __DHCPEnable:0   0x0002f5       data     extern C:\Users\FERNANDO\Documents\firmware-apb-0100\TCPIP_Stack\DHCP.c
             __DHCPInit:0   0x0002f3       data     extern C:\Users\FERNANDO\Documents\firmware-apb-0100\TCPIP_Stack\DHCP.c
          __DHCPIsBound:0   0x0002f7       data     extern C:\Users\FERNANDO\Documents\firmware-apb-0100\TCPIP_Stack\DHCP.c
        __DHCPIsEnabled:0   0x0002f6       data     extern C:\Users\FERNANDO\Documents\firmware-apb-0100\TCPIP_Stack\DHCP.c
 __DHCPIsServerDetected:0   0x0002f9       data     extern C:\Users\FERNANDO\Documents\firmware-apb-0100\TCPIP_Stack\DHCP.c
     __DHCPStateChanged:0   0x0002f8       data     extern C:\Users\FERNANDO\Documents\firmware-apb-0100\TCPIP_Stack\DHCP.c
        __DNSIsResolved:0   0x000317       data     extern C:\Users\FERNANDO\Documents\firmware-apb-0100\TCPIP_Stack\DNS.c
      __DNSPutROMString:0   0x000323       data     static C:\Users\FERNANDO\Documents\firmware-apb-0100\TCPIP_Stack\DNS.c
         __DNSPutString:0   0x000321       data     static C:\Users\FERNANDO\Documents\firmware-apb-0100\TCPIP_Stack\DNS.c
           __DNSResolve:0   0x000310       data     extern C:\Users\FERNANDO\Documents\firmware-apb-0100\TCPIP_Stack\DNS.c
           __DNSResolve:1   0x000312       data     extern C:\Users\FERNANDO\Documents\firmware-apb-0100\TCPIP_Stack\DNS.c
        __DNSResolveROM:0   0x000313       data     extern C:\Users\FERNANDO\Documents\firmware-apb-0100\TCPIP_Stack\DNS.c
        __DNSResolveROM:1   0x000316       data     extern C:\Users\FERNANDO\Documents\firmware-apb-0100\TCPIP_Stack\DNS.c
     __Display_Dotacion:0   0x0000fb       data     extern C:\Users\FERNANDO\Documents\firmware-apb-0100\Dotacion_Movil.c
        __Display_Movil:0   0x0000fd       data     extern C:\Users\FERNANDO\Documents\firmware-apb-0100\Dotacion_Movil.c
           __EraseFlash:0   0x00044a       data     extern C:\Users\FERNANDO\Documents\firmware-apb-0100\Flash\EraseFlash.c
           __EraseFlash:1   0x00044e       data     extern C:\Users\FERNANDO\Documents\firmware-apb-0100\Flash\EraseFlash.c
                __FPFLAGS   0x000021       data     extern E:\3.46\pic18-lt\cxx-framework\src\traditional\math\cmath18.asm
            __FPFLAGSbits   0x000021       data     extern E:\3.46\pic18-lt\cxx-framework\src\traditional\math\cmath18.asm
   __FindMatchingSocket:0   0x0001f0       data     static C:\Users\FERNANDO\Documents\firmware-apb-0100\TCPIP_Stack\UDP.c
   __FindMatchingSocket:0   0x0002af       data     static C:\Users\FERNANDO\Documents\firmware-apb-0100\TCPIP_Stack\TCP.c
   __FindMatchingSocket:1   0x0002b1       data     static C:\Users\FERNANDO\Documents\firmware-apb-0100\TCPIP_Stack\TCP.c
   __FindMatchingSocket:1   0x0001f2       data     static C:\Users\FERNANDO\Documents\firmware-apb-0100\TCPIP_Stack\UDP.c
   __FindMatchingSocket:2   0x0001f4       data     static C:\Users\FERNANDO\Documents\firmware-apb-0100\TCPIP_Stack\UDP.c
    __FormatNetBIOSName:0   0x000e69       data     extern C:\Users\FERNANDO\Documents\firmware-apb-0100\TCPIP_Stack\Helpers.c
         __HandleTCPSeg:0   0x0002b5       data     static C:\Users\FERNANDO\Documents\firmware-apb-0100\TCPIP_Stack\TCP.c
         __HandleTCPSeg:1   0x0002b7       data     static C:\Users\FERNANDO\Documents\firmware-apb-0100\TCPIP_Stack\TCP.c
          __ICMPProcess:0   0x0002fc       data     extern C:\Users\FERNANDO\Documents\firmware-apb-0100\TCPIP_Stack\ICMP.c
          __ICMPProcess:1   0x0002fe       data     extern C:\Users\FERNANDO\Documents\firmware-apb-0100\TCPIP_Stack\ICMP.c
          __IPGetHeader:0   0x000401       data     extern C:\Users\FERNANDO\Documents\firmware-apb-0100\TCPIP_Stack\IP.c
          __IPGetHeader:1   0x000403       data     extern C:\Users\FERNANDO\Documents\firmware-apb-0100\TCPIP_Stack\IP.c
          __IPGetHeader:2   0x000405       data     extern C:\Users\FERNANDO\Documents\firmware-apb-0100\TCPIP_Stack\IP.c
          __IPGetHeader:3   0x000407       data     extern C:\Users\FERNANDO\Documents\firmware-apb-0100\TCPIP_Stack\IP.c
          __IPPutHeader:0   0x000409       data     extern C:\Users\FERNANDO\Documents\firmware-apb-0100\TCPIP_Stack\IP.c
          __IPPutHeader:1   0x00040b       data     extern C:\Users\FERNANDO\Documents\firmware-apb-0100\TCPIP_Stack\IP.c
          __IPPutHeader:2   0x00040c       data     extern C:\Users\FERNANDO\Documents\firmware-apb-0100\TCPIP_Stack\IP.c
        __IPSetRxBuffer:0   0x00040e       data     extern C:\Users\FERNANDO\Documents\firmware-apb-0100\TCPIP_Stack\IP.c
         __LFSRSeedRand:0   0x000e3c       data     extern C:\Users\FERNANDO\Documents\firmware-apb-0100\TCPIP_Stack\Helpers.c
         __Leds_Pwm_Off:0   0x000366       data     extern C:\Users\FERNANDO\Documents\firmware-apb-0100\Leds_Pwm.c
          __Leds_Pwm_On:0   0x000364       data     extern C:\Users\FERNANDO\Documents\firmware-apb-0100\Leds_Pwm.c
__Leds_Pwm_Set_Duty_PWM:0   0x00035e       data     extern C:\Users\FERNANDO\Documents\firmware-apb-0100\Leds_Pwm.c
__Leds_Pwm_Set_Duty_PWM:1   0x000360       data     extern C:\Users\FERNANDO\Documents\firmware-apb-0100\Leds_Pwm.c
    __MACCalcRxChecksum:0   0x000076       data     extern C:\Users\FERNANDO\Documents\firmware-apb-0100\TCPIP_Stack\ETH97J60.c
    __MACCalcRxChecksum:1   0x000078       data     extern C:\Users\FERNANDO\Documents\firmware-apb-0100\TCPIP_Stack\ETH97J60.c
          __MACGetArray:0   0x000082       data     extern C:\Users\FERNANDO\Documents\firmware-apb-0100\TCPIP_Stack\ETH97J60.c
          __MACGetArray:1   0x000084       data     extern C:\Users\FERNANDO\Documents\firmware-apb-0100\TCPIP_Stack\ETH97J60.c
         __MACGetHeader:0   0x000067       data     extern C:\Users\FERNANDO\Documents\firmware-apb-0100\TCPIP_Stack\ETH97J60.c
         __MACGetHeader:1   0x000069       data     extern C:\Users\FERNANDO\Documents\firmware-apb-0100\TCPIP_Stack\ETH97J60.c
      __MACMemCopyAsync:0   0x00007c       data     extern C:\Users\FERNANDO\Documents\firmware-apb-0100\TCPIP_Stack\ETH97J60.c
      __MACMemCopyAsync:1   0x00007e       data     extern C:\Users\FERNANDO\Documents\firmware-apb-0100\TCPIP_Stack\ETH97J60.c
      __MACMemCopyAsync:2   0x000080       data     extern C:\Users\FERNANDO\Documents\firmware-apb-0100\TCPIP_Stack\ETH97J60.c
               __MACPut:0   0x000086       data     extern C:\Users\FERNANDO\Documents\firmware-apb-0100\TCPIP_Stack\ETH97J60.c
          __MACPutArray:0   0x000087       data     extern C:\Users\FERNANDO\Documents\firmware-apb-0100\TCPIP_Stack\ETH97J60.c
          __MACPutArray:1   0x000089       data     extern C:\Users\FERNANDO\Documents\firmware-apb-0100\TCPIP_Stack\ETH97J60.c
         __MACPutHeader:0   0x00006b       data     extern C:\Users\FERNANDO\Documents\firmware-apb-0100\TCPIP_Stack\ETH97J60.c
         __MACPutHeader:1   0x00006d       data     extern C:\Users\FERNANDO\Documents\firmware-apb-0100\TCPIP_Stack\ETH97J60.c
         __MACPutHeader:2   0x00006e       data     extern C:\Users\FERNANDO\Documents\firmware-apb-0100\TCPIP_Stack\ETH97J60.c
       __MACPutROMArray:0   0x00008b       data     extern C:\Users\FERNANDO\Documents\firmware-apb-0100\TCPIP_Stack\ETH97J60.c
       __MACPutROMArray:1   0x00008e       data     extern C:\Users\FERNANDO\Documents\firmware-apb-0100\TCPIP_Stack\ETH97J60.c
        __MACSetReadPtr:0   0x000074       data     extern C:\Users\FERNANDO\Documents\firmware-apb-0100\TCPIP_Stack\ETH97J60.c
    __MACSetReadPtrInRx:0   0x000070       data     extern C:\Users\FERNANDO\Documents\firmware-apb-0100\TCPIP_Stack\ETH97J60.c
       __MACSetWritePtr:0   0x000072       data     extern C:\Users\FERNANDO\Documents\firmware-apb-0100\TCPIP_Stack\ETH97J60.c
                  __REMB0   0x000025       data     extern E:\3.46\pic18-lt\cxx-framework\src\traditional\math\aarg.asm
                  __REMB1   0x000024       data     extern E:\3.46\pic18-lt\cxx-framework\src\traditional\math\aarg.asm
                  __REMB2   0x000023       data     extern E:\3.46\pic18-lt\cxx-framework\src\traditional\math\aarg.asm
                  __REMB3   0x000022       data     extern E:\3.46\pic18-lt\cxx-framework\src\traditional\math\aarg.asm
 __ROMStringToIPAddress:0   0x000e44       data     extern C:\Users\FERNANDO\Documents\firmware-apb-0100\TCPIP_Stack\Helpers.c
 __ROMStringToIPAddress:1   0x000e47       data     extern C:\Users\FERNANDO\Documents\firmware-apb-0100\TCPIP_Stack\Helpers.c
            __ReadFlash:0   0x00043a       data     extern C:\Users\FERNANDO\Documents\firmware-apb-0100\Flash\ReadFlash.c
            __ReadFlash:1   0x00043e       data     extern C:\Users\FERNANDO\Documents\firmware-apb-0100\Flash\ReadFlash.c
            __ReadFlash:2   0x000440       data     extern C:\Users\FERNANDO\Documents\firmware-apb-0100\Flash\ReadFlash.c
           __ReadPHYReg:0   0x000090       data     extern C:\Users\FERNANDO\Documents\firmware-apb-0100\TCPIP_Stack\ETH97J60.c
      __SPIRAM2GetArray:0   0x0003d8       data     extern C:\Users\FERNANDO\Documents\firmware-apb-0100\SPIRAM2.c
      __SPIRAM2GetArray:1   0x0003da       data     extern C:\Users\FERNANDO\Documents\firmware-apb-0100\SPIRAM2.c
      __SPIRAM2GetArray:2   0x0003dc       data     extern C:\Users\FERNANDO\Documents\firmware-apb-0100\SPIRAM2.c
      __SPIRAM2PutArray:0   0x0003de       data     extern C:\Users\FERNANDO\Documents\firmware-apb-0100\SPIRAM2.c
      __SPIRAM2PutArray:1   0x0003e0       data     extern C:\Users\FERNANDO\Documents\firmware-apb-0100\SPIRAM2.c
      __SPIRAM2PutArray:2   0x0003e2       data     extern C:\Users\FERNANDO\Documents\firmware-apb-0100\SPIRAM2.c
   __SPIRAM2PutROMArray:0   0x0003e4       data     extern C:\Users\FERNANDO\Documents\firmware-apb-0100\SPIRAM2.c
   __SPIRAM2PutROMArray:1   0x0003e6       data     extern C:\Users\FERNANDO\Documents\firmware-apb-0100\SPIRAM2.c
   __SPIRAM2PutROMArray:2   0x0003e9       data     extern C:\Users\FERNANDO\Documents\firmware-apb-0100\SPIRAM2.c
       __SPIRAMGetArray:0   0x0003eb       data     extern C:\Users\FERNANDO\Documents\firmware-apb-0100\TCPIP_Stack\SPIRAM.c
       __SPIRAMGetArray:1   0x0003ed       data     extern C:\Users\FERNANDO\Documents\firmware-apb-0100\TCPIP_Stack\SPIRAM.c
       __SPIRAMGetArray:2   0x0003ef       data     extern C:\Users\FERNANDO\Documents\firmware-apb-0100\TCPIP_Stack\SPIRAM.c
       __SPIRAMPutArray:0   0x0003f1       data     extern C:\Users\FERNANDO\Documents\firmware-apb-0100\TCPIP_Stack\SPIRAM.c
       __SPIRAMPutArray:1   0x0003f3       data     extern C:\Users\FERNANDO\Documents\firmware-apb-0100\TCPIP_Stack\SPIRAM.c
       __SPIRAMPutArray:2   0x0003f5       data     extern C:\Users\FERNANDO\Documents\firmware-apb-0100\TCPIP_Stack\SPIRAM.c
    __SPIRAMPutROMArray:0   0x0003f7       data     extern C:\Users\FERNANDO\Documents\firmware-apb-0100\TCPIP_Stack\SPIRAM.c
    __SPIRAMPutROMArray:1   0x0003f9       data     extern C:\Users\FERNANDO\Documents\firmware-apb-0100\TCPIP_Stack\SPIRAM.c
    __SPIRAMPutROMArray:2   0x0003fc       data     extern C:\Users\FERNANDO\Documents\firmware-apb-0100\TCPIP_Stack\SPIRAM.c
              __SendTCP:0   0x0002ad       data     static C:\Users\FERNANDO\Documents\firmware-apb-0100\TCPIP_Stack\TCP.c
              __SendTCP:1   0x0002ae       data     static C:\Users\FERNANDO\Documents\firmware-apb-0100\TCPIP_Stack\TCP.c
         __Set_Duty_RC1:0   0x00034e       data     extern C:\Users\FERNANDO\Documents\firmware-apb-0100\Leds_Pwm.c
         __Set_Duty_RC2:0   0x00034a       data     extern C:\Users\FERNANDO\Documents\firmware-apb-0100\Leds_Pwm.c
         __Set_Duty_RG0:0   0x00035a       data     extern C:\Users\FERNANDO\Documents\firmware-apb-0100\Leds_Pwm.c
         __Set_Duty_RG3:0   0x000352       data     extern C:\Users\FERNANDO\Documents\firmware-apb-0100\Leds_Pwm.c
         __Set_Duty_RG4:0   0x000356       data     extern C:\Users\FERNANDO\Documents\firmware-apb-0100\Leds_Pwm.c
    __StringToIPAddress:0   0x000e40       data     extern C:\Users\FERNANDO\Documents\firmware-apb-0100\TCPIP_Stack\Helpers.c
    __StringToIPAddress:1   0x000e42       data     extern C:\Users\FERNANDO\Documents\firmware-apb-0100\TCPIP_Stack\Helpers.c
        __SwapARPPacket:0   0x000384       data     extern C:\Users\FERNANDO\Documents\firmware-apb-0100\TCPIP_Stack\ARP.c
         __SwapIPHeader:0   0x000410       data     static C:\Users\FERNANDO\Documents\firmware-apb-0100\TCPIP_Stack\IP.c
        __SwapTCPHeader:0   0x0002b3       data     static C:\Users\FERNANDO\Documents\firmware-apb-0100\TCPIP_Stack\TCP.c
          __SyncTCBStub:0   0x000245       data     static C:\Users\FERNANDO\Documents\firmware-apb-0100\TCPIP_Stack\TCP.c
    __TCPAdjustFIFOSize:0   0x0002b9       data     extern C:\Users\FERNANDO\Documents\firmware-apb-0100\TCPIP_Stack\TCP.c
    __TCPAdjustFIFOSize:1   0x0002ba       data     extern C:\Users\FERNANDO\Documents\firmware-apb-0100\TCPIP_Stack\TCP.c
    __TCPAdjustFIFOSize:2   0x0002bc       data     extern C:\Users\FERNANDO\Documents\firmware-apb-0100\TCPIP_Stack\TCP.c
    __TCPAdjustFIFOSize:3   0x0002be       data     extern C:\Users\FERNANDO\Documents\firmware-apb-0100\TCPIP_Stack\TCP.c
             __TCPClose:0   0x000251       data     extern C:\Users\FERNANDO\Documents\firmware-apb-0100\TCPIP_Stack\TCP.c
           __TCPDiscard:0   0x000276       data     extern C:\Users\FERNANDO\Documents\firmware-apb-0100\TCPIP_Stack\TCP.c
        __TCPDisconnect:0   0x000250       data     extern C:\Users\FERNANDO\Documents\firmware-apb-0100\TCPIP_Stack\TCP.c
       __TCPFindArrayEx:0   0x00028b       data     extern C:\Users\FERNANDO\Documents\firmware-apb-0100\TCPIP_Stack\TCP.c
       __TCPFindArrayEx:1   0x00028c       data     extern C:\Users\FERNANDO\Documents\firmware-apb-0100\TCPIP_Stack\TCP.c
       __TCPFindArrayEx:2   0x00028e       data     extern C:\Users\FERNANDO\Documents\firmware-apb-0100\TCPIP_Stack\TCP.c
       __TCPFindArrayEx:3   0x000290       data     extern C:\Users\FERNANDO\Documents\firmware-apb-0100\TCPIP_Stack\TCP.c
       __TCPFindArrayEx:4   0x000292       data     extern C:\Users\FERNANDO\Documents\firmware-apb-0100\TCPIP_Stack\TCP.c
       __TCPFindArrayEx:5   0x000294       data     extern C:\Users\FERNANDO\Documents\firmware-apb-0100\TCPIP_Stack\TCP.c
            __TCPFindEx:0   0x0002a0       data     extern C:\Users\FERNANDO\Documents\firmware-apb-0100\TCPIP_Stack\TCP.c
            __TCPFindEx:1   0x0002a1       data     extern C:\Users\FERNANDO\Documents\firmware-apb-0100\TCPIP_Stack\TCP.c
            __TCPFindEx:2   0x0002a2       data     extern C:\Users\FERNANDO\Documents\firmware-apb-0100\TCPIP_Stack\TCP.c
            __TCPFindEx:3   0x0002a4       data     extern C:\Users\FERNANDO\Documents\firmware-apb-0100\TCPIP_Stack\TCP.c
            __TCPFindEx:4   0x0002a6       data     extern C:\Users\FERNANDO\Documents\firmware-apb-0100\TCPIP_Stack\TCP.c
    __TCPFindROMArrayEx:0   0x000295       data     extern C:\Users\FERNANDO\Documents\firmware-apb-0100\TCPIP_Stack\TCP.c
    __TCPFindROMArrayEx:1   0x000296       data     extern C:\Users\FERNANDO\Documents\firmware-apb-0100\TCPIP_Stack\TCP.c
    __TCPFindROMArrayEx:2   0x000299       data     extern C:\Users\FERNANDO\Documents\firmware-apb-0100\TCPIP_Stack\TCP.c
    __TCPFindROMArrayEx:3   0x00029b       data     extern C:\Users\FERNANDO\Documents\firmware-apb-0100\TCPIP_Stack\TCP.c
    __TCPFindROMArrayEx:4   0x00029d       data     extern C:\Users\FERNANDO\Documents\firmware-apb-0100\TCPIP_Stack\TCP.c
    __TCPFindROMArrayEx:5   0x00029f       data     extern C:\Users\FERNANDO\Documents\firmware-apb-0100\TCPIP_Stack\TCP.c
             __TCPFlush:0   0x00025f       data     extern C:\Users\FERNANDO\Documents\firmware-apb-0100\TCPIP_Stack\TCP.c
               __TCPGet:0   0x000278       data     extern C:\Users\FERNANDO\Documents\firmware-apb-0100\TCPIP_Stack\TCP.c
               __TCPGet:1   0x000279       data     extern C:\Users\FERNANDO\Documents\firmware-apb-0100\TCPIP_Stack\TCP.c
          __TCPGetArray:0   0x00027b       data     extern C:\Users\FERNANDO\Documents\firmware-apb-0100\TCPIP_Stack\TCP.c
          __TCPGetArray:1   0x00027c       data     extern C:\Users\FERNANDO\Documents\firmware-apb-0100\TCPIP_Stack\TCP.c
          __TCPGetArray:2   0x00027e       data     extern C:\Users\FERNANDO\Documents\firmware-apb-0100\TCPIP_Stack\TCP.c
     __TCPGetRemoteInfo:0   0x000252       data     extern C:\Users\FERNANDO\Documents\firmware-apb-0100\TCPIP_Stack\TCP.c
     __TCPGetRxFIFOFree:0   0x000280       data     extern C:\Users\FERNANDO\Documents\firmware-apb-0100\TCPIP_Stack\TCP.c
     __TCPGetTxFIFOFull:0   0x000275       data     extern C:\Users\FERNANDO\Documents\firmware-apb-0100\TCPIP_Stack\TCP.c
       __TCPIsConnected:0   0x00024f       data     extern C:\Users\FERNANDO\Documents\firmware-apb-0100\TCPIP_Stack\TCP.c
        __TCPIsGetReady:0   0x000277       data     extern C:\Users\FERNANDO\Documents\firmware-apb-0100\TCPIP_Stack\TCP.c
        __TCPIsPutReady:0   0x000260       data     extern C:\Users\FERNANDO\Documents\firmware-apb-0100\TCPIP_Stack\TCP.c
              __TCPOpen:0   0x000246       data     extern C:\Users\FERNANDO\Documents\firmware-apb-0100\TCPIP_Stack\TCP.c
              __TCPOpen:1   0x00024a       data     extern C:\Users\FERNANDO\Documents\firmware-apb-0100\TCPIP_Stack\TCP.c
              __TCPOpen:2   0x00024b       data     extern C:\Users\FERNANDO\Documents\firmware-apb-0100\TCPIP_Stack\TCP.c
              __TCPOpen:3   0x00024d       data     extern C:\Users\FERNANDO\Documents\firmware-apb-0100\TCPIP_Stack\TCP.c
              __TCPPeek:0   0x000288       data     extern C:\Users\FERNANDO\Documents\firmware-apb-0100\TCPIP_Stack\TCP.c
              __TCPPeek:1   0x000289       data     extern C:\Users\FERNANDO\Documents\firmware-apb-0100\TCPIP_Stack\TCP.c
         __TCPPeekArray:0   0x000281       data     extern C:\Users\FERNANDO\Documents\firmware-apb-0100\TCPIP_Stack\TCP.c
         __TCPPeekArray:1   0x000282       data     extern C:\Users\FERNANDO\Documents\firmware-apb-0100\TCPIP_Stack\TCP.c
         __TCPPeekArray:2   0x000284       data     extern C:\Users\FERNANDO\Documents\firmware-apb-0100\TCPIP_Stack\TCP.c
         __TCPPeekArray:3   0x000286       data     extern C:\Users\FERNANDO\Documents\firmware-apb-0100\TCPIP_Stack\TCP.c
           __TCPProcess:0   0x0002a7       data     extern C:\Users\FERNANDO\Documents\firmware-apb-0100\TCPIP_Stack\TCP.c
           __TCPProcess:1   0x0002a9       data     extern C:\Users\FERNANDO\Documents\firmware-apb-0100\TCPIP_Stack\TCP.c
           __TCPProcess:2   0x0002ab       data     extern C:\Users\FERNANDO\Documents\firmware-apb-0100\TCPIP_Stack\TCP.c
               __TCPPut:0   0x000261       data     extern C:\Users\FERNANDO\Documents\firmware-apb-0100\TCPIP_Stack\TCP.c
               __TCPPut:1   0x000262       data     extern C:\Users\FERNANDO\Documents\firmware-apb-0100\TCPIP_Stack\TCP.c
          __TCPPutArray:0   0x000263       data     extern C:\Users\FERNANDO\Documents\firmware-apb-0100\TCPIP_Stack\TCP.c
          __TCPPutArray:1   0x000264       data     extern C:\Users\FERNANDO\Documents\firmware-apb-0100\TCPIP_Stack\TCP.c
          __TCPPutArray:2   0x000266       data     extern C:\Users\FERNANDO\Documents\firmware-apb-0100\TCPIP_Stack\TCP.c
       __TCPPutROMArray:0   0x000268       data     extern C:\Users\FERNANDO\Documents\firmware-apb-0100\TCPIP_Stack\TCP.c
       __TCPPutROMArray:1   0x000269       data     extern C:\Users\FERNANDO\Documents\firmware-apb-0100\TCPIP_Stack\TCP.c
       __TCPPutROMArray:2   0x00026c       data     extern C:\Users\FERNANDO\Documents\firmware-apb-0100\TCPIP_Stack\TCP.c
      __TCPPutROMString:0   0x000271       data     extern C:\Users\FERNANDO\Documents\firmware-apb-0100\TCPIP_Stack\TCP.c
      __TCPPutROMString:1   0x000272       data     extern C:\Users\FERNANDO\Documents\firmware-apb-0100\TCPIP_Stack\TCP.c
         __TCPPutString:0   0x00026e       data     extern C:\Users\FERNANDO\Documents\firmware-apb-0100\TCPIP_Stack\TCP.c
         __TCPPutString:1   0x00026f       data     extern C:\Users\FERNANDO\Documents\firmware-apb-0100\TCPIP_Stack\TCP.c
           __TCPRAMCopy:0   0x0002bf       data     static C:\Users\FERNANDO\Documents\firmware-apb-0100\TCPIP_Stack\TCP.c
           __TCPRAMCopy:1   0x0002c1       data     static C:\Users\FERNANDO\Documents\firmware-apb-0100\TCPIP_Stack\TCP.c
           __TCPRAMCopy:2   0x0002c2       data     static C:\Users\FERNANDO\Documents\firmware-apb-0100\TCPIP_Stack\TCP.c
           __TCPRAMCopy:3   0x0002c4       data     static C:\Users\FERNANDO\Documents\firmware-apb-0100\TCPIP_Stack\TCP.c
           __TCPRAMCopy:4   0x0002c5       data     static C:\Users\FERNANDO\Documents\firmware-apb-0100\TCPIP_Stack\TCP.c
        __TCPRAMCopyROM:0   0x0002c7       data     static C:\Users\FERNANDO\Documents\firmware-apb-0100\TCPIP_Stack\TCP.c
        __TCPRAMCopyROM:1   0x0002c9       data     static C:\Users\FERNANDO\Documents\firmware-apb-0100\TCPIP_Stack\TCP.c
        __TCPRAMCopyROM:2   0x0002ca       data     static C:\Users\FERNANDO\Documents\firmware-apb-0100\TCPIP_Stack\TCP.c
        __TCPRAMCopyROM:3   0x0002cd       data     static C:\Users\FERNANDO\Documents\firmware-apb-0100\TCPIP_Stack\TCP.c
          __TCPWasReset:0   0x00024e       data     extern C:\Users\FERNANDO\Documents\firmware-apb-0100\TCPIP_Stack\TCP.c
                   __TEMP   0x000033       data     extern E:\3.46\pic18-lt\cxx-framework\src\traditional\math\temparg.asm
                 __TEMPB0   0x000033       data     extern E:\3.46\pic18-lt\cxx-framework\src\traditional\math\temparg.asm
                 __TEMPB1   0x000032       data     extern E:\3.46\pic18-lt\cxx-framework\src\traditional\math\temparg.asm
                 __TEMPB2   0x000031       data     extern E:\3.46\pic18-lt\cxx-framework\src\traditional\math\temparg.asm
                 __TEMPB3   0x000030       data     extern E:\3.46\pic18-lt\cxx-framework\src\traditional\math\temparg.asm
__TickConvertToMilliseconds:0   0x00042e       data     extern C:\Users\FERNANDO\Documents\firmware-apb-0100\TCPIP_Stack\Tick.c
             __UDPClose:0   0x0001ce       data     extern C:\Users\FERNANDO\Documents\firmware-apb-0100\TCPIP_Stack\UDP.c
               __UDPGet:0   0x0001e4       data     extern C:\Users\FERNANDO\Documents\firmware-apb-0100\TCPIP_Stack\UDP.c
          __UDPGetArray:0   0x0001e6       data     extern C:\Users\FERNANDO\Documents\firmware-apb-0100\TCPIP_Stack\UDP.c
          __UDPGetArray:1   0x0001e8       data     extern C:\Users\FERNANDO\Documents\firmware-apb-0100\TCPIP_Stack\UDP.c
        __UDPIsGetReady:0   0x0001e3       data     extern C:\Users\FERNANDO\Documents\firmware-apb-0100\TCPIP_Stack\UDP.c
          __UDPIsOpened:0   0x0001cd       data     extern C:\Users\FERNANDO\Documents\firmware-apb-0100\TCPIP_Stack\UDP.c
        __UDPIsPutReady:0   0x0001d3       data     extern C:\Users\FERNANDO\Documents\firmware-apb-0100\TCPIP_Stack\UDP.c
            __UDPOpenEx:0   0x0001c2       data     extern C:\Users\FERNANDO\Documents\firmware-apb-0100\TCPIP_Stack\UDP.c
            __UDPOpenEx:1   0x0001c6       data     extern C:\Users\FERNANDO\Documents\firmware-apb-0100\TCPIP_Stack\UDP.c
            __UDPOpenEx:2   0x0001c7       data     extern C:\Users\FERNANDO\Documents\firmware-apb-0100\TCPIP_Stack\UDP.c
            __UDPOpenEx:3   0x0001c9       data     extern C:\Users\FERNANDO\Documents\firmware-apb-0100\TCPIP_Stack\UDP.c
           __UDPProcess:0   0x0001ea       data     extern C:\Users\FERNANDO\Documents\firmware-apb-0100\TCPIP_Stack\UDP.c
           __UDPProcess:1   0x0001ec       data     extern C:\Users\FERNANDO\Documents\firmware-apb-0100\TCPIP_Stack\UDP.c
           __UDPProcess:2   0x0001ee       data     extern C:\Users\FERNANDO\Documents\firmware-apb-0100\TCPIP_Stack\UDP.c
               __UDPPut:0   0x0001d4       data     extern C:\Users\FERNANDO\Documents\firmware-apb-0100\TCPIP_Stack\UDP.c
          __UDPPutArray:0   0x0001d5       data     extern C:\Users\FERNANDO\Documents\firmware-apb-0100\TCPIP_Stack\UDP.c
          __UDPPutArray:1   0x0001d7       data     extern C:\Users\FERNANDO\Documents\firmware-apb-0100\TCPIP_Stack\UDP.c
       __UDPPutROMArray:0   0x0001d9       data     extern C:\Users\FERNANDO\Documents\firmware-apb-0100\TCPIP_Stack\UDP.c
       __UDPPutROMArray:1   0x0001dc       data     extern C:\Users\FERNANDO\Documents\firmware-apb-0100\TCPIP_Stack\UDP.c
      __UDPPutROMString:0   0x0001e0       data     extern C:\Users\FERNANDO\Documents\firmware-apb-0100\TCPIP_Stack\UDP.c
         __UDPPutString:0   0x0001de       data     extern C:\Users\FERNANDO\Documents\firmware-apb-0100\TCPIP_Stack\UDP.c
       __UDPSetRxBuffer:0   0x0001d1       data     extern C:\Users\FERNANDO\Documents\firmware-apb-0100\TCPIP_Stack\UDP.c
       __UDPSetTxBuffer:0   0x0001cf       data     extern C:\Users\FERNANDO\Documents\firmware-apb-0100\TCPIP_Stack\UDP.c
          __VLSIReadReg:0   0x000418       data     static C:\Users\FERNANDO\Documents\firmware-apb-0100\VLSICodec.c
         __VLSIWriteReg:0   0x000419       data     static C:\Users\FERNANDO\Documents\firmware-apb-0100\VLSICodec.c
         __VLSIWriteReg:1   0x00041a       data     static C:\Users\FERNANDO\Documents\firmware-apb-0100\VLSICodec.c
    __VLSI_SetBassBoost:0   0x000414       data     extern C:\Users\FERNANDO\Documents\firmware-apb-0100\VLSICodec.c
    __VLSI_SetBassBoost:1   0x000415       data     extern C:\Users\FERNANDO\Documents\firmware-apb-0100\VLSICodec.c
       __VLSI_SetVolume:0   0x000416       data     extern C:\Users\FERNANDO\Documents\firmware-apb-0100\VLSICodec.c
       __VLSI_SetVolume:1   0x000417       data     extern C:\Users\FERNANDO\Documents\firmware-apb-0100\VLSICodec.c
      __WriteBlockFlash:0   0x000452       data     extern C:\Users\FERNANDO\Documents\firmware-apb-0100\Flash\WriteBlockFlash.c
      __WriteBlockFlash:1   0x000456       data     extern C:\Users\FERNANDO\Documents\firmware-apb-0100\Flash\WriteBlockFlash.c
      __WriteBlockFlash:2   0x000457       data     extern C:\Users\FERNANDO\Documents\firmware-apb-0100\Flash\WriteBlockFlash.c
      __WriteBytesFlash:0   0x000432       data     extern C:\Users\FERNANDO\Documents\firmware-apb-0100\Flash\WriteBytesFlash.c
      __WriteBytesFlash:1   0x000436       data     extern C:\Users\FERNANDO\Documents\firmware-apb-0100\Flash\WriteBytesFlash.c
      __WriteBytesFlash:2   0x000438       data     extern C:\Users\FERNANDO\Documents\firmware-apb-0100\Flash\WriteBytesFlash.c
          __WritePHYReg:0   0x000091       data     extern C:\Users\FERNANDO\Documents\firmware-apb-0100\TCPIP_Stack\ETH97J60.c
          __WritePHYReg:1   0x000092       data     extern C:\Users\FERNANDO\Documents\firmware-apb-0100\TCPIP_Stack\ETH97J60.c
             __WriteSPI:0   0x00041c       data     static C:\Users\FERNANDO\Documents\firmware-apb-0100\VLSICodec.c
            ___DHCPSend:0   0x0002fa       data     static C:\Users\FERNANDO\Documents\firmware-apb-0100\TCPIP_Stack\DHCP.c
            ___DHCPSend:1   0x0002fb       data     static C:\Users\FERNANDO\Documents\firmware-apb-0100\TCPIP_Stack\DHCP.c
         __btohexa_high:0   0x000e4f       data     extern C:\Users\FERNANDO\Documents\firmware-apb-0100\TCPIP_Stack\Helpers.c
          __btohexa_low:0   0x000e50       data     extern C:\Users\FERNANDO\Documents\firmware-apb-0100\TCPIP_Stack\Helpers.c
              __hexatob:0   0x000e4d       data     extern C:\Users\FERNANDO\Documents\firmware-apb-0100\TCPIP_Stack\Helpers.c
      __leftRotateDWORD:0   0x000e64       data     extern C:\Users\FERNANDO\Documents\firmware-apb-0100\TCPIP_Stack\Helpers.c
      __leftRotateDWORD:1   0x000e68       data     extern C:\Users\FERNANDO\Documents\firmware-apb-0100\TCPIP_Stack\Helpers.c
       __stricmppgm2ram:0   0x000e51       data     extern C:\Users\FERNANDO\Documents\firmware-apb-0100\TCPIP_Stack\Helpers.c
       __stricmppgm2ram:1   0x000e53       data     extern C:\Users\FERNANDO\Documents\firmware-apb-0100\TCPIP_Stack\Helpers.c
              __strnchr:0   0x000e6b       data     extern C:\Users\FERNANDO\Documents\firmware-apb-0100\TCPIP_Stack\Helpers.c
              __strnchr:1   0x000e6d       data     extern C:\Users\FERNANDO\Documents\firmware-apb-0100\TCPIP_Stack\Helpers.c
              __strnchr:2   0x000e6f       data     extern C:\Users\FERNANDO\Documents\firmware-apb-0100\TCPIP_Stack\Helpers.c
                __swapl:0   0x000e58       data     extern C:\Users\FERNANDO\Documents\firmware-apb-0100\TCPIP_Stack\Helpers.c
                __swaps:0   0x000e56       data     extern C:\Users\FERNANDO\Documents\firmware-apb-0100\TCPIP_Stack\Helpers.c
                  __tmp_0   0x000000       data     static E:\3.46\pic18-lt\cxx-framework\src\traditional\stdclib\UnpkMath.c
                  __tmp_0   0x000000       data     static E:\3.46\pic18-lt\cxx-framework\src\traditional\stdclib\log.c
                  __tmp_0   0x000000       data     static E:\3.46\pic18-lt\cxx-framework\src\traditional\stdclib\log10.c
                  __tmp_0   0x000000       data     static E:\3.46\pic18-lt\cxx-framework\src\traditional\stdclib\frexp.c
                  __tmp_0   0x000000       data     static C:\Users\FERNANDO\Documents\firmware-apb-0100\Command_Execution.c
                  __tmp_0   0x000000       data     static E:\3.46\pic18-lt\cxx-framework\src\traditional\stdclib\PackMath.c
                  __tmp_0   0x000000       data     static C:\Users\FERNANDO\Documents\firmware-apb-0100\Leds_Pwm.c
                  __tmp_0   0x000000       data     static E:\3.46\pic18-lt\cxx-framework\src\traditional\stdclib\sprintf.c
                  __tmp_0   0x000000       data     static E:\3.46\pic18-lt\cxx-framework\src\traditional\stdclib\vfprintf.c
                  __tmp_0   0x000000       data     static E:\3.46\pic18-lt\cxx-framework\src\traditional\stdclib\putc.c
                  __tmp_0   0x000000       data     static C:\Users\FERNANDO\Documents\firmware-apb-0100\TCPIP_Stack\DHCP.c
                  __tmp_0   0x000000       data     static C:\Users\FERNANDO\Documents\firmware-apb-0100\MainDemo.c
                  __tmp_0   0x000000       data     static C:\Users\FERNANDO\Documents\firmware-apb-0100\TCPIP_Stack\DNS.c
                  __tmp_0   0x000000       data     static C:\Users\FERNANDO\Documents\firmware-apb-0100\TCPIP_Stack\StackTsk.c
                  __tmp_0   0x000000       data     static C:\Users\FERNANDO\Documents\firmware-apb-0100\TCPIP_Stack\UDP.c
                  __tmp_0   0x000000       data     static C:\Users\FERNANDO\Documents\firmware-apb-0100\VLSICodec.c
                  __tmp_0   0x000000       data     static C:\Users\FERNANDO\Documents\firmware-apb-0100\TCPIP_Stack\SPIRAM.c
                  __tmp_0   0x000000       data     static C:\Users\FERNANDO\Documents\firmware-apb-0100\TCPIP_Stack\IP.c
                  __tmp_0   0x000000       data     static C:\Users\FERNANDO\Documents\firmware-apb-0100\TCPIP_Stack\ICMP.c
                  __tmp_0   0x000000       data     static C:\Users\FERNANDO\Documents\firmware-apb-0100\TCPIP_Stack\Helpers.c
                  __tmp_0   0x000000       data     static C:\Users\FERNANDO\Documents\firmware-apb-0100\TCPIP_Stack\ETH97J60.c
                  __tmp_0   0x000000       data     static C:\Users\FERNANDO\Documents\firmware-apb-0100\TCPIP_Stack\ARP.c
                  __tmp_0   0x000000       data     static C:\Users\FERNANDO\Documents\firmware-apb-0100\GenericTCPClient.c
                  __tmp_0   0x000000       data     static C:\Users\FERNANDO\Documents\firmware-apb-0100\Flash\WriteBytesFlash.c
                  __tmp_0   0x000000       data     static C:\Users\FERNANDO\Documents\firmware-apb-0100\TCPIP_Stack\TCP.c
                  __tmp_0   0x000000       data     static C:\Users\FERNANDO\Documents\firmware-apb-0100\MP3Client.c
                  __tmp_0   0x000000       data     static C:\Users\FERNANDO\Documents\firmware-apb-0100\Flash\ReadFlash.c
                  __tmp_0   0x000000       data     static C:\Users\FERNANDO\Documents\firmware-apb-0100\Command_Parser.c
                  __tmp_1   0x000034       data     static C:\Users\FERNANDO\Documents\firmware-apb-0100\MP3Client.c
                  __tmp_1   0x000040       data     static C:\Users\FERNANDO\Documents\firmware-apb-0100\SPIRAM2.c
                  __tmp_2   0x000042       data     static C:\Users\FERNANDO\Documents\firmware-apb-0100\SPIRAM2.c
                  __tmp_3   0x000044       data     static C:\Users\FERNANDO\Documents\firmware-apb-0100\SPIRAM2.c
                __uitoa:0   0x000e49       data     extern C:\Users\FERNANDO\Documents\firmware-apb-0100\TCPIP_Stack\Helpers.c
                __uitoa:1   0x000e4b       data     extern C:\Users\FERNANDO\Documents\firmware-apb-0100\TCPIP_Stack\Helpers.c
                   _iTemp   0x000b04       data     static C:\Users\FERNANDO\Documents\firmware-apb-0100\VLSICodec.c
                        a   0x000e51       data     static C:\Users\FERNANDO\Documents\firmware-apb-0100\TCPIP_Stack\Helpers.c
          activeUDPSocket   0x0001b8       data     extern C:\Users\FERNANDO\Documents\firmware-apb-0100\TCPIP_Stack\UDP.c
